{
  "contractName": "MarketPlace",
  "abi": [
    {
      "inputs": [],
      "stateMutability": "nonpayable",
      "type": "constructor"
    },
    {
      "anonymous": false,
      "inputs": [
        {
          "indexed": true,
          "internalType": "address",
          "name": "owner",
          "type": "address"
        },
        {
          "indexed": true,
          "internalType": "address",
          "name": "approved",
          "type": "address"
        },
        {
          "indexed": true,
          "internalType": "uint256",
          "name": "tokenId",
          "type": "uint256"
        }
      ],
      "name": "Approval",
      "type": "event"
    },
    {
      "anonymous": false,
      "inputs": [
        {
          "indexed": true,
          "internalType": "address",
          "name": "owner",
          "type": "address"
        },
        {
          "indexed": true,
          "internalType": "address",
          "name": "operator",
          "type": "address"
        },
        {
          "indexed": false,
          "internalType": "bool",
          "name": "approved",
          "type": "bool"
        }
      ],
      "name": "ApprovalForAll",
      "type": "event"
    },
    {
      "anonymous": false,
      "inputs": [
        {
          "indexed": true,
          "internalType": "address",
          "name": "from",
          "type": "address"
        },
        {
          "indexed": true,
          "internalType": "address",
          "name": "to",
          "type": "address"
        },
        {
          "indexed": true,
          "internalType": "uint256",
          "name": "tokenId",
          "type": "uint256"
        }
      ],
      "name": "Transfer",
      "type": "event"
    },
    {
      "inputs": [
        {
          "internalType": "address",
          "name": "to",
          "type": "address"
        },
        {
          "internalType": "uint256",
          "name": "tokenId",
          "type": "uint256"
        }
      ],
      "name": "approve",
      "outputs": [],
      "stateMutability": "nonpayable",
      "type": "function"
    },
    {
      "inputs": [
        {
          "internalType": "address",
          "name": "owner",
          "type": "address"
        }
      ],
      "name": "balanceOf",
      "outputs": [
        {
          "internalType": "uint256",
          "name": "",
          "type": "uint256"
        }
      ],
      "stateMutability": "view",
      "type": "function",
      "constant": true
    },
    {
      "inputs": [
        {
          "internalType": "uint256",
          "name": "tokenId",
          "type": "uint256"
        }
      ],
      "name": "getApproved",
      "outputs": [
        {
          "internalType": "address",
          "name": "",
          "type": "address"
        }
      ],
      "stateMutability": "view",
      "type": "function",
      "constant": true
    },
    {
      "inputs": [
        {
          "internalType": "address",
          "name": "owner",
          "type": "address"
        },
        {
          "internalType": "address",
          "name": "operator",
          "type": "address"
        }
      ],
      "name": "isApprovedForAll",
      "outputs": [
        {
          "internalType": "bool",
          "name": "",
          "type": "bool"
        }
      ],
      "stateMutability": "view",
      "type": "function",
      "constant": true
    },
    {
      "inputs": [],
      "name": "minero",
      "outputs": [
        {
          "internalType": "address",
          "name": "",
          "type": "address"
        }
      ],
      "stateMutability": "view",
      "type": "function",
      "constant": true
    },
    {
      "inputs": [],
      "name": "nTokenOnSale",
      "outputs": [
        {
          "internalType": "uint256",
          "name": "",
          "type": "uint256"
        }
      ],
      "stateMutability": "view",
      "type": "function",
      "constant": true
    },
    {
      "inputs": [],
      "name": "name",
      "outputs": [
        {
          "internalType": "string",
          "name": "",
          "type": "string"
        }
      ],
      "stateMutability": "view",
      "type": "function",
      "constant": true
    },
    {
      "inputs": [
        {
          "internalType": "uint256",
          "name": "tokenId",
          "type": "uint256"
        }
      ],
      "name": "ownerOf",
      "outputs": [
        {
          "internalType": "address",
          "name": "",
          "type": "address"
        }
      ],
      "stateMutability": "view",
      "type": "function",
      "constant": true
    },
    {
      "inputs": [
        {
          "internalType": "address",
          "name": "from",
          "type": "address"
        },
        {
          "internalType": "address",
          "name": "to",
          "type": "address"
        },
        {
          "internalType": "uint256",
          "name": "tokenId",
          "type": "uint256"
        }
      ],
      "name": "safeTransferFrom",
      "outputs": [],
      "stateMutability": "nonpayable",
      "type": "function"
    },
    {
      "inputs": [
        {
          "internalType": "address",
          "name": "from",
          "type": "address"
        },
        {
          "internalType": "address",
          "name": "to",
          "type": "address"
        },
        {
          "internalType": "uint256",
          "name": "tokenId",
          "type": "uint256"
        },
        {
          "internalType": "bytes",
          "name": "_data",
          "type": "bytes"
        }
      ],
      "name": "safeTransferFrom",
      "outputs": [],
      "stateMutability": "nonpayable",
      "type": "function"
    },
    {
      "inputs": [
        {
          "internalType": "address",
          "name": "operator",
          "type": "address"
        },
        {
          "internalType": "bool",
          "name": "approved",
          "type": "bool"
        }
      ],
      "name": "setApprovalForAll",
      "outputs": [],
      "stateMutability": "nonpayable",
      "type": "function"
    },
    {
      "inputs": [
        {
          "internalType": "bytes4",
          "name": "interfaceId",
          "type": "bytes4"
        }
      ],
      "name": "supportsInterface",
      "outputs": [
        {
          "internalType": "bool",
          "name": "",
          "type": "bool"
        }
      ],
      "stateMutability": "view",
      "type": "function",
      "constant": true
    },
    {
      "inputs": [],
      "name": "symbol",
      "outputs": [
        {
          "internalType": "string",
          "name": "",
          "type": "string"
        }
      ],
      "stateMutability": "view",
      "type": "function",
      "constant": true
    },
    {
      "inputs": [
        {
          "internalType": "uint256",
          "name": "index",
          "type": "uint256"
        }
      ],
      "name": "tokenByIndex",
      "outputs": [
        {
          "internalType": "uint256",
          "name": "",
          "type": "uint256"
        }
      ],
      "stateMutability": "view",
      "type": "function",
      "constant": true
    },
    {
      "inputs": [
        {
          "internalType": "address",
          "name": "owner",
          "type": "address"
        },
        {
          "internalType": "uint256",
          "name": "index",
          "type": "uint256"
        }
      ],
      "name": "tokenOfOwnerByIndex",
      "outputs": [
        {
          "internalType": "uint256",
          "name": "",
          "type": "uint256"
        }
      ],
      "stateMutability": "view",
      "type": "function",
      "constant": true
    },
    {
      "inputs": [
        {
          "internalType": "uint256",
          "name": "tokenId",
          "type": "uint256"
        }
      ],
      "name": "tokenURI",
      "outputs": [
        {
          "internalType": "string",
          "name": "",
          "type": "string"
        }
      ],
      "stateMutability": "view",
      "type": "function",
      "constant": true
    },
    {
      "inputs": [
        {
          "internalType": "uint256",
          "name": "",
          "type": "uint256"
        }
      ],
      "name": "tokensData",
      "outputs": [
        {
          "internalType": "uint256",
          "name": "price",
          "type": "uint256"
        },
        {
          "internalType": "string",
          "name": "data",
          "type": "string"
        },
        {
          "internalType": "bool",
          "name": "onSale",
          "type": "bool"
        },
        {
          "internalType": "uint256",
          "name": "tokenID",
          "type": "uint256"
        }
      ],
      "stateMutability": "view",
      "type": "function",
      "constant": true
    },
    {
      "inputs": [],
      "name": "totalSupply",
      "outputs": [
        {
          "internalType": "uint256",
          "name": "",
          "type": "uint256"
        }
      ],
      "stateMutability": "view",
      "type": "function",
      "constant": true
    },
    {
      "inputs": [
        {
          "internalType": "address",
          "name": "from",
          "type": "address"
        },
        {
          "internalType": "address",
          "name": "to",
          "type": "address"
        },
        {
          "internalType": "uint256",
          "name": "tokenId",
          "type": "uint256"
        }
      ],
      "name": "transferFrom",
      "outputs": [],
      "stateMutability": "nonpayable",
      "type": "function"
    },
    {
      "inputs": [
        {
          "internalType": "address",
          "name": "receptor",
          "type": "address"
        },
        {
          "internalType": "string",
          "name": "datos",
          "type": "string"
        },
        {
          "internalType": "uint256",
          "name": "price",
          "type": "uint256"
        }
      ],
      "name": "minar",
      "outputs": [
        {
          "internalType": "uint256",
          "name": "",
          "type": "uint256"
        }
      ],
      "stateMutability": "nonpayable",
      "type": "function"
    },
    {
      "inputs": [
        {
          "internalType": "address",
          "name": "to",
          "type": "address"
        },
        {
          "internalType": "uint256",
          "name": "tokenId",
          "type": "uint256"
        }
      ],
      "name": "transferirNft",
      "outputs": [
        {
          "internalType": "address",
          "name": "",
          "type": "address"
        }
      ],
      "stateMutability": "nonpayable",
      "type": "function"
    },
    {
      "inputs": [
        {
          "internalType": "uint256",
          "name": "tokenId",
          "type": "uint256"
        }
      ],
      "name": "quemarNft",
      "outputs": [
        {
          "internalType": "bool",
          "name": "",
          "type": "bool"
        }
      ],
      "stateMutability": "nonpayable",
      "type": "function"
    },
    {
      "inputs": [
        {
          "internalType": "uint256",
          "name": "tokenid",
          "type": "uint256"
        },
        {
          "internalType": "uint256",
          "name": "price",
          "type": "uint256"
        }
      ],
      "name": "revender",
      "outputs": [],
      "stateMutability": "nonpayable",
      "type": "function"
    },
    {
      "inputs": [
        {
          "internalType": "uint256",
          "name": "tokenid",
          "type": "uint256"
        }
      ],
      "name": "quitarDelMarketPlace",
      "outputs": [],
      "stateMutability": "nonpayable",
      "type": "function"
    },
    {
      "inputs": [],
      "name": "obtenerNfts",
      "outputs": [
        {
          "components": [
            {
              "internalType": "uint256",
              "name": "price",
              "type": "uint256"
            },
            {
              "internalType": "string",
              "name": "data",
              "type": "string"
            },
            {
              "internalType": "bool",
              "name": "onSale",
              "type": "bool"
            },
            {
              "internalType": "uint256",
              "name": "tokenID",
              "type": "uint256"
            }
          ],
          "internalType": "struct MarketPlace.tokenData[]",
          "name": "",
          "type": "tuple[]"
        }
      ],
      "stateMutability": "view",
      "type": "function",
      "constant": true
    },
    {
      "inputs": [
        {
          "internalType": "uint256",
          "name": "nTokenP",
          "type": "uint256"
        },
        {
          "internalType": "uint256",
          "name": "nPagina",
          "type": "uint256"
        }
      ],
      "name": "obtenerPaginav1",
      "outputs": [
        {
          "components": [
            {
              "internalType": "uint256",
              "name": "price",
              "type": "uint256"
            },
            {
              "internalType": "string",
              "name": "data",
              "type": "string"
            },
            {
              "internalType": "bool",
              "name": "onSale",
              "type": "bool"
            },
            {
              "internalType": "uint256",
              "name": "tokenID",
              "type": "uint256"
            }
          ],
          "internalType": "struct MarketPlace.tokenData[]",
          "name": "",
          "type": "tuple[]"
        }
      ],
      "stateMutability": "view",
      "type": "function",
      "constant": true
    },
    {
      "inputs": [
        {
          "internalType": "uint256",
          "name": "nTokenP",
          "type": "uint256"
        },
        {
          "internalType": "uint256",
          "name": "nPagina",
          "type": "uint256"
        }
      ],
      "name": "obtenerPaginav2",
      "outputs": [
        {
          "components": [
            {
              "internalType": "uint256",
              "name": "price",
              "type": "uint256"
            },
            {
              "internalType": "string",
              "name": "data",
              "type": "string"
            },
            {
              "internalType": "bool",
              "name": "onSale",
              "type": "bool"
            },
            {
              "internalType": "uint256",
              "name": "tokenID",
              "type": "uint256"
            }
          ],
          "internalType": "struct MarketPlace.tokenData[]",
          "name": "",
          "type": "tuple[]"
        }
      ],
      "stateMutability": "view",
      "type": "function",
      "constant": true
    },
    {
      "inputs": [
        {
          "internalType": "uint256",
          "name": "tokenId",
          "type": "uint256"
        }
      ],
      "name": "comprarNft",
      "outputs": [],
      "stateMutability": "payable",
      "type": "function",
      "payable": true
    },
    {
      "inputs": [
        {
          "internalType": "address",
          "name": "owner",
          "type": "address"
        }
      ],
      "name": "tokensOf",
      "outputs": [
        {
          "components": [
            {
              "internalType": "uint256",
              "name": "price",
              "type": "uint256"
            },
            {
              "internalType": "string",
              "name": "data",
              "type": "string"
            },
            {
              "internalType": "bool",
              "name": "onSale",
              "type": "bool"
            },
            {
              "internalType": "uint256",
              "name": "tokenID",
              "type": "uint256"
            }
          ],
          "internalType": "struct MarketPlace.tokenData[]",
          "name": "",
          "type": "tuple[]"
        }
      ],
      "stateMutability": "view",
      "type": "function",
      "constant": true
    }
  ],
  "bytecode": "0x60806040523480156200001157600080fd5b506040518060400160405280600b81526020017f4d61726b6574506c6163650000000000000000000000000000000000000000008152506040518060400160405280600381526020017f4d50450000000000000000000000000000000000000000000000000000000000815250816000908051906020019062000096929190620000f9565b508060019080519060200190620000af929190620000f9565b50505033600b60006101000a81548173ffffffffffffffffffffffffffffffffffffffff021916908373ffffffffffffffffffffffffffffffffffffffff1602179055506200020e565b8280546200010790620001a9565b90600052602060002090601f0160209004810192826200012b576000855562000177565b82601f106200014657805160ff191683800117855562000177565b8280016001018555821562000177579182015b828111156200017657825182559160200191906001019062000159565b5b5090506200018691906200018a565b5090565b5b80821115620001a55760008160009055506001016200018b565b5090565b60006002820490506001821680620001c257607f821691505b60208210811415620001d957620001d8620001df565b5b50919050565b7f4e487b7100000000000000000000000000000000000000000000000000000000600052602260045260246000fd5b614c18806200021e6000396000f3fe6080604052600436106101c25760003560e01c8063599ed3ff116100f7578063b2d8adc811610095578063e985e9c511610064578063e985e9c5146106c7578063edfd03bd14610704578063f5a99e9014610720578063f5d8b8a31461075d576101c2565b8063b2d8adc8146105f9578063b88d4fde14610624578063c87b56dd1461064d578063e7a82a011461068a576101c2565b806370a08231116100d157806370a082311461052b57806395d89b41146105685780639c62a52a14610593578063a22cb465146105d0576101c2565b8063599ed3ff146104715780635a3f2672146104b15780636352211e146104ee576101c2565b80632f745c591161016457806342842e0e1161013e57806342842e0e146103a35780634f6ccce7146103cc5780635551ef611461040957806356ce03f114610434576101c2565b80632f745c5914610312578063390b91511461034f5780633fe9764814610378576101c2565b8063095ea7b3116101a0578063095ea7b31461026c57806318160ddd146102955780631d3923ed146102c057806323b872dd146102e9576101c2565b806301ffc9a7146101c757806306fdde0314610204578063081812fc1461022f575b600080fd5b3480156101d357600080fd5b506101ee60048036038101906101e991906135ec565b61079a565b6040516101fb9190613cab565b60405180910390f35b34801561021057600080fd5b50610219610814565b6040516102269190613cc6565b60405180910390f35b34801561023b57600080fd5b506102566004803603810190610251919061363e565b6108a6565b6040516102639190613c22565b60405180910390f35b34801561027857600080fd5b50610293600480360381019061028e91906135b0565b61092b565b005b3480156102a157600080fd5b506102aa610a43565b6040516102b79190613fe8565b60405180910390f35b3480156102cc57600080fd5b506102e760048036038101906102e2919061363e565b610a50565b005b3480156102f557600080fd5b50610310600480360381019061030b9190613443565b610b5b565b005b34801561031e57600080fd5b50610339600480360381019061033491906135b0565b610bbb565b6040516103469190613fe8565b60405180910390f35b34801561035b57600080fd5b5061037660048036038101906103719190613667565b610c60565b005b34801561038457600080fd5b5061038d610d7f565b60405161039a9190613fe8565b60405180910390f35b3480156103af57600080fd5b506103ca60048036038101906103c59190613443565b610d85565b005b3480156103d857600080fd5b506103f360048036038101906103ee919061363e565b610da5565b6040516104009190613fe8565b60405180910390f35b34801561041557600080fd5b5061041e610e3c565b60405161042b9190613c89565b60405180910390f35b34801561044057600080fd5b5061045b600480360381019061045691906135b0565b611014565b6040516104689190613c22565b60405180910390f35b34801561047d57600080fd5b506104986004803603810190610493919061363e565b6110e8565b6040516104a89493929190614003565b60405180910390f35b3480156104bd57600080fd5b506104d860048036038101906104d391906133de565b6111ad565b6040516104e59190613c89565b60405180910390f35b3480156104fa57600080fd5b506105156004803603810190610510919061363e565b61141b565b6040516105229190613c22565b60405180910390f35b34801561053757600080fd5b50610552600480360381019061054d91906133de565b6114cd565b60405161055f9190613fe8565b60405180910390f35b34801561057457600080fd5b5061057d611585565b60405161058a9190613cc6565b60405180910390f35b34801561059f57600080fd5b506105ba60048036038101906105b59190613549565b611617565b6040516105c79190613fe8565b60405180910390f35b3480156105dc57600080fd5b506105f760048036038101906105f2919061350d565b6116ed565b005b34801561060557600080fd5b5061060e61186e565b60405161061b9190613c22565b60405180910390f35b34801561063057600080fd5b5061064b60048036038101906106469190613492565b611894565b005b34801561065957600080fd5b50610674600480360381019061066f919061363e565b6118f6565b6040516106819190613cc6565b60405180910390f35b34801561069657600080fd5b506106b160048036038101906106ac919061363e565b61199d565b6040516106be9190613cab565b60405180910390f35b3480156106d357600080fd5b506106ee60048036038101906106e99190613407565b611a6f565b6040516106fb9190613cab565b60405180910390f35b61071e6004803603810190610719919061363e565b611b03565b005b34801561072c57600080fd5b5061074760048036038101906107429190613667565b611c68565b6040516107549190613c89565b60405180910390f35b34801561076957600080fd5b50610784600480360381019061077f9190613667565b611ec5565b6040516107919190613c89565b60405180910390f35b60007f780e9d63000000000000000000000000000000000000000000000000000000007bffffffffffffffffffffffffffffffffffffffffffffffffffffffff1916827bffffffffffffffffffffffffffffffffffffffffffffffffffffffff1916148061080d575061080c826120c7565b5b9050919050565b60606000805461082390614358565b80601f016020809104026020016040519081016040528092919081815260200182805461084f90614358565b801561089c5780601f106108715761010080835404028352916020019161089c565b820191906000526020600020905b81548152906001019060200180831161087f57829003601f168201915b5050505050905090565b60006108b1826121a9565b6108f0576040517f08c379a00000000000000000000000000000000000000000000000000000000081526004016108e790613e68565b60405180910390fd5b6004600083815260200190815260200160002060009054906101000a900473ffffffffffffffffffffffffffffffffffffffff169050919050565b60006109368261141b565b90508073ffffffffffffffffffffffffffffffffffffffff168373ffffffffffffffffffffffffffffffffffffffff1614156109a7576040517f08c379a000000000000000000000000000000000000000000000000000000000815260040161099e90613ee8565b60405180910390fd5b8073ffffffffffffffffffffffffffffffffffffffff166109c6612215565b73ffffffffffffffffffffffffffffffffffffffff1614806109f557506109f4816109ef612215565b611a6f565b5b610a34576040517f08c379a0000000000000000000000000000000000000000000000000000000008152600401610a2b90613dc8565b60405180910390fd5b610a3e838361221d565b505050565b6000600880549050905090565b3373ffffffffffffffffffffffffffffffffffffffff16610a708261141b565b73ffffffffffffffffffffffffffffffffffffffff1614610ac6576040517f08c379a0000000000000000000000000000000000000000000000000000000008152600401610abd90613e28565b60405180910390fd5b610ad0600a6122d6565b8110610b11576040517f08c379a0000000000000000000000000000000000000000000000000000000008152600401610b0890613fa8565b60405180910390fd5b6000600d600083815260200190815260200160002060020160006101000a81548160ff021916908315150217905550600c6000815480929190610b539061432e565b919050555050565b610b6c610b66612215565b826122e4565b610bab576040517f08c379a0000000000000000000000000000000000000000000000000000000008152600401610ba290613f28565b60405180910390fd5b610bb68383836123c2565b505050565b6000610bc6836114cd565b8210610c07576040517f08c379a0000000000000000000000000000000000000000000000000000000008152600401610bfe90613ce8565b60405180910390fd5b600660008473ffffffffffffffffffffffffffffffffffffffff1673ffffffffffffffffffffffffffffffffffffffff168152602001908152602001600020600083815260200190815260200160002054905092915050565b3373ffffffffffffffffffffffffffffffffffffffff16610c808361141b565b73ffffffffffffffffffffffffffffffffffffffff1614610cd6576040517f08c379a0000000000000000000000000000000000000000000000000000000008152600401610ccd90613e28565b60405180910390fd5b60008111610d19576040517f08c379a0000000000000000000000000000000000000000000000000000000008152600401610d1090613f88565b60405180910390fd5b6001600d600084815260200190815260200160002060020160006101000a81548160ff02191690831515021790555080600d600084815260200190815260200160002060000181905550600c6000815480929190610d76906143bb565b91905055505050565b600c5481565b610da083838360405180602001604052806000815250611894565b505050565b6000610daf610a43565b8210610df0576040517f08c379a0000000000000000000000000000000000000000000000000000000008152600401610de790613f48565b60405180910390fd5b60088281548110610e2a577f4e487b7100000000000000000000000000000000000000000000000000000000600052603260045260246000fd5b90600052602060002001549050919050565b60606000610e4a600a6122d6565b905060008167ffffffffffffffff811115610e8e577f4e487b7100000000000000000000000000000000000000000000000000000000600052604160045260246000fd5b604051908082528060200260200182016040528015610ec757816020015b610eb46131d8565b815260200190600190039081610eac5790505b50905060005b8281101561100b57600d600082815260200190815260200160002060405180608001604052908160008201548152602001600182018054610f0d90614358565b80601f0160208091040260200160405190810160405280929190818152602001828054610f3990614358565b8015610f865780601f10610f5b57610100808354040283529160200191610f86565b820191906000526020600020905b815481529060010190602001808311610f6957829003601f168201915b505050505081526020016002820160009054906101000a900460ff16151515158152602001600382015481525050828281518110610fed577f4e487b7100000000000000000000000000000000000000000000000000000000600052603260045260246000fd5b60200260200101819052508080611003906143bb565b915050610ecd565b50809250505090565b600061101f826121a9565b61105e576040517f08c379a000000000000000000000000000000000000000000000000000000000815260040161105590613d88565b60405180910390fd5b6110678261141b565b73ffffffffffffffffffffffffffffffffffffffff163373ffffffffffffffffffffffffffffffffffffffff16146110d4576040517f08c379a00000000000000000000000000000000000000000000000000000000081526004016110cb90613f08565b60405180910390fd5b6110df338484610d85565b82905092915050565b600d60205280600052604060002060009150905080600001549080600101805461111190614358565b80601f016020809104026020016040519081016040528092919081815260200182805461113d90614358565b801561118a5780601f1061115f5761010080835404028352916020019161118a565b820191906000526020600020905b81548152906001019060200180831161116d57829003601f168201915b5050505050908060020160009054906101000a900460ff16908060030154905084565b606060006111ba836114cd565b90506000811415611247578067ffffffffffffffff811115611205577f4e487b7100000000000000000000000000000000000000000000000000000000600052604160045260246000fd5b60405190808252806020026020018201604052801561123e57816020015b61122b6131d8565b8152602001906001900390816112235790505b50915050611416565b60008167ffffffffffffffff811115611289577f4e487b7100000000000000000000000000000000000000000000000000000000600052604160045260246000fd5b6040519080825280602002602001820160405280156112c257816020015b6112af6131d8565b8152602001906001900390816112a75790505b50905060005b8281101561140f57600d60006112de8784610bbb565b81526020019081526020016000206040518060800160405290816000820154815260200160018201805461131190614358565b80601f016020809104026020016040519081016040528092919081815260200182805461133d90614358565b801561138a5780601f1061135f5761010080835404028352916020019161138a565b820191906000526020600020905b81548152906001019060200180831161136d57829003601f168201915b505050505081526020016002820160009054906101000a900460ff161515151581526020016003820154815250508282815181106113f1577f4e487b7100000000000000000000000000000000000000000000000000000000600052603260045260246000fd5b60200260200101819052508080611407906143bb565b9150506112c8565b5080925050505b919050565b6000806002600084815260200190815260200160002060009054906101000a900473ffffffffffffffffffffffffffffffffffffffff169050600073ffffffffffffffffffffffffffffffffffffffff168173ffffffffffffffffffffffffffffffffffffffff1614156114c4576040517f08c379a00000000000000000000000000000000000000000000000000000000081526004016114bb90613e08565b60405180910390fd5b80915050919050565b60008073ffffffffffffffffffffffffffffffffffffffff168273ffffffffffffffffffffffffffffffffffffffff16141561153e576040517f08c379a000000000000000000000000000000000000000000000000000000000815260040161153590613de8565b60405180910390fd5b600360008373ffffffffffffffffffffffffffffffffffffffff1673ffffffffffffffffffffffffffffffffffffffff168152602001908152602001600020549050919050565b60606001805461159490614358565b80601f01602080910402602001604051908101604052809291908181526020018280546115c090614358565b801561160d5780601f106115e25761010080835404028352916020019161160d565b820191906000526020600020905b8154815290600101906020018083116115f057829003601f168201915b5050505050905090565b600080611624600a6122d6565b9050611630600a61261e565b61163a8582612634565b83600d60008381526020019081526020016000206001019080519060200190611664929190613202565b5082600d6000838152602001908152602001600020600001819055506001600d600083815260200190815260200160002060020160006101000a81548160ff02191690831515021790555080600d600083815260200190815260200160002060030181905550600c60008154809291906116dd906143bb565b9190505550809150509392505050565b6116f5612215565b73ffffffffffffffffffffffffffffffffffffffff168273ffffffffffffffffffffffffffffffffffffffff161415611763576040517f08c379a000000000000000000000000000000000000000000000000000000000815260040161175a90613d68565b60405180910390fd5b8060056000611770612215565b73ffffffffffffffffffffffffffffffffffffffff1673ffffffffffffffffffffffffffffffffffffffff16815260200190815260200160002060008473ffffffffffffffffffffffffffffffffffffffff1673ffffffffffffffffffffffffffffffffffffffff16815260200190815260200160002060006101000a81548160ff0219169083151502179055508173ffffffffffffffffffffffffffffffffffffffff1661181d612215565b73ffffffffffffffffffffffffffffffffffffffff167f17307eab39ab6107e8899845ad3d59bd9653f200f220920489ca2b5937696c31836040516118629190613cab565b60405180910390a35050565b600b60009054906101000a900473ffffffffffffffffffffffffffffffffffffffff1681565b6118a561189f612215565b836122e4565b6118e4576040517f08c379a00000000000000000000000000000000000000000000000000000000081526004016118db90613f28565b60405180910390fd5b6118f084848484612802565b50505050565b6060611901826121a9565b611940576040517f08c379a000000000000000000000000000000000000000000000000000000000815260040161193790613ec8565b60405180910390fd5b600061194a61285e565b9050600081511161196a5760405180602001604052806000815250611995565b8061197484612875565b604051602001611985929190613bfe565b6040516020818303038152906040525b915050919050565b60006119a8826121a9565b6119e7576040517f08c379a00000000000000000000000000000000000000000000000000000000081526004016119de90613e88565b60405180910390fd5b6119f08261141b565b73ffffffffffffffffffffffffffffffffffffffff163373ffffffffffffffffffffffffffffffffffffffff1614611a5d576040517f08c379a0000000000000000000000000000000000000000000000000000000008152600401611a5490613f08565b60405180910390fd5b611a6682612a22565b60019050919050565b6000600560008473ffffffffffffffffffffffffffffffffffffffff1673ffffffffffffffffffffffffffffffffffffffff16815260200190815260200160002060008373ffffffffffffffffffffffffffffffffffffffff1673ffffffffffffffffffffffffffffffffffffffff16815260200190815260200160002060009054906101000a900460ff16905092915050565b600d6000828152602001908152602001600020600001543414611b5b576040517f08c379a0000000000000000000000000000000000000000000000000000000008152600401611b5290613f68565b60405180910390fd5b600d600082815260200190815260200160002060020160009054906101000a900460ff16611bbe576040517f08c379a0000000000000000000000000000000000000000000000000000000008152600401611bb590613fc8565b60405180910390fd5b6000611bc98261141b565b9050611bd68133846123c2565b8073ffffffffffffffffffffffffffffffffffffffff166108fc349081150290604051600060405180830381858888f19350505050158015611c1c573d6000803e3d6000fd5b506000600d600084815260200190815260200160002060020160006101000a81548160ff021916908315150217905550600c6000815480929190611c5f9061432e565b91905055505050565b60606000611c76600a6122d6565b905060008060008667ffffffffffffffff811115611cbd577f4e487b7100000000000000000000000000000000000000000000000000000000600052604160045260246000fd5b604051908082528060200260200182016040528015611cf657816020015b611ce36131d8565b815260200190600190039081611cdb5790505b50905060005b84811015611eb757600d600082815260200190815260200160002060020160009054906101000a900460ff1615611ea4578280611d38906143bb565b9350508688611d4791906141ea565b8310611e7f57600d600082815260200190815260200160002060405180608001604052908160008201548152602001600182018054611d8590614358565b80601f0160208091040260200160405190810160405280929190818152602001828054611db190614358565b8015611dfe5780601f10611dd357610100808354040283529160200191611dfe565b820191906000526020600020905b815481529060010190602001808311611de157829003601f168201915b505050505081526020016002820160009054906101000a900460ff16151515158152602001600382015481525050828581518110611e65577f4e487b7100000000000000000000000000000000000000000000000000000000600052603260045260246000fd5b60200260200101819052508380611e7b906143bb565b9450505b600187611e8c9190614163565b88611e9791906141ea565b831415611ea357611eb7565b5b8080611eaf906143bb565b915050611cfc565b508094505050505092915050565b606060008383611ed591906141ea565b905060008467ffffffffffffffff811115611f19577f4e487b7100000000000000000000000000000000000000000000000000000000600052604160045260246000fd5b604051908082528060200260200182016040528015611f5257816020015b611f3f6131d8565b815260200190600190039081611f375790505b50905060008290505b600185611f689190614163565b86611f7391906141ea565b8110156120bb57600d600082815260200190815260200160002060405180608001604052908160008201548152602001600182018054611fb290614358565b80601f0160208091040260200160405190810160405280929190818152602001828054611fde90614358565b801561202b5780601f106120005761010080835404028352916020019161202b565b820191906000526020600020905b81548152906001019060200180831161200e57829003601f168201915b505050505081526020016002820160009054906101000a900460ff161515151581526020016003820154815250508284836120669190614244565b8151811061209d577f4e487b7100000000000000000000000000000000000000000000000000000000600052603260045260246000fd5b602002602001018190525080806120b3906143bb565b915050611f5b565b50809250505092915050565b60007f80ac58cd000000000000000000000000000000000000000000000000000000007bffffffffffffffffffffffffffffffffffffffffffffffffffffffff1916827bffffffffffffffffffffffffffffffffffffffffffffffffffffffff1916148061219257507f5b5e139f000000000000000000000000000000000000000000000000000000007bffffffffffffffffffffffffffffffffffffffffffffffffffffffff1916827bffffffffffffffffffffffffffffffffffffffffffffffffffffffff1916145b806121a257506121a182612b33565b5b9050919050565b60008073ffffffffffffffffffffffffffffffffffffffff166002600084815260200190815260200160002060009054906101000a900473ffffffffffffffffffffffffffffffffffffffff1673ffffffffffffffffffffffffffffffffffffffff1614159050919050565b600033905090565b816004600083815260200190815260200160002060006101000a81548173ffffffffffffffffffffffffffffffffffffffff021916908373ffffffffffffffffffffffffffffffffffffffff160217905550808273ffffffffffffffffffffffffffffffffffffffff166122908361141b565b73ffffffffffffffffffffffffffffffffffffffff167f8c5be1e5ebec7d5bd14f71427d1e84f3dd0314c0f7b2291e5b200ac8c7c3b92560405160405180910390a45050565b600081600001549050919050565b60006122ef826121a9565b61232e576040517f08c379a000000000000000000000000000000000000000000000000000000000815260040161232590613da8565b60405180910390fd5b60006123398361141b565b90508073ffffffffffffffffffffffffffffffffffffffff168473ffffffffffffffffffffffffffffffffffffffff1614806123a857508373ffffffffffffffffffffffffffffffffffffffff16612390846108a6565b73ffffffffffffffffffffffffffffffffffffffff16145b806123b957506123b88185611a6f565b5b91505092915050565b8273ffffffffffffffffffffffffffffffffffffffff166123e28261141b565b73ffffffffffffffffffffffffffffffffffffffff1614612438576040517f08c379a000000000000000000000000000000000000000000000000000000000815260040161242f90613ea8565b60405180910390fd5b600073ffffffffffffffffffffffffffffffffffffffff168273ffffffffffffffffffffffffffffffffffffffff1614156124a8576040517f08c379a000000000000000000000000000000000000000000000000000000000815260040161249f90613d48565b60405180910390fd5b6124b3838383612b9d565b6124be60008261221d565b6001600360008573ffffffffffffffffffffffffffffffffffffffff1673ffffffffffffffffffffffffffffffffffffffff168152602001908152602001600020600082825461250e9190614244565b925050819055506001600360008473ffffffffffffffffffffffffffffffffffffffff1673ffffffffffffffffffffffffffffffffffffffff16815260200190815260200160002060008282546125659190614163565b92505081905550816002600083815260200190815260200160002060006101000a81548173ffffffffffffffffffffffffffffffffffffffff021916908373ffffffffffffffffffffffffffffffffffffffff160217905550808273ffffffffffffffffffffffffffffffffffffffff168473ffffffffffffffffffffffffffffffffffffffff167fddf252ad1be2c89b69c2b068fc378daa952ba7f163c4a11628f55a4df523b3ef60405160405180910390a4505050565b6001816000016000828254019250508190555050565b600073ffffffffffffffffffffffffffffffffffffffff168273ffffffffffffffffffffffffffffffffffffffff1614156126a4576040517f08c379a000000000000000000000000000000000000000000000000000000000815260040161269b90613e48565b60405180910390fd5b6126ad816121a9565b156126ed576040517f08c379a00000000000000000000000000000000000000000000000000000000081526004016126e490613d28565b60405180910390fd5b6126f960008383612b9d565b6001600360008473ffffffffffffffffffffffffffffffffffffffff1673ffffffffffffffffffffffffffffffffffffffff16815260200190815260200160002060008282546127499190614163565b92505081905550816002600083815260200190815260200160002060006101000a81548173ffffffffffffffffffffffffffffffffffffffff021916908373ffffffffffffffffffffffffffffffffffffffff160217905550808273ffffffffffffffffffffffffffffffffffffffff16600073ffffffffffffffffffffffffffffffffffffffff167fddf252ad1be2c89b69c2b068fc378daa952ba7f163c4a11628f55a4df523b3ef60405160405180910390a45050565b61280d8484846123c2565b61281984848484612cb1565b612858576040517f08c379a000000000000000000000000000000000000000000000000000000000815260040161284f90613d08565b60405180910390fd5b50505050565b606060405180602001604052806000815250905090565b606060008214156128bd576040518060400160405280600181526020017f30000000000000000000000000000000000000000000000000000000000000008152509050612a1d565b600082905060005b600082146128ef5780806128d8906143bb565b915050600a826128e891906141b9565b91506128c5565b60008167ffffffffffffffff811115612931577f4e487b7100000000000000000000000000000000000000000000000000000000600052604160045260246000fd5b6040519080825280601f01601f1916602001820160405280156129635781602001600182028036833780820191505090505b5090505b60008514612a165760018261297c9190614244565b9150600a8561298b9190614404565b60306129979190614163565b60f81b8183815181106129d3577f4e487b7100000000000000000000000000000000000000000000000000000000600052603260045260246000fd5b60200101907effffffffffffffffffffffffffffffffffffffffffffffffffffffffffffff1916908160001a905350600a85612a0f91906141b9565b9450612967565b8093505050505b919050565b6000612a2d8261141b565b9050612a3b81600084612b9d565b612a4660008361221d565b6001600360008373ffffffffffffffffffffffffffffffffffffffff1673ffffffffffffffffffffffffffffffffffffffff1681526020019081526020016000206000828254612a969190614244565b925050819055506002600083815260200190815260200160002060006101000a81549073ffffffffffffffffffffffffffffffffffffffff021916905581600073ffffffffffffffffffffffffffffffffffffffff168273ffffffffffffffffffffffffffffffffffffffff167fddf252ad1be2c89b69c2b068fc378daa952ba7f163c4a11628f55a4df523b3ef60405160405180910390a45050565b60007f01ffc9a7000000000000000000000000000000000000000000000000000000007bffffffffffffffffffffffffffffffffffffffffffffffffffffffff1916827bffffffffffffffffffffffffffffffffffffffffffffffffffffffff1916149050919050565b612ba8838383612e48565b600073ffffffffffffffffffffffffffffffffffffffff168373ffffffffffffffffffffffffffffffffffffffff161415612beb57612be681612e4d565b612c2a565b8173ffffffffffffffffffffffffffffffffffffffff168373ffffffffffffffffffffffffffffffffffffffff1614612c2957612c288382612e96565b5b5b600073ffffffffffffffffffffffffffffffffffffffff168273ffffffffffffffffffffffffffffffffffffffff161415612c6d57612c6881613003565b612cac565b8273ffffffffffffffffffffffffffffffffffffffff168273ffffffffffffffffffffffffffffffffffffffff1614612cab57612caa8282613146565b5b5b505050565b6000612cd28473ffffffffffffffffffffffffffffffffffffffff166131c5565b15612e3b578373ffffffffffffffffffffffffffffffffffffffff1663150b7a02612cfb612215565b8786866040518563ffffffff1660e01b8152600401612d1d9493929190613c3d565b602060405180830381600087803b158015612d3757600080fd5b505af1925050508015612d6857506040513d601f19601f82011682018060405250810190612d659190613615565b60015b612deb573d8060008114612d98576040519150601f19603f3d011682016040523d82523d6000602084013e612d9d565b606091505b50600081511415612de3576040517f08c379a0000000000000000000000000000000000000000000000000000000008152600401612dda90613d08565b60405180910390fd5b805181602001fd5b63150b7a0260e01b7bffffffffffffffffffffffffffffffffffffffffffffffffffffffff1916817bffffffffffffffffffffffffffffffffffffffffffffffffffffffff191614915050612e40565b600190505b949350505050565b505050565b6008805490506009600083815260200190815260200160002081905550600881908060018154018082558091505060019003906000526020600020016000909190919091505550565b60006001612ea3846114cd565b612ead9190614244565b9050600060076000848152602001908152602001600020549050818114612f92576000600660008673ffffffffffffffffffffffffffffffffffffffff1673ffffffffffffffffffffffffffffffffffffffff168152602001908152602001600020600084815260200190815260200160002054905080600660008773ffffffffffffffffffffffffffffffffffffffff1673ffffffffffffffffffffffffffffffffffffffff168152602001908152602001600020600084815260200190815260200160002081905550816007600083815260200190815260200160002081905550505b6007600084815260200190815260200160002060009055600660008573ffffffffffffffffffffffffffffffffffffffff1673ffffffffffffffffffffffffffffffffffffffff16815260200190815260200160002060008381526020019081526020016000206000905550505050565b600060016008805490506130179190614244565b905060006009600084815260200190815260200160002054905060006008838154811061306d577f4e487b7100000000000000000000000000000000000000000000000000000000600052603260045260246000fd5b9060005260206000200154905080600883815481106130b5577f4e487b7100000000000000000000000000000000000000000000000000000000600052603260045260246000fd5b90600052602060002001819055508160096000838152602001908152602001600020819055506009600085815260200190815260200160002060009055600880548061312a577f4e487b7100000000000000000000000000000000000000000000000000000000600052603160045260246000fd5b6001900381819060005260206000200160009055905550505050565b6000613151836114cd565b905081600660008573ffffffffffffffffffffffffffffffffffffffff1673ffffffffffffffffffffffffffffffffffffffff168152602001908152602001600020600083815260200190815260200160002081905550806007600084815260200190815260200160002081905550505050565b600080823b905060008111915050919050565b60405180608001604052806000815260200160608152602001600015158152602001600081525090565b82805461320e90614358565b90600052602060002090601f0160209004810192826132305760008555613277565b82601f1061324957805160ff1916838001178555613277565b82800160010185558215613277579182015b8281111561327657825182559160200191906001019061325b565b5b5090506132849190613288565b5090565b5b808211156132a1576000816000905550600101613289565b5090565b60006132b86132b384614074565b61404f565b9050828152602081018484840111156132d057600080fd5b6132db8482856142ec565b509392505050565b60006132f66132f1846140a5565b61404f565b90508281526020810184848401111561330e57600080fd5b6133198482856142ec565b509392505050565b60008135905061333081614b86565b92915050565b60008135905061334581614b9d565b92915050565b60008135905061335a81614bb4565b92915050565b60008151905061336f81614bb4565b92915050565b600082601f83011261338657600080fd5b81356133968482602086016132a5565b91505092915050565b600082601f8301126133b057600080fd5b81356133c08482602086016132e3565b91505092915050565b6000813590506133d881614bcb565b92915050565b6000602082840312156133f057600080fd5b60006133fe84828501613321565b91505092915050565b6000806040838503121561341a57600080fd5b600061342885828601613321565b925050602061343985828601613321565b9150509250929050565b60008060006060848603121561345857600080fd5b600061346686828701613321565b935050602061347786828701613321565b9250506040613488868287016133c9565b9150509250925092565b600080600080608085870312156134a857600080fd5b60006134b687828801613321565b94505060206134c787828801613321565b93505060406134d8878288016133c9565b925050606085013567ffffffffffffffff8111156134f557600080fd5b61350187828801613375565b91505092959194509250565b6000806040838503121561352057600080fd5b600061352e85828601613321565b925050602061353f85828601613336565b9150509250929050565b60008060006060848603121561355e57600080fd5b600061356c86828701613321565b935050602084013567ffffffffffffffff81111561358957600080fd5b6135958682870161339f565b92505060406135a6868287016133c9565b9150509250925092565b600080604083850312156135c357600080fd5b60006135d185828601613321565b92505060206135e2858286016133c9565b9150509250929050565b6000602082840312156135fe57600080fd5b600061360c8482850161334b565b91505092915050565b60006020828403121561362757600080fd5b600061363584828501613360565b91505092915050565b60006020828403121561365057600080fd5b600061365e848285016133c9565b91505092915050565b6000806040838503121561367a57600080fd5b6000613688858286016133c9565b9250506020613699858286016133c9565b9150509250929050565b60006136af8383613b7d565b905092915050565b6136c081614278565b82525050565b60006136d1826140e6565b6136db8185614114565b9350836020820285016136ed856140d6565b8060005b85811015613729578484038952815161370a85826136a3565b945061371583614107565b925060208a019950506001810190506136f1565b50829750879550505050505092915050565b6137448161428a565b82525050565b6137538161428a565b82525050565b6000613764826140f1565b61376e8185614125565b935061377e8185602086016142fb565b613787816144f1565b840191505092915050565b600061379d826140fc565b6137a78185614136565b93506137b78185602086016142fb565b6137c0816144f1565b840191505092915050565b60006137d6826140fc565b6137e08185614147565b93506137f08185602086016142fb565b6137f9816144f1565b840191505092915050565b600061380f826140fc565b6138198185614158565b93506138298185602086016142fb565b80840191505092915050565b6000613842602b83614147565b915061384d82614502565b604082019050919050565b6000613865603283614147565b915061387082614551565b604082019050919050565b6000613888601c83614147565b9150613893826145a0565b602082019050919050565b60006138ab602483614147565b91506138b6826145c9565b604082019050919050565b60006138ce601983614147565b91506138d982614618565b602082019050919050565b60006138f1602a83614147565b91506138fc82614641565b604082019050919050565b6000613914602c83614147565b915061391f82614690565b604082019050919050565b6000613937603883614147565b9150613942826146df565b604082019050919050565b600061395a602a83614147565b91506139658261472e565b604082019050919050565b600061397d602983614147565b91506139888261477d565b604082019050919050565b60006139a0602683614147565b91506139ab826147cc565b604082019050919050565b60006139c3602083614147565b91506139ce8261481b565b602082019050919050565b60006139e6602c83614147565b91506139f182614844565b604082019050919050565b6000613a09602683614147565b9150613a1482614893565b604082019050919050565b6000613a2c602983614147565b9150613a37826148e2565b604082019050919050565b6000613a4f602f83614147565b9150613a5a82614931565b604082019050919050565b6000613a72602183614147565b9150613a7d82614980565b604082019050919050565b6000613a95601a83614147565b9150613aa0826149cf565b602082019050919050565b6000613ab8603183614147565b9150613ac3826149f8565b604082019050919050565b6000613adb602c83614147565b9150613ae682614a47565b604082019050919050565b6000613afe601483614147565b9150613b0982614a96565b602082019050919050565b6000613b21601283614147565b9150613b2c82614abf565b602082019050919050565b6000613b44602383614147565b9150613b4f82614ae8565b604082019050919050565b6000613b67602483614147565b9150613b7282614b37565b604082019050919050565b6000608083016000830151613b956000860182613be0565b5060208301518482036020860152613bad8282613792565b9150506040830151613bc2604086018261373b565b506060830151613bd56060860182613be0565b508091505092915050565b613be9816142e2565b82525050565b613bf8816142e2565b82525050565b6000613c0a8285613804565b9150613c168284613804565b91508190509392505050565b6000602082019050613c3760008301846136b7565b92915050565b6000608082019050613c5260008301876136b7565b613c5f60208301866136b7565b613c6c6040830185613bef565b8181036060830152613c7e8184613759565b905095945050505050565b60006020820190508181036000830152613ca381846136c6565b905092915050565b6000602082019050613cc0600083018461374a565b92915050565b60006020820190508181036000830152613ce081846137cb565b905092915050565b60006020820190508181036000830152613d0181613835565b9050919050565b60006020820190508181036000830152613d2181613858565b9050919050565b60006020820190508181036000830152613d418161387b565b9050919050565b60006020820190508181036000830152613d618161389e565b9050919050565b60006020820190508181036000830152613d81816138c1565b9050919050565b60006020820190508181036000830152613da1816138e4565b9050919050565b60006020820190508181036000830152613dc181613907565b9050919050565b60006020820190508181036000830152613de18161392a565b9050919050565b60006020820190508181036000830152613e018161394d565b9050919050565b60006020820190508181036000830152613e2181613970565b9050919050565b60006020820190508181036000830152613e4181613993565b9050919050565b60006020820190508181036000830152613e61816139b6565b9050919050565b60006020820190508181036000830152613e81816139d9565b9050919050565b60006020820190508181036000830152613ea1816139fc565b9050919050565b60006020820190508181036000830152613ec181613a1f565b9050919050565b60006020820190508181036000830152613ee181613a42565b9050919050565b60006020820190508181036000830152613f0181613a65565b9050919050565b60006020820190508181036000830152613f2181613a88565b9050919050565b60006020820190508181036000830152613f4181613aab565b9050919050565b60006020820190508181036000830152613f6181613ace565b9050919050565b60006020820190508181036000830152613f8181613af1565b9050919050565b60006020820190508181036000830152613fa181613b14565b9050919050565b60006020820190508181036000830152613fc181613b37565b9050919050565b60006020820190508181036000830152613fe181613b5a565b9050919050565b6000602082019050613ffd6000830184613bef565b92915050565b60006080820190506140186000830187613bef565b818103602083015261402a81866137cb565b9050614039604083018561374a565b6140466060830184613bef565b95945050505050565b600061405961406a565b9050614065828261438a565b919050565b6000604051905090565b600067ffffffffffffffff82111561408f5761408e6144c2565b5b614098826144f1565b9050602081019050919050565b600067ffffffffffffffff8211156140c0576140bf6144c2565b5b6140c9826144f1565b9050602081019050919050565b6000819050602082019050919050565b600081519050919050565b600081519050919050565b600081519050919050565b6000602082019050919050565b600082825260208201905092915050565b600082825260208201905092915050565b600082825260208201905092915050565b600082825260208201905092915050565b600081905092915050565b600061416e826142e2565b9150614179836142e2565b9250827fffffffffffffffffffffffffffffffffffffffffffffffffffffffffffffffff038211156141ae576141ad614435565b5b828201905092915050565b60006141c4826142e2565b91506141cf836142e2565b9250826141df576141de614464565b5b828204905092915050565b60006141f5826142e2565b9150614200836142e2565b9250817fffffffffffffffffffffffffffffffffffffffffffffffffffffffffffffffff048311821515161561423957614238614435565b5b828202905092915050565b600061424f826142e2565b915061425a836142e2565b92508282101561426d5761426c614435565b5b828203905092915050565b6000614283826142c2565b9050919050565b60008115159050919050565b60007fffffffff0000000000000000000000000000000000000000000000000000000082169050919050565b600073ffffffffffffffffffffffffffffffffffffffff82169050919050565b6000819050919050565b82818337600083830152505050565b60005b838110156143195780820151818401526020810190506142fe565b83811115614328576000848401525b50505050565b6000614339826142e2565b9150600082141561434d5761434c614435565b5b600182039050919050565b6000600282049050600182168061437057607f821691505b6020821081141561438457614383614493565b5b50919050565b614393826144f1565b810181811067ffffffffffffffff821117156143b2576143b16144c2565b5b80604052505050565b60006143c6826142e2565b91507fffffffffffffffffffffffffffffffffffffffffffffffffffffffffffffffff8214156143f9576143f8614435565b5b600182019050919050565b600061440f826142e2565b915061441a836142e2565b92508261442a57614429614464565b5b828206905092915050565b7f4e487b7100000000000000000000000000000000000000000000000000000000600052601160045260246000fd5b7f4e487b7100000000000000000000000000000000000000000000000000000000600052601260045260246000fd5b7f4e487b7100000000000000000000000000000000000000000000000000000000600052602260045260246000fd5b7f4e487b7100000000000000000000000000000000000000000000000000000000600052604160045260246000fd5b6000601f19601f8301169050919050565b7f455243373231456e756d657261626c653a206f776e657220696e646578206f7560008201527f74206f6620626f756e6473000000000000000000000000000000000000000000602082015250565b7f4552433732313a207472616e7366657220746f206e6f6e20455243373231526560008201527f63656976657220696d706c656d656e7465720000000000000000000000000000602082015250565b7f4552433732313a20746f6b656e20616c7265616479206d696e74656400000000600082015250565b7f4552433732313a207472616e7366657220746f20746865207a65726f2061646460008201527f7265737300000000000000000000000000000000000000000000000000000000602082015250565b7f4552433732313a20617070726f766520746f2063616c6c657200000000000000600082015250565b7f456c20746f6b656e2071756520696e74656e746173207472616e73666572697260008201527f206e6f2065786973746500000000000000000000000000000000000000000000602082015250565b7f4552433732313a206f70657261746f7220717565727920666f72206e6f6e657860008201527f697374656e7420746f6b656e0000000000000000000000000000000000000000602082015250565b7f4552433732313a20617070726f76652063616c6c6572206973206e6f74206f7760008201527f6e6572206e6f7220617070726f76656420666f7220616c6c0000000000000000602082015250565b7f4552433732313a2062616c616e636520717565727920666f7220746865207a6560008201527f726f206164647265737300000000000000000000000000000000000000000000602082015250565b7f4552433732313a206f776e657220717565727920666f72206e6f6e657869737460008201527f656e7420746f6b656e0000000000000000000000000000000000000000000000602082015250565b7f736f6c6f20656c206475656e6f2064656c20746f6b656e20707565646520766560008201527f6e6465726c6f0000000000000000000000000000000000000000000000000000602082015250565b7f4552433732313a206d696e7420746f20746865207a65726f2061646472657373600082015250565b7f4552433732313a20617070726f76656420717565727920666f72206e6f6e657860008201527f697374656e7420746f6b656e0000000000000000000000000000000000000000602082015250565b7f456c20746f6b656e2071756520696e74656e746173207175656d6172206e6f2060008201527f6578697374650000000000000000000000000000000000000000000000000000602082015250565b7f4552433732313a207472616e73666572206f6620746f6b656e2074686174206960008201527f73206e6f74206f776e0000000000000000000000000000000000000000000000602082015250565b7f4552433732314d657461646174613a2055524920717565727920666f72206e6f60008201527f6e6578697374656e7420746f6b656e0000000000000000000000000000000000602082015250565b7f4552433732313a20617070726f76616c20746f2063757272656e74206f776e6560008201527f7200000000000000000000000000000000000000000000000000000000000000602082015250565b7f4573746520746f6b656e206e6f2074652070657274656e656365000000000000600082015250565b7f4552433732313a207472616e736665722063616c6c6572206973206e6f74206f60008201527f776e6572206e6f7220617070726f766564000000000000000000000000000000602082015250565b7f455243373231456e756d657261626c653a20676c6f62616c20696e646578206f60008201527f7574206f6620626f756e64730000000000000000000000000000000000000000602082015250565b7f666f6e646f7320696e737566696369656e746573000000000000000000000000600082015250565b7f6e6f20686179206e667473206772617469730000000000000000000000000000600082015250565b7f65736520746f6b656e20746f6461766961206e6f206861207369646f2063726560008201527f61646f0000000000000000000000000000000000000000000000000000000000602082015250565b7f6e6f20736520656e6375656e7472612061206c612076656e746120657365207460008201527f6f6b656e00000000000000000000000000000000000000000000000000000000602082015250565b614b8f81614278565b8114614b9a57600080fd5b50565b614ba68161428a565b8114614bb157600080fd5b50565b614bbd81614296565b8114614bc857600080fd5b50565b614bd4816142e2565b8114614bdf57600080fd5b5056fea2646970667358221220f2a03b9f03123319e5dca024aa207b125172fac1b02bc5d2256519f6daaecbce64736f6c63430008010033",
  "immutableReferences": {},
  "source": "// SPDX-License-Identifier: MIT\r\npragma solidity >=0.4.22 <0.9.0;\r\nimport \"@openzeppelin/contracts/token/ERC721/ERC721.sol\";\r\nimport \"@openzeppelin/contracts/token/ERC721/extensions/ERC721Enumerable.sol\";\r\nimport \"@openzeppelin/contracts/utils/Counters.sol\";\r\n\r\ncontract MarketPlace is ERC721Enumerable {\r\n    using Counters for Counters.Counter;\r\n    //representa un entero que lleva la cuenta de los tokensNFT\r\n    Counters.Counter private _tokenIds;\r\n\r\n    //matenera el dueo del contrato o quien lo mino\r\n    address public minero;\r\n\r\n    //es el numero de tokens en venta\r\n    uint256 public nTokenOnSale;\r\n    // es la representacion de un token\r\n    struct tokenData {\r\n        uint256 price;\r\n        string data;\r\n        bool onSale;\r\n        uint256 tokenID;\r\n    }\r\n\r\n    //contiene todas las representacion de cada token\r\n    mapping(uint256 => tokenData) public tokensData;\r\n\r\n    constructor() ERC721(\"MarketPlace\", \"MPE\") {\r\n        minero = msg.sender;\r\n    }\r\n\r\n    /**\r\n    mina nuevos tokens\r\n\t@param receptor {address} es a quien mandaremos el  token \r\n\t@param datos    {string} es un json con todos los datos del token\r\n\t@param price    {uint256} the price in weis\r\n    @return {uint256} equivale a el tokenid recien creado\r\n\t */\r\n    function minar(\r\n        address receptor,\r\n        string memory datos,\r\n        uint256 price\r\n    ) public returns (uint256) {\r\n        //obtener el tokenid actual\r\n        uint256 newItemId = _tokenIds.current();\r\n\r\n        //aumentar en 1 el conteo de tokens\r\n        _tokenIds.increment();\r\n\r\n        //minar el token\r\n        _mint(receptor, newItemId);\r\n\r\n        //agregar los datos a nuestro mapping\r\n        tokensData[newItemId].data = datos;\r\n        tokensData[newItemId].price = price;\r\n        tokensData[newItemId].onSale = true;\r\n        tokensData[newItemId].tokenID = newItemId;\r\n\r\n        //agregar a la venta el nuevo token\r\n        nTokenOnSale++;\r\n        return newItemId;\r\n    }\r\n\r\n    /**\r\n    * Funcin para transferir un token NFT del propietario a otro address\r\n    @param to {address} representa a quien vamos a transferir nuestro NFT\r\n    @param tokenId {uint256} este valor indica el id que vamos a transferir \r\n    @return {addresss}  esta funcin nos retorna el address del nuevo propietario del NFT\r\n     */\r\n\r\n    function transferirNft(address to, uint256 tokenId)\r\n        public\r\n        returns (address)\r\n    {\r\n        require(_exists(tokenId), \"El token que intentas transferir no existe\");\r\n        require(msg.sender == ownerOf(tokenId), \"Este token no te pertenece\");\r\n\r\n        //transferir el token NFT si el token id existe y es nuestro\r\n        safeTransferFrom(msg.sender, to, tokenId);\r\n        //retornar el nuevo owner del token NFT\r\n        return to;\r\n    }\r\n\r\n    /** \r\n    * Funcin para eliminar un token NFT en tu address\r\n    @param tokenId {uint256} representa el id del token NFT a eliminar\r\n    @return {success} si el proceso fue llevado con exito la funcion retorna un true\r\n     */\r\n    function quemarNft(uint256 tokenId) public returns (bool) {\r\n        require(_exists(tokenId), \"El token que intentas quemar no existe\");\r\n        require(msg.sender == ownerOf(tokenId), \"Este token no te pertenece\");\r\n\r\n        //Eliminamos el token NFT si el token id existe y es nuestro\r\n        _burn(tokenId);\r\n\r\n        return true;\r\n    }\r\n\r\n    /**\r\n     * pone a la venta un token y si le das el precio lo cambia\r\n     *@param tokenid {uint256} representa el identificador del tokenid\r\n     *@param price  {uint256} representa el precio en wei al que se vendera\r\n     *\r\n     */\r\n    function revender(uint256 tokenid, uint256 price) public {\r\n        require(\r\n            ownerOf(tokenid) == msg.sender,\r\n            \"solo el dueno del token puede venderlo\"\r\n        );\r\n        require(price > 0, \"no hay nfts gratis\");\r\n        tokensData[tokenid].onSale = true;\r\n        tokensData[tokenid].price = price;\r\n        nTokenOnSale++;\r\n    }\r\n\r\n    /**\r\n     *cambia el estado del token para que este no pueda ser visualizado o vendido\r\n     *@param tokenid {uint256} tokenid representa el token al cual afectar\r\n     */\r\n    function quitarDelMarketPlace(uint256 tokenid) public {\r\n        //este require solo permite que el owner del tokenid pueda usar la funcion\r\n        require(\r\n            ownerOf(tokenid) == msg.sender,\r\n            \"solo el dueno del token puede venderlo\"\r\n        );\r\n        // impide que accedamos a una posicion inexistente\r\n        require(\r\n            tokenid < _tokenIds.current(),\r\n            \"ese token todavia no ha sido creado\"\r\n        );\r\n        tokensData[tokenid].onSale = false;\r\n        nTokenOnSale--;\r\n    }\r\n\r\n    /**\r\n     *regresa todos los nft disponibles\r\n     *@return tokenData[] contiene todos los tokens disponibles\r\n     */\r\n    function obtenerNfts() public view returns (tokenData[] memory) {\r\n        //es el numero de tokens\r\n        uint256 nTokens = _tokenIds.current();\r\n        //es un arreglo temporal con todos los nfts\r\n        tokenData[] memory onSaleTokensData = new tokenData[](nTokens);\r\n        //sacamos los nft del mapping y los almacenamos en el arreglo\r\n        for (uint256 index = 0; index < nTokens; index++) {\r\n            onSaleTokensData[index] = tokensData[index];\r\n        }\r\n\r\n        return onSaleTokensData;\r\n    }\r\n\r\n    /**\r\n     *trata a tokensData como un arreglo divido entre nTokenP\r\n     * el inicio de una pagina es el numero de pagina por el numero de tokens por pagina\r\n     * @param nTokenP uint256 es el numero de tokens que tiene una pagina\r\n     * @param nPagina contiene que pagina vamos a consultar\r\n     *@return tokenData[] contiene los tokens de una pagina\r\n     */\r\n    function obtenerPaginav1(uint256 nTokenP, uint256 nPagina)\r\n        public\r\n        view\r\n        returns (tokenData[] memory)\r\n    {\r\n        //es el incio del ciclo o el inicio de  la pagina\r\n        uint256 inicioPagina = nPagina * nTokenP;\r\n        //es un arreglo temporal con todos los nfts de la pagina\r\n        tokenData[] memory onSaleTokensData = new tokenData[](nTokenP);\r\n        //sacamos los nft y los almacenamos en el arreglo\r\n        for (\r\n            uint256 index = inicioPagina;\r\n            index < nTokenP * (nPagina + 1);\r\n            index++\r\n        ) {\r\n            //agregar tokens al arreglo\r\n            onSaleTokensData[index - inicioPagina] = tokensData[index];\r\n        }\r\n\r\n        return onSaleTokensData;\r\n    }\r\n\r\n    /**\r\n     *nos regresa los tokens que estan en venta hasta que se llene el arreglo o termine el ciclo\r\n     * espera a llenar el contador hasta que es el incio de la pagina que solicito\r\n     * @param nTokenP uint256 es el numero de tokens que tiene una pagina\r\n     * @param nPagina contiene que pagina vamos a consultar\r\n     *@return tokenData[] contiene los tokens de una pagina\r\n     */\r\n    function obtenerPaginav2(uint256 nTokenP, uint256 nPagina)\r\n        public\r\n        view\r\n        returns (tokenData[] memory)\r\n    {\r\n        //es el numero de tokens\r\n        uint256 nTokens = _tokenIds.current();\r\n        //es la posicion del el ultimo token agregado a onsaletokendata\r\n        uint256 lastToken = 0;\r\n        //cuenta cuantos tokens en venta van\r\n        uint256 ostok = 0;\r\n        //a partir de cuantos tokens comienza\r\n        //es un arreglo temporal con todos los nfts de la pagina\r\n        tokenData[] memory onSaleTokensData = new tokenData[](nTokenP);\r\n        //sacamos los nft y los almacenamos en el arreglo\r\n        for (uint256 index = 0; index < nTokens; index++) {\r\n            //si esta en venta\r\n            if (tokensData[index].onSale) {\r\n                //aumentamos el numero de tokens que estan a la venta\r\n                ostok++;\r\n                //si el numero de tokens es mayor o igual al incio de la pagina comenzamos a agregar tokens al arreglo\r\n                if (ostok >= nTokenP * nPagina) {\r\n                    onSaleTokensData[lastToken] = tokensData[index];\r\n                    lastToken++;\r\n                }\r\n                //si el numero de tokens llega al fin de la pagina cancelamos el for\r\n                if (ostok == nTokenP * (nPagina + 1)) break;\r\n            }\r\n            //agregar tokens al arreglo\r\n        }\r\n\r\n        return onSaleTokensData;\r\n    }\r\n\r\n    /**\r\n     *con esta funcion cualquiera puede comprar el nft que desea\r\n     *@param tokenId {uint256} tokenid representa el tokenid a comprar\r\n     */\r\n    function comprarNft(uint256 tokenId) public payable {\r\n        //este require se asegura que se mando el suficiente ether para comprar el token\r\n        require(msg.value == tokensData[tokenId].price, \"fondos insuficientes\");\r\n        //se impide la venta si no esta en venta el token\r\n        require(\r\n            tokensData[tokenId].onSale,\r\n            \"no se encuentra a la venta ese token\"\r\n        );\r\n        //es el dueo del token\r\n        address payable tokenOwner = payable(ownerOf(tokenId));\r\n\r\n        //mandamos el token al comprador\r\n        _transfer(tokenOwner, msg.sender, tokenId);\r\n\r\n        //le transferimos el dinero al  vendedor\r\n        tokenOwner.transfer(msg.value);\r\n\r\n        //poner el token en pausa\r\n        tokensData[tokenId].onSale = false;\r\n\r\n        nTokenOnSale--;\r\n    }\r\n\r\n    /**\r\n     * @param owner {address}  representa la direccin al cual consultar los tokens\r\n     * @return tokenData[] arreglo con todos los datos de cada token\r\n     */\r\n    function tokensOf(address owner) public view returns (tokenData[] memory) {\r\n        //numero de tokens\r\n        uint256 nTokens = balanceOf(owner);\r\n        if (nTokens == 0) {\r\n            return (new tokenData[](nTokens));\r\n        }\r\n        //arreglo con los tokens\r\n        tokenData[] memory userTokens = new tokenData[](nTokens);\r\n\r\n        for (uint256 i = 0; i < nTokens; i++) {\r\n            //obtener los datos de cada uno de los tokens\r\n            userTokens[i] = tokensData[tokenOfOwnerByIndex(owner, i)];\r\n        }\r\n        return (userTokens);\r\n    }\r\n}\r\n",
  "sourcePath": "C:/Users/yeyei/OneDrive/Documentos/NFT-culturas-latinas/blockchain/contracts/MarketPlace.sol",
  "compiler": {
    "name": "solc",
    "version": "0.8.1+commit.df193b15.Emscripten.clang"
  },
  "schemaVersion": "3.3.3",
  "updatedAt": "2021-07-05T16:18:01.823Z",
  "networkType": "ethereum",
  "devdoc": {
    "kind": "dev",
    "methods": {
      "approve(address,uint256)": {
        "details": "See {IERC721-approve}."
      },
      "balanceOf(address)": {
        "details": "See {IERC721-balanceOf}."
      },
      "comprarNft(uint256)": {
        "params": {
          "tokenId": "{uint256} tokenid representa el tokenid a comprar"
        }
      },
      "getApproved(uint256)": {
        "details": "See {IERC721-getApproved}."
      },
      "isApprovedForAll(address,address)": {
        "details": "See {IERC721-isApprovedForAll}."
      },
      "minar(address,string,uint256)": {
        "params": {
          "datos": "{string} es un json con todos los datos del token",
          "price": "{uint256} the price in weis",
          "receptor": "{address} es a quien mandaremos el  token "
        },
        "returns": {
          "_0": "{uint256} equivale a el tokenid recien creado"
        }
      },
      "name()": {
        "details": "See {IERC721Metadata-name}."
      },
      "obtenerNfts()": {
        "returns": {
          "_0": "tokenData[] contiene todos los tokens disponibles"
        }
      },
      "obtenerPaginav1(uint256,uint256)": {
        "params": {
          "nPagina": "contiene que pagina vamos a consultar",
          "nTokenP": "uint256 es el numero de tokens que tiene una pagina"
        },
        "returns": {
          "_0": "tokenData[] contiene los tokens de una pagina"
        }
      },
      "obtenerPaginav2(uint256,uint256)": {
        "params": {
          "nPagina": "contiene que pagina vamos a consultar",
          "nTokenP": "uint256 es el numero de tokens que tiene una pagina"
        },
        "returns": {
          "_0": "tokenData[] contiene los tokens de una pagina"
        }
      },
      "ownerOf(uint256)": {
        "details": "See {IERC721-ownerOf}."
      },
      "quemarNft(uint256)": {
        "params": {
          "tokenId": "{uint256} representa el id del token NFT a eliminar"
        },
        "returns": {
          "_0": "{success} si el proceso fue llevado con exito la funcion retorna un true"
        }
      },
      "quitarDelMarketPlace(uint256)": {
        "params": {
          "tokenid": "{uint256} tokenid representa el token al cual afectar"
        }
      },
      "revender(uint256,uint256)": {
        "params": {
          "price": "{uint256} representa el precio en wei al que se vendera",
          "tokenid": "{uint256} representa el identificador del tokenid"
        }
      },
      "safeTransferFrom(address,address,uint256)": {
        "details": "See {IERC721-safeTransferFrom}."
      },
      "safeTransferFrom(address,address,uint256,bytes)": {
        "details": "See {IERC721-safeTransferFrom}."
      },
      "setApprovalForAll(address,bool)": {
        "details": "See {IERC721-setApprovalForAll}."
      },
      "supportsInterface(bytes4)": {
        "details": "See {IERC165-supportsInterface}."
      },
      "symbol()": {
        "details": "See {IERC721Metadata-symbol}."
      },
      "tokenByIndex(uint256)": {
        "details": "See {IERC721Enumerable-tokenByIndex}."
      },
      "tokenOfOwnerByIndex(address,uint256)": {
        "details": "See {IERC721Enumerable-tokenOfOwnerByIndex}."
      },
      "tokenURI(uint256)": {
        "details": "See {IERC721Metadata-tokenURI}."
      },
      "tokensOf(address)": {
        "params": {
          "owner": "{address}  representa la direccin al cual consultar los tokens"
        },
        "returns": {
          "_0": "tokenData[] arreglo con todos los datos de cada token"
        }
      },
      "totalSupply()": {
        "details": "See {IERC721Enumerable-totalSupply}."
      },
      "transferFrom(address,address,uint256)": {
        "details": "See {IERC721-transferFrom}."
      },
      "transferirNft(address,uint256)": {
        "params": {
          "to": "{address} representa a quien vamos a transferir nuestro NFT",
          "tokenId": "{uint256} este valor indica el id que vamos a transferir "
        },
        "returns": {
          "_0": "{addresss}  esta funcin nos retorna el address del nuevo propietario del NFT"
        }
      }
    },
    "version": 1
  },
  "userdoc": {
    "kind": "user",
    "methods": {
      "comprarNft(uint256)": {
        "notice": "con esta funcion cualquiera puede comprar el nft que desea"
      },
      "minar(address,string,uint256)": {
        "notice": "mina nuevos tokens"
      },
      "obtenerNfts()": {
        "notice": "regresa todos los nft disponibles"
      },
      "obtenerPaginav1(uint256,uint256)": {
        "notice": "trata a tokensData como un arreglo divido entre nTokenP el inicio de una pagina es el numero de pagina por el numero de tokens por pagina"
      },
      "obtenerPaginav2(uint256,uint256)": {
        "notice": "nos regresa los tokens que estan en venta hasta que se llene el arreglo o termine el ciclo espera a llenar el contador hasta que es el incio de la pagina que solicito"
      },
      "quemarNft(uint256)": {
        "notice": "Funcin para eliminar un token NFT en tu address"
      },
      "quitarDelMarketPlace(uint256)": {
        "notice": "cambia el estado del token para que este no pueda ser visualizado o vendido"
      },
      "revender(uint256,uint256)": {
        "notice": "pone a la venta un token y si le das el precio lo cambia"
      },
      "transferirNft(address,uint256)": {
        "notice": "Funcin para transferir un token NFT del propietario a otro address"
      }
    },
    "version": 1
  }
}