{
  "contractName": "MarketPlace",
  "abi": [
    {
      "inputs": [],
      "stateMutability": "nonpayable",
      "type": "constructor"
    },
    {
      "anonymous": false,
      "inputs": [
        {
          "indexed": true,
          "internalType": "address",
          "name": "owner",
          "type": "address"
        },
        {
          "indexed": true,
          "internalType": "address",
          "name": "approved",
          "type": "address"
        },
        {
          "indexed": true,
          "internalType": "uint256",
          "name": "tokenId",
          "type": "uint256"
        }
      ],
      "name": "Approval",
      "type": "event"
    },
    {
      "anonymous": false,
      "inputs": [
        {
          "indexed": true,
          "internalType": "address",
          "name": "owner",
          "type": "address"
        },
        {
          "indexed": true,
          "internalType": "address",
          "name": "operator",
          "type": "address"
        },
        {
          "indexed": false,
          "internalType": "bool",
          "name": "approved",
          "type": "bool"
        }
      ],
      "name": "ApprovalForAll",
      "type": "event"
    },
    {
      "anonymous": false,
      "inputs": [
        {
          "indexed": true,
          "internalType": "address",
          "name": "from",
          "type": "address"
        },
        {
          "indexed": true,
          "internalType": "address",
          "name": "to",
          "type": "address"
        },
        {
          "indexed": true,
          "internalType": "uint256",
          "name": "tokenId",
          "type": "uint256"
        }
      ],
      "name": "Transfer",
      "type": "event"
    },
    {
      "inputs": [
        {
          "internalType": "address",
          "name": "to",
          "type": "address"
        },
        {
          "internalType": "uint256",
          "name": "tokenId",
          "type": "uint256"
        }
      ],
      "name": "approve",
      "outputs": [],
      "stateMutability": "nonpayable",
      "type": "function"
    },
    {
      "inputs": [
        {
          "internalType": "address",
          "name": "owner",
          "type": "address"
        }
      ],
      "name": "balanceOf",
      "outputs": [
        {
          "internalType": "uint256",
          "name": "",
          "type": "uint256"
        }
      ],
      "stateMutability": "view",
      "type": "function",
      "constant": true
    },
    {
      "inputs": [
        {
          "internalType": "uint256",
          "name": "tokenId",
          "type": "uint256"
        }
      ],
      "name": "getApproved",
      "outputs": [
        {
          "internalType": "address",
          "name": "",
          "type": "address"
        }
      ],
      "stateMutability": "view",
      "type": "function",
      "constant": true
    },
    {
      "inputs": [
        {
          "internalType": "address",
          "name": "owner",
          "type": "address"
        },
        {
          "internalType": "address",
          "name": "operator",
          "type": "address"
        }
      ],
      "name": "isApprovedForAll",
      "outputs": [
        {
          "internalType": "bool",
          "name": "",
          "type": "bool"
        }
      ],
      "stateMutability": "view",
      "type": "function",
      "constant": true
    },
    {
      "inputs": [],
      "name": "minero",
      "outputs": [
        {
          "internalType": "address",
          "name": "",
          "type": "address"
        }
      ],
      "stateMutability": "view",
      "type": "function",
      "constant": true
    },
    {
      "inputs": [],
      "name": "name",
      "outputs": [
        {
          "internalType": "string",
          "name": "",
          "type": "string"
        }
      ],
      "stateMutability": "view",
      "type": "function",
      "constant": true
    },
    {
      "inputs": [
        {
          "internalType": "uint256",
          "name": "tokenId",
          "type": "uint256"
        }
      ],
      "name": "ownerOf",
      "outputs": [
        {
          "internalType": "address",
          "name": "",
          "type": "address"
        }
      ],
      "stateMutability": "view",
      "type": "function",
      "constant": true
    },
    {
      "inputs": [
        {
          "internalType": "address",
          "name": "from",
          "type": "address"
        },
        {
          "internalType": "address",
          "name": "to",
          "type": "address"
        },
        {
          "internalType": "uint256",
          "name": "tokenId",
          "type": "uint256"
        }
      ],
      "name": "safeTransferFrom",
      "outputs": [],
      "stateMutability": "nonpayable",
      "type": "function"
    },
    {
      "inputs": [
        {
          "internalType": "address",
          "name": "from",
          "type": "address"
        },
        {
          "internalType": "address",
          "name": "to",
          "type": "address"
        },
        {
          "internalType": "uint256",
          "name": "tokenId",
          "type": "uint256"
        },
        {
          "internalType": "bytes",
          "name": "_data",
          "type": "bytes"
        }
      ],
      "name": "safeTransferFrom",
      "outputs": [],
      "stateMutability": "nonpayable",
      "type": "function"
    },
    {
      "inputs": [
        {
          "internalType": "address",
          "name": "operator",
          "type": "address"
        },
        {
          "internalType": "bool",
          "name": "approved",
          "type": "bool"
        }
      ],
      "name": "setApprovalForAll",
      "outputs": [],
      "stateMutability": "nonpayable",
      "type": "function"
    },
    {
      "inputs": [
        {
          "internalType": "bytes4",
          "name": "interfaceId",
          "type": "bytes4"
        }
      ],
      "name": "supportsInterface",
      "outputs": [
        {
          "internalType": "bool",
          "name": "",
          "type": "bool"
        }
      ],
      "stateMutability": "view",
      "type": "function",
      "constant": true
    },
    {
      "inputs": [],
      "name": "symbol",
      "outputs": [
        {
          "internalType": "string",
          "name": "",
          "type": "string"
        }
      ],
      "stateMutability": "view",
      "type": "function",
      "constant": true
    },
    {
      "inputs": [
        {
          "internalType": "uint256",
          "name": "index",
          "type": "uint256"
        }
      ],
      "name": "tokenByIndex",
      "outputs": [
        {
          "internalType": "uint256",
          "name": "",
          "type": "uint256"
        }
      ],
      "stateMutability": "view",
      "type": "function",
      "constant": true
    },
    {
      "inputs": [
        {
          "internalType": "address",
          "name": "owner",
          "type": "address"
        },
        {
          "internalType": "uint256",
          "name": "index",
          "type": "uint256"
        }
      ],
      "name": "tokenOfOwnerByIndex",
      "outputs": [
        {
          "internalType": "uint256",
          "name": "",
          "type": "uint256"
        }
      ],
      "stateMutability": "view",
      "type": "function",
      "constant": true
    },
    {
      "inputs": [
        {
          "internalType": "uint256",
          "name": "tokenId",
          "type": "uint256"
        }
      ],
      "name": "tokenURI",
      "outputs": [
        {
          "internalType": "string",
          "name": "",
          "type": "string"
        }
      ],
      "stateMutability": "view",
      "type": "function",
      "constant": true
    },
    {
      "inputs": [
        {
          "internalType": "uint256",
          "name": "",
          "type": "uint256"
        }
      ],
      "name": "tokensData",
      "outputs": [
        {
          "internalType": "uint256",
          "name": "price",
          "type": "uint256"
        },
        {
          "internalType": "string",
          "name": "data",
          "type": "string"
        },
        {
          "internalType": "bool",
          "name": "onSale",
          "type": "bool"
        },
        {
          "internalType": "uint256",
          "name": "tokenID",
          "type": "uint256"
        }
      ],
      "stateMutability": "view",
      "type": "function",
      "constant": true
    },
    {
      "inputs": [],
      "name": "totalSupply",
      "outputs": [
        {
          "internalType": "uint256",
          "name": "",
          "type": "uint256"
        }
      ],
      "stateMutability": "view",
      "type": "function",
      "constant": true
    },
    {
      "inputs": [
        {
          "internalType": "address",
          "name": "from",
          "type": "address"
        },
        {
          "internalType": "address",
          "name": "to",
          "type": "address"
        },
        {
          "internalType": "uint256",
          "name": "tokenId",
          "type": "uint256"
        }
      ],
      "name": "transferFrom",
      "outputs": [],
      "stateMutability": "nonpayable",
      "type": "function"
    },
    {
      "inputs": [
        {
          "internalType": "address",
          "name": "receptor",
          "type": "address"
        },
        {
          "internalType": "string",
          "name": "datos",
          "type": "string"
        },
        {
          "internalType": "uint256",
          "name": "price",
          "type": "uint256"
        }
      ],
      "name": "minar",
      "outputs": [
        {
          "internalType": "uint256",
          "name": "",
          "type": "uint256"
        }
      ],
      "stateMutability": "nonpayable",
      "type": "function"
    },
    {
      "inputs": [
        {
          "internalType": "address",
          "name": "to",
          "type": "address"
        },
        {
          "internalType": "uint256",
          "name": "tokenId",
          "type": "uint256"
        }
      ],
      "name": "transferirNft",
      "outputs": [
        {
          "internalType": "address",
          "name": "",
          "type": "address"
        }
      ],
      "stateMutability": "nonpayable",
      "type": "function"
    },
    {
      "inputs": [
        {
          "internalType": "uint256",
          "name": "tokenId",
          "type": "uint256"
        }
      ],
      "name": "quemarNft",
      "outputs": [
        {
          "internalType": "bool",
          "name": "",
          "type": "bool"
        }
      ],
      "stateMutability": "nonpayable",
      "type": "function"
    },
    {
      "inputs": [
        {
          "internalType": "uint256",
          "name": "tokenid",
          "type": "uint256"
        },
        {
          "internalType": "uint256",
          "name": "price",
          "type": "uint256"
        }
      ],
      "name": "revender",
      "outputs": [],
      "stateMutability": "nonpayable",
      "type": "function"
    },
    {
      "inputs": [
        {
          "internalType": "uint256",
          "name": "tokenid",
          "type": "uint256"
        }
      ],
      "name": "quitarDelMarketPlace",
      "outputs": [],
      "stateMutability": "nonpayable",
      "type": "function"
    },
    {
      "inputs": [],
      "name": "obtenerNfts",
      "outputs": [
        {
          "components": [
            {
              "internalType": "uint256",
              "name": "price",
              "type": "uint256"
            },
            {
              "internalType": "string",
              "name": "data",
              "type": "string"
            },
            {
              "internalType": "bool",
              "name": "onSale",
              "type": "bool"
            },
            {
              "internalType": "uint256",
              "name": "tokenID",
              "type": "uint256"
            }
          ],
          "internalType": "struct MarketPlace.tokenData[]",
          "name": "",
          "type": "tuple[]"
        }
      ],
      "stateMutability": "view",
      "type": "function",
      "constant": true
    },
    {
      "inputs": [
        {
          "internalType": "uint256",
          "name": "tokenId",
          "type": "uint256"
        }
      ],
      "name": "comprarNft",
      "outputs": [],
      "stateMutability": "payable",
      "type": "function",
      "payable": true
    },
    {
      "inputs": [
        {
          "internalType": "address",
          "name": "owner",
          "type": "address"
        }
      ],
      "name": "tokensOf",
      "outputs": [
        {
          "components": [
            {
              "internalType": "uint256",
              "name": "price",
              "type": "uint256"
            },
            {
              "internalType": "string",
              "name": "data",
              "type": "string"
            },
            {
              "internalType": "bool",
              "name": "onSale",
              "type": "bool"
            },
            {
              "internalType": "uint256",
              "name": "tokenID",
              "type": "uint256"
            }
          ],
          "internalType": "struct MarketPlace.tokenData[]",
          "name": "",
          "type": "tuple[]"
        }
      ],
      "stateMutability": "view",
      "type": "function",
      "constant": true
    }
  ],
  "bytecode": "0x60806040523480156200001157600080fd5b506040518060400160405280600b81526020017f4d61726b6574506c6163650000000000000000000000000000000000000000008152506040518060400160405280600381526020017f4d50450000000000000000000000000000000000000000000000000000000000815250816000908051906020019062000096929190620000f9565b508060019080519060200190620000af929190620000f9565b50505033600b60006101000a81548173ffffffffffffffffffffffffffffffffffffffff021916908373ffffffffffffffffffffffffffffffffffffffff1602179055506200020e565b8280546200010790620001a9565b90600052602060002090601f0160209004810192826200012b576000855562000177565b82601f106200014657805160ff191683800117855562000177565b8280016001018555821562000177579182015b828111156200017657825182559160200191906001019062000159565b5b5090506200018691906200018a565b5090565b5b80821115620001a55760008160009055506001016200018b565b5090565b60006002820490506001821680620001c257607f821691505b60208210811415620001d957620001d8620001df565b5b50919050565b7f4e487b7100000000000000000000000000000000000000000000000000000000600052602260045260246000fd5b614543806200021e6000396000f3fe6080604052600436106101815760003560e01c8063599ed3ff116100d1578063a22cb4651161008a578063c87b56dd11610064578063c87b56dd146105e1578063e7a82a011461061e578063e985e9c51461065b578063edfd03bd1461069857610181565b8063a22cb46514610564578063b2d8adc81461058d578063b88d4fde146105b857610181565b8063599ed3ff146104055780635a3f2672146104455780636352211e1461048257806370a08231146104bf57806395d89b41146104fc5780639c62a52a1461052757610181565b806323b872dd1161013e57806342842e0e1161011857806342842e0e146103375780634f6ccce7146103605780635551ef611461039d57806356ce03f1146103c857610181565b806323b872dd146102a85780632f745c59146102d1578063390b91511461030e57610181565b806301ffc9a71461018657806306fdde03146101c3578063081812fc146101ee578063095ea7b31461022b57806318160ddd146102545780631d3923ed1461027f575b600080fd5b34801561019257600080fd5b506101ad60048036038101906101a89190613007565b6106b4565b6040516101ba91906136a3565b60405180910390f35b3480156101cf57600080fd5b506101d861072e565b6040516101e591906136be565b60405180910390f35b3480156101fa57600080fd5b5061021560048036038101906102109190613059565b6107c0565b604051610222919061361a565b60405180910390f35b34801561023757600080fd5b50610252600480360381019061024d9190612fcb565b610845565b005b34801561026057600080fd5b5061026961095d565b60405161027691906139c0565b60405180910390f35b34801561028b57600080fd5b506102a660048036038101906102a19190613059565b61096a565b005b3480156102b457600080fd5b506102cf60048036038101906102ca9190612e5e565b610a5d565b005b3480156102dd57600080fd5b506102f860048036038101906102f39190612fcb565b610abd565b60405161030591906139c0565b60405180910390f35b34801561031a57600080fd5b5061033560048036038101906103309190613082565b610b62565b005b34801561034357600080fd5b5061035e60048036038101906103599190612e5e565b610c2f565b005b34801561036c57600080fd5b5061038760048036038101906103829190613059565b610c4f565b60405161039491906139c0565b60405180910390f35b3480156103a957600080fd5b506103b2610ce6565b6040516103bf9190613681565b60405180910390f35b3480156103d457600080fd5b506103ef60048036038101906103ea9190612fcb565b610ebe565b6040516103fc919061361a565b60405180910390f35b34801561041157600080fd5b5061042c60048036038101906104279190613059565b610f92565b60405161043c94939291906139db565b60405180910390f35b34801561045157600080fd5b5061046c60048036038101906104679190612df9565b611057565b6040516104799190613681565b60405180910390f35b34801561048e57600080fd5b506104a960048036038101906104a49190613059565b6112c5565b6040516104b6919061361a565b60405180910390f35b3480156104cb57600080fd5b506104e660048036038101906104e19190612df9565b611377565b6040516104f391906139c0565b60405180910390f35b34801561050857600080fd5b5061051161142f565b60405161051e91906136be565b60405180910390f35b34801561053357600080fd5b5061054e60048036038101906105499190612f64565b6114c1565b60405161055b91906139c0565b60405180910390f35b34801561057057600080fd5b5061058b60048036038101906105869190612f28565b61157f565b005b34801561059957600080fd5b506105a2611700565b6040516105af919061361a565b60405180910390f35b3480156105c457600080fd5b506105df60048036038101906105da9190612ead565b611726565b005b3480156105ed57600080fd5b5061060860048036038101906106039190613059565b611788565b60405161061591906136be565b60405180910390f35b34801561062a57600080fd5b5061064560048036038101906106409190613059565b61182f565b60405161065291906136a3565b60405180910390f35b34801561066757600080fd5b50610682600480360381019061067d9190612e22565b611901565b60405161068f91906136a3565b60405180910390f35b6106b260048036038101906106ad9190613059565b611995565b005b60007f780e9d63000000000000000000000000000000000000000000000000000000007bffffffffffffffffffffffffffffffffffffffffffffffffffffffff1916827bffffffffffffffffffffffffffffffffffffffffffffffffffffffff19161480610727575061072682611ae2565b5b9050919050565b60606000805461073d90613cac565b80601f016020809104026020016040519081016040528092919081815260200182805461076990613cac565b80156107b65780601f1061078b576101008083540402835291602001916107b6565b820191906000526020600020905b81548152906001019060200180831161079957829003601f168201915b5050505050905090565b60006107cb82611bc4565b61080a576040517f08c379a000000000000000000000000000000000000000000000000000000000815260040161080190613860565b60405180910390fd5b6004600083815260200190815260200160002060009054906101000a900473ffffffffffffffffffffffffffffffffffffffff169050919050565b6000610850826112c5565b90508073ffffffffffffffffffffffffffffffffffffffff168373ffffffffffffffffffffffffffffffffffffffff1614156108c1576040517f08c379a00000000000000000000000000000000000000000000000000000000081526004016108b8906138e0565b60405180910390fd5b8073ffffffffffffffffffffffffffffffffffffffff166108e0611c30565b73ffffffffffffffffffffffffffffffffffffffff16148061090f575061090e81610909611c30565b611901565b5b61094e576040517f08c379a0000000000000000000000000000000000000000000000000000000008152600401610945906137c0565b60405180910390fd5b6109588383611c38565b505050565b6000600880549050905090565b3373ffffffffffffffffffffffffffffffffffffffff1661098a826112c5565b73ffffffffffffffffffffffffffffffffffffffff16146109e0576040517f08c379a00000000000000000000000000000000000000000000000000000000081526004016109d790613820565b60405180910390fd5b6109ea600a611cf1565b8110610a2b576040517f08c379a0000000000000000000000000000000000000000000000000000000008152600401610a2290613980565b60405180910390fd5b6000600c600083815260200190815260200160002060020160006101000a81548160ff02191690831515021790555050565b610a6e610a68611c30565b82611cff565b610aad576040517f08c379a0000000000000000000000000000000000000000000000000000000008152600401610aa490613920565b60405180910390fd5b610ab8838383611ddd565b505050565b6000610ac883611377565b8210610b09576040517f08c379a0000000000000000000000000000000000000000000000000000000008152600401610b00906136e0565b60405180910390fd5b600660008473ffffffffffffffffffffffffffffffffffffffff1673ffffffffffffffffffffffffffffffffffffffff168152602001908152602001600020600083815260200190815260200160002054905092915050565b3373ffffffffffffffffffffffffffffffffffffffff16610b82836112c5565b73ffffffffffffffffffffffffffffffffffffffff1614610bd8576040517f08c379a0000000000000000000000000000000000000000000000000000000008152600401610bcf90613820565b60405180910390fd5b6001600c600084815260200190815260200160002060020160006101000a81548160ff02191690831515021790555060008114610c2b5780600c6000848152602001908152602001600020600001819055505b5050565b610c4a83838360405180602001604052806000815250611726565b505050565b6000610c5961095d565b8210610c9a576040517f08c379a0000000000000000000000000000000000000000000000000000000008152600401610c9190613940565b60405180910390fd5b60088281548110610cd4577f4e487b7100000000000000000000000000000000000000000000000000000000600052603260045260246000fd5b90600052602060002001549050919050565b60606000610cf4600a611cf1565b905060008167ffffffffffffffff811115610d38577f4e487b7100000000000000000000000000000000000000000000000000000000600052604160045260246000fd5b604051908082528060200260200182016040528015610d7157816020015b610d5e612bf3565b815260200190600190039081610d565790505b50905060005b82811015610eb557600c600082815260200190815260200160002060405180608001604052908160008201548152602001600182018054610db790613cac565b80601f0160208091040260200160405190810160405280929190818152602001828054610de390613cac565b8015610e305780601f10610e0557610100808354040283529160200191610e30565b820191906000526020600020905b815481529060010190602001808311610e1357829003601f168201915b505050505081526020016002820160009054906101000a900460ff16151515158152602001600382015481525050828281518110610e97577f4e487b7100000000000000000000000000000000000000000000000000000000600052603260045260246000fd5b60200260200101819052508080610ead90613d0f565b915050610d77565b50809250505090565b6000610ec982611bc4565b610f08576040517f08c379a0000000000000000000000000000000000000000000000000000000008152600401610eff90613780565b60405180910390fd5b610f11826112c5565b73ffffffffffffffffffffffffffffffffffffffff163373ffffffffffffffffffffffffffffffffffffffff1614610f7e576040517f08c379a0000000000000000000000000000000000000000000000000000000008152600401610f7590613900565b60405180910390fd5b610f89338484610c2f565b82905092915050565b600c602052806000526040600020600091509050806000015490806001018054610fbb90613cac565b80601f0160208091040260200160405190810160405280929190818152602001828054610fe790613cac565b80156110345780601f1061100957610100808354040283529160200191611034565b820191906000526020600020905b81548152906001019060200180831161101757829003601f168201915b5050505050908060020160009054906101000a900460ff16908060030154905084565b6060600061106483611377565b905060008114156110f1578067ffffffffffffffff8111156110af577f4e487b7100000000000000000000000000000000000000000000000000000000600052604160045260246000fd5b6040519080825280602002602001820160405280156110e857816020015b6110d5612bf3565b8152602001906001900390816110cd5790505b509150506112c0565b60008167ffffffffffffffff811115611133577f4e487b7100000000000000000000000000000000000000000000000000000000600052604160045260246000fd5b60405190808252806020026020018201604052801561116c57816020015b611159612bf3565b8152602001906001900390816111515790505b50905060005b828110156112b957600c60006111888784610abd565b8152602001908152602001600020604051806080016040529081600082015481526020016001820180546111bb90613cac565b80601f01602080910402602001604051908101604052809291908181526020018280546111e790613cac565b80156112345780601f1061120957610100808354040283529160200191611234565b820191906000526020600020905b81548152906001019060200180831161121757829003601f168201915b505050505081526020016002820160009054906101000a900460ff1615151515815260200160038201548152505082828151811061129b577f4e487b7100000000000000000000000000000000000000000000000000000000600052603260045260246000fd5b602002602001018190525080806112b190613d0f565b915050611172565b5080925050505b919050565b6000806002600084815260200190815260200160002060009054906101000a900473ffffffffffffffffffffffffffffffffffffffff169050600073ffffffffffffffffffffffffffffffffffffffff168173ffffffffffffffffffffffffffffffffffffffff16141561136e576040517f08c379a000000000000000000000000000000000000000000000000000000000815260040161136590613800565b60405180910390fd5b80915050919050565b60008073ffffffffffffffffffffffffffffffffffffffff168273ffffffffffffffffffffffffffffffffffffffff1614156113e8576040517f08c379a00000000000000000000000000000000000000000000000000000000081526004016113df906137e0565b60405180910390fd5b600360008373ffffffffffffffffffffffffffffffffffffffff1673ffffffffffffffffffffffffffffffffffffffff168152602001908152602001600020549050919050565b60606001805461143e90613cac565b80601f016020809104026020016040519081016040528092919081815260200182805461146a90613cac565b80156114b75780601f1061148c576101008083540402835291602001916114b7565b820191906000526020600020905b81548152906001019060200180831161149a57829003601f168201915b5050505050905090565b6000806114ce600a611cf1565b90506114da600a612039565b6114e4858261204f565b83600c6000838152602001908152602001600020600101908051906020019061150e929190612c1d565b5082600c6000838152602001908152602001600020600001819055506001600c600083815260200190815260200160002060020160006101000a81548160ff02191690831515021790555080600c600083815260200190815260200160002060030181905550809150509392505050565b611587611c30565b73ffffffffffffffffffffffffffffffffffffffff168273ffffffffffffffffffffffffffffffffffffffff1614156115f5576040517f08c379a00000000000000000000000000000000000000000000000000000000081526004016115ec90613760565b60405180910390fd5b8060056000611602611c30565b73ffffffffffffffffffffffffffffffffffffffff1673ffffffffffffffffffffffffffffffffffffffff16815260200190815260200160002060008473ffffffffffffffffffffffffffffffffffffffff1673ffffffffffffffffffffffffffffffffffffffff16815260200190815260200160002060006101000a81548160ff0219169083151502179055508173ffffffffffffffffffffffffffffffffffffffff166116af611c30565b73ffffffffffffffffffffffffffffffffffffffff167f17307eab39ab6107e8899845ad3d59bd9653f200f220920489ca2b5937696c31836040516116f491906136a3565b60405180910390a35050565b600b60009054906101000a900473ffffffffffffffffffffffffffffffffffffffff1681565b611737611731611c30565b83611cff565b611776576040517f08c379a000000000000000000000000000000000000000000000000000000000815260040161176d90613920565b60405180910390fd5b6117828484848461221d565b50505050565b606061179382611bc4565b6117d2576040517f08c379a00000000000000000000000000000000000000000000000000000000081526004016117c9906138c0565b60405180910390fd5b60006117dc612279565b905060008151116117fc5760405180602001604052806000815250611827565b8061180684612290565b6040516020016118179291906135f6565b6040516020818303038152906040525b915050919050565b600061183a82611bc4565b611879576040517f08c379a000000000000000000000000000000000000000000000000000000000815260040161187090613880565b60405180910390fd5b611882826112c5565b73ffffffffffffffffffffffffffffffffffffffff163373ffffffffffffffffffffffffffffffffffffffff16146118ef576040517f08c379a00000000000000000000000000000000000000000000000000000000081526004016118e690613900565b60405180910390fd5b6118f88261243d565b60019050919050565b6000600560008473ffffffffffffffffffffffffffffffffffffffff1673ffffffffffffffffffffffffffffffffffffffff16815260200190815260200160002060008373ffffffffffffffffffffffffffffffffffffffff1673ffffffffffffffffffffffffffffffffffffffff16815260200190815260200160002060009054906101000a900460ff16905092915050565b600c60008281526020019081526020016000206000015434146119ed576040517f08c379a00000000000000000000000000000000000000000000000000000000081526004016119e490613960565b60405180910390fd5b600c600082815260200190815260200160002060020160009054906101000a900460ff16611a50576040517f08c379a0000000000000000000000000000000000000000000000000000000008152600401611a47906139a0565b60405180910390fd5b6000611a5b826112c5565b9050611a68813384611ddd565b8073ffffffffffffffffffffffffffffffffffffffff166108fc349081150290604051600060405180830381858888f19350505050158015611aae573d6000803e3d6000fd5b506000600c600084815260200190815260200160002060020160006101000a81548160ff0219169083151502179055505050565b60007f80ac58cd000000000000000000000000000000000000000000000000000000007bffffffffffffffffffffffffffffffffffffffffffffffffffffffff1916827bffffffffffffffffffffffffffffffffffffffffffffffffffffffff19161480611bad57507f5b5e139f000000000000000000000000000000000000000000000000000000007bffffffffffffffffffffffffffffffffffffffffffffffffffffffff1916827bffffffffffffffffffffffffffffffffffffffffffffffffffffffff1916145b80611bbd5750611bbc8261254e565b5b9050919050565b60008073ffffffffffffffffffffffffffffffffffffffff166002600084815260200190815260200160002060009054906101000a900473ffffffffffffffffffffffffffffffffffffffff1673ffffffffffffffffffffffffffffffffffffffff1614159050919050565b600033905090565b816004600083815260200190815260200160002060006101000a81548173ffffffffffffffffffffffffffffffffffffffff021916908373ffffffffffffffffffffffffffffffffffffffff160217905550808273ffffffffffffffffffffffffffffffffffffffff16611cab836112c5565b73ffffffffffffffffffffffffffffffffffffffff167f8c5be1e5ebec7d5bd14f71427d1e84f3dd0314c0f7b2291e5b200ac8c7c3b92560405160405180910390a45050565b600081600001549050919050565b6000611d0a82611bc4565b611d49576040517f08c379a0000000000000000000000000000000000000000000000000000000008152600401611d40906137a0565b60405180910390fd5b6000611d54836112c5565b90508073ffffffffffffffffffffffffffffffffffffffff168473ffffffffffffffffffffffffffffffffffffffff161480611dc357508373ffffffffffffffffffffffffffffffffffffffff16611dab846107c0565b73ffffffffffffffffffffffffffffffffffffffff16145b80611dd45750611dd38185611901565b5b91505092915050565b8273ffffffffffffffffffffffffffffffffffffffff16611dfd826112c5565b73ffffffffffffffffffffffffffffffffffffffff1614611e53576040517f08c379a0000000000000000000000000000000000000000000000000000000008152600401611e4a906138a0565b60405180910390fd5b600073ffffffffffffffffffffffffffffffffffffffff168273ffffffffffffffffffffffffffffffffffffffff161415611ec3576040517f08c379a0000000000000000000000000000000000000000000000000000000008152600401611eba90613740565b60405180910390fd5b611ece8383836125b8565b611ed9600082611c38565b6001600360008573ffffffffffffffffffffffffffffffffffffffff1673ffffffffffffffffffffffffffffffffffffffff1681526020019081526020016000206000828254611f299190613bc2565b925050819055506001600360008473ffffffffffffffffffffffffffffffffffffffff1673ffffffffffffffffffffffffffffffffffffffff1681526020019081526020016000206000828254611f809190613b3b565b92505081905550816002600083815260200190815260200160002060006101000a81548173ffffffffffffffffffffffffffffffffffffffff021916908373ffffffffffffffffffffffffffffffffffffffff160217905550808273ffffffffffffffffffffffffffffffffffffffff168473ffffffffffffffffffffffffffffffffffffffff167fddf252ad1be2c89b69c2b068fc378daa952ba7f163c4a11628f55a4df523b3ef60405160405180910390a4505050565b6001816000016000828254019250508190555050565b600073ffffffffffffffffffffffffffffffffffffffff168273ffffffffffffffffffffffffffffffffffffffff1614156120bf576040517f08c379a00000000000000000000000000000000000000000000000000000000081526004016120b690613840565b60405180910390fd5b6120c881611bc4565b15612108576040517f08c379a00000000000000000000000000000000000000000000000000000000081526004016120ff90613720565b60405180910390fd5b612114600083836125b8565b6001600360008473ffffffffffffffffffffffffffffffffffffffff1673ffffffffffffffffffffffffffffffffffffffff16815260200190815260200160002060008282546121649190613b3b565b92505081905550816002600083815260200190815260200160002060006101000a81548173ffffffffffffffffffffffffffffffffffffffff021916908373ffffffffffffffffffffffffffffffffffffffff160217905550808273ffffffffffffffffffffffffffffffffffffffff16600073ffffffffffffffffffffffffffffffffffffffff167fddf252ad1be2c89b69c2b068fc378daa952ba7f163c4a11628f55a4df523b3ef60405160405180910390a45050565b612228848484611ddd565b612234848484846126cc565b612273576040517f08c379a000000000000000000000000000000000000000000000000000000000815260040161226a90613700565b60405180910390fd5b50505050565b606060405180602001604052806000815250905090565b606060008214156122d8576040518060400160405280600181526020017f30000000000000000000000000000000000000000000000000000000000000008152509050612438565b600082905060005b6000821461230a5780806122f390613d0f565b915050600a826123039190613b91565b91506122e0565b60008167ffffffffffffffff81111561234c577f4e487b7100000000000000000000000000000000000000000000000000000000600052604160045260246000fd5b6040519080825280601f01601f19166020018201604052801561237e5781602001600182028036833780820191505090505b5090505b60008514612431576001826123979190613bc2565b9150600a856123a69190613d58565b60306123b29190613b3b565b60f81b8183815181106123ee577f4e487b7100000000000000000000000000000000000000000000000000000000600052603260045260246000fd5b60200101907effffffffffffffffffffffffffffffffffffffffffffffffffffffffffffff1916908160001a905350600a8561242a9190613b91565b9450612382565b8093505050505b919050565b6000612448826112c5565b9050612456816000846125b8565b612461600083611c38565b6001600360008373ffffffffffffffffffffffffffffffffffffffff1673ffffffffffffffffffffffffffffffffffffffff16815260200190815260200160002060008282546124b19190613bc2565b925050819055506002600083815260200190815260200160002060006101000a81549073ffffffffffffffffffffffffffffffffffffffff021916905581600073ffffffffffffffffffffffffffffffffffffffff168273ffffffffffffffffffffffffffffffffffffffff167fddf252ad1be2c89b69c2b068fc378daa952ba7f163c4a11628f55a4df523b3ef60405160405180910390a45050565b60007f01ffc9a7000000000000000000000000000000000000000000000000000000007bffffffffffffffffffffffffffffffffffffffffffffffffffffffff1916827bffffffffffffffffffffffffffffffffffffffffffffffffffffffff1916149050919050565b6125c3838383612863565b600073ffffffffffffffffffffffffffffffffffffffff168373ffffffffffffffffffffffffffffffffffffffff1614156126065761260181612868565b612645565b8173ffffffffffffffffffffffffffffffffffffffff168373ffffffffffffffffffffffffffffffffffffffff16146126445761264383826128b1565b5b5b600073ffffffffffffffffffffffffffffffffffffffff168273ffffffffffffffffffffffffffffffffffffffff1614156126885761268381612a1e565b6126c7565b8273ffffffffffffffffffffffffffffffffffffffff168273ffffffffffffffffffffffffffffffffffffffff16146126c6576126c58282612b61565b5b5b505050565b60006126ed8473ffffffffffffffffffffffffffffffffffffffff16612be0565b15612856578373ffffffffffffffffffffffffffffffffffffffff1663150b7a02612716611c30565b8786866040518563ffffffff1660e01b81526004016127389493929190613635565b602060405180830381600087803b15801561275257600080fd5b505af192505050801561278357506040513d601f19601f820116820180604052508101906127809190613030565b60015b612806573d80600081146127b3576040519150601f19603f3d011682016040523d82523d6000602084013e6127b8565b606091505b506000815114156127fe576040517f08c379a00000000000000000000000000000000000000000000000000000000081526004016127f590613700565b60405180910390fd5b805181602001fd5b63150b7a0260e01b7bffffffffffffffffffffffffffffffffffffffffffffffffffffffff1916817bffffffffffffffffffffffffffffffffffffffffffffffffffffffff19161491505061285b565b600190505b949350505050565b505050565b6008805490506009600083815260200190815260200160002081905550600881908060018154018082558091505060019003906000526020600020016000909190919091505550565b600060016128be84611377565b6128c89190613bc2565b90506000600760008481526020019081526020016000205490508181146129ad576000600660008673ffffffffffffffffffffffffffffffffffffffff1673ffffffffffffffffffffffffffffffffffffffff168152602001908152602001600020600084815260200190815260200160002054905080600660008773ffffffffffffffffffffffffffffffffffffffff1673ffffffffffffffffffffffffffffffffffffffff168152602001908152602001600020600084815260200190815260200160002081905550816007600083815260200190815260200160002081905550505b6007600084815260200190815260200160002060009055600660008573ffffffffffffffffffffffffffffffffffffffff1673ffffffffffffffffffffffffffffffffffffffff16815260200190815260200160002060008381526020019081526020016000206000905550505050565b60006001600880549050612a329190613bc2565b9050600060096000848152602001908152602001600020549050600060088381548110612a88577f4e487b7100000000000000000000000000000000000000000000000000000000600052603260045260246000fd5b906000526020600020015490508060088381548110612ad0577f4e487b7100000000000000000000000000000000000000000000000000000000600052603260045260246000fd5b906000526020600020018190555081600960008381526020019081526020016000208190555060096000858152602001908152602001600020600090556008805480612b45577f4e487b7100000000000000000000000000000000000000000000000000000000600052603160045260246000fd5b6001900381819060005260206000200160009055905550505050565b6000612b6c83611377565b905081600660008573ffffffffffffffffffffffffffffffffffffffff1673ffffffffffffffffffffffffffffffffffffffff168152602001908152602001600020600083815260200190815260200160002081905550806007600084815260200190815260200160002081905550505050565b600080823b905060008111915050919050565b60405180608001604052806000815260200160608152602001600015158152602001600081525090565b828054612c2990613cac565b90600052602060002090601f016020900481019282612c4b5760008555612c92565b82601f10612c6457805160ff1916838001178555612c92565b82800160010185558215612c92579182015b82811115612c91578251825591602001919060010190612c76565b5b509050612c9f9190612ca3565b5090565b5b80821115612cbc576000816000905550600101612ca4565b5090565b6000612cd3612cce84613a4c565b613a27565b905082815260208101848484011115612ceb57600080fd5b612cf6848285613c6a565b509392505050565b6000612d11612d0c84613a7d565b613a27565b905082815260208101848484011115612d2957600080fd5b612d34848285613c6a565b509392505050565b600081359050612d4b816144b1565b92915050565b600081359050612d60816144c8565b92915050565b600081359050612d75816144df565b92915050565b600081519050612d8a816144df565b92915050565b600082601f830112612da157600080fd5b8135612db1848260208601612cc0565b91505092915050565b600082601f830112612dcb57600080fd5b8135612ddb848260208601612cfe565b91505092915050565b600081359050612df3816144f6565b92915050565b600060208284031215612e0b57600080fd5b6000612e1984828501612d3c565b91505092915050565b60008060408385031215612e3557600080fd5b6000612e4385828601612d3c565b9250506020612e5485828601612d3c565b9150509250929050565b600080600060608486031215612e7357600080fd5b6000612e8186828701612d3c565b9350506020612e9286828701612d3c565b9250506040612ea386828701612de4565b9150509250925092565b60008060008060808587031215612ec357600080fd5b6000612ed187828801612d3c565b9450506020612ee287828801612d3c565b9350506040612ef387828801612de4565b925050606085013567ffffffffffffffff811115612f1057600080fd5b612f1c87828801612d90565b91505092959194509250565b60008060408385031215612f3b57600080fd5b6000612f4985828601612d3c565b9250506020612f5a85828601612d51565b9150509250929050565b600080600060608486031215612f7957600080fd5b6000612f8786828701612d3c565b935050602084013567ffffffffffffffff811115612fa457600080fd5b612fb086828701612dba565b9250506040612fc186828701612de4565b9150509250925092565b60008060408385031215612fde57600080fd5b6000612fec85828601612d3c565b9250506020612ffd85828601612de4565b9150509250929050565b60006020828403121561301957600080fd5b600061302784828501612d66565b91505092915050565b60006020828403121561304257600080fd5b600061305084828501612d7b565b91505092915050565b60006020828403121561306b57600080fd5b600061307984828501612de4565b91505092915050565b6000806040838503121561309557600080fd5b60006130a385828601612de4565b92505060206130b485828601612de4565b9150509250929050565b60006130ca8383613575565b905092915050565b6130db81613bf6565b82525050565b60006130ec82613abe565b6130f68185613aec565b93508360208202850161310885613aae565b8060005b85811015613144578484038952815161312585826130be565b945061313083613adf565b925060208a0199505060018101905061310c565b50829750879550505050505092915050565b61315f81613c08565b82525050565b61316e81613c08565b82525050565b600061317f82613ac9565b6131898185613afd565b9350613199818560208601613c79565b6131a281613e45565b840191505092915050565b60006131b882613ad4565b6131c28185613b0e565b93506131d2818560208601613c79565b6131db81613e45565b840191505092915050565b60006131f182613ad4565b6131fb8185613b1f565b935061320b818560208601613c79565b61321481613e45565b840191505092915050565b600061322a82613ad4565b6132348185613b30565b9350613244818560208601613c79565b80840191505092915050565b600061325d602b83613b1f565b915061326882613e56565b604082019050919050565b6000613280603283613b1f565b915061328b82613ea5565b604082019050919050565b60006132a3601c83613b1f565b91506132ae82613ef4565b602082019050919050565b60006132c6602483613b1f565b91506132d182613f1d565b604082019050919050565b60006132e9601983613b1f565b91506132f482613f6c565b602082019050919050565b600061330c602a83613b1f565b915061331782613f95565b604082019050919050565b600061332f602c83613b1f565b915061333a82613fe4565b604082019050919050565b6000613352603883613b1f565b915061335d82614033565b604082019050919050565b6000613375602a83613b1f565b915061338082614082565b604082019050919050565b6000613398602983613b1f565b91506133a3826140d1565b604082019050919050565b60006133bb602683613b1f565b91506133c682614120565b604082019050919050565b60006133de602083613b1f565b91506133e98261416f565b602082019050919050565b6000613401602c83613b1f565b915061340c82614198565b604082019050919050565b6000613424602683613b1f565b915061342f826141e7565b604082019050919050565b6000613447602983613b1f565b915061345282614236565b604082019050919050565b600061346a602f83613b1f565b915061347582614285565b604082019050919050565b600061348d602183613b1f565b9150613498826142d4565b604082019050919050565b60006134b0601a83613b1f565b91506134bb82614323565b602082019050919050565b60006134d3603183613b1f565b91506134de8261434c565b604082019050919050565b60006134f6602c83613b1f565b91506135018261439b565b604082019050919050565b6000613519601483613b1f565b9150613524826143ea565b602082019050919050565b600061353c602383613b1f565b915061354782614413565b604082019050919050565b600061355f602483613b1f565b915061356a82614462565b604082019050919050565b600060808301600083015161358d60008601826135d8565b50602083015184820360208601526135a582826131ad565b91505060408301516135ba6040860182613156565b5060608301516135cd60608601826135d8565b508091505092915050565b6135e181613c60565b82525050565b6135f081613c60565b82525050565b6000613602828561321f565b915061360e828461321f565b91508190509392505050565b600060208201905061362f60008301846130d2565b92915050565b600060808201905061364a60008301876130d2565b61365760208301866130d2565b61366460408301856135e7565b81810360608301526136768184613174565b905095945050505050565b6000602082019050818103600083015261369b81846130e1565b905092915050565b60006020820190506136b86000830184613165565b92915050565b600060208201905081810360008301526136d881846131e6565b905092915050565b600060208201905081810360008301526136f981613250565b9050919050565b6000602082019050818103600083015261371981613273565b9050919050565b6000602082019050818103600083015261373981613296565b9050919050565b60006020820190508181036000830152613759816132b9565b9050919050565b60006020820190508181036000830152613779816132dc565b9050919050565b60006020820190508181036000830152613799816132ff565b9050919050565b600060208201905081810360008301526137b981613322565b9050919050565b600060208201905081810360008301526137d981613345565b9050919050565b600060208201905081810360008301526137f981613368565b9050919050565b600060208201905081810360008301526138198161338b565b9050919050565b60006020820190508181036000830152613839816133ae565b9050919050565b60006020820190508181036000830152613859816133d1565b9050919050565b60006020820190508181036000830152613879816133f4565b9050919050565b6000602082019050818103600083015261389981613417565b9050919050565b600060208201905081810360008301526138b98161343a565b9050919050565b600060208201905081810360008301526138d98161345d565b9050919050565b600060208201905081810360008301526138f981613480565b9050919050565b60006020820190508181036000830152613919816134a3565b9050919050565b60006020820190508181036000830152613939816134c6565b9050919050565b60006020820190508181036000830152613959816134e9565b9050919050565b600060208201905081810360008301526139798161350c565b9050919050565b600060208201905081810360008301526139998161352f565b9050919050565b600060208201905081810360008301526139b981613552565b9050919050565b60006020820190506139d560008301846135e7565b92915050565b60006080820190506139f060008301876135e7565b8181036020830152613a0281866131e6565b9050613a116040830185613165565b613a1e60608301846135e7565b95945050505050565b6000613a31613a42565b9050613a3d8282613cde565b919050565b6000604051905090565b600067ffffffffffffffff821115613a6757613a66613e16565b5b613a7082613e45565b9050602081019050919050565b600067ffffffffffffffff821115613a9857613a97613e16565b5b613aa182613e45565b9050602081019050919050565b6000819050602082019050919050565b600081519050919050565b600081519050919050565b600081519050919050565b6000602082019050919050565b600082825260208201905092915050565b600082825260208201905092915050565b600082825260208201905092915050565b600082825260208201905092915050565b600081905092915050565b6000613b4682613c60565b9150613b5183613c60565b9250827fffffffffffffffffffffffffffffffffffffffffffffffffffffffffffffffff03821115613b8657613b85613d89565b5b828201905092915050565b6000613b9c82613c60565b9150613ba783613c60565b925082613bb757613bb6613db8565b5b828204905092915050565b6000613bcd82613c60565b9150613bd883613c60565b925082821015613beb57613bea613d89565b5b828203905092915050565b6000613c0182613c40565b9050919050565b60008115159050919050565b60007fffffffff0000000000000000000000000000000000000000000000000000000082169050919050565b600073ffffffffffffffffffffffffffffffffffffffff82169050919050565b6000819050919050565b82818337600083830152505050565b60005b83811015613c97578082015181840152602081019050613c7c565b83811115613ca6576000848401525b50505050565b60006002820490506001821680613cc457607f821691505b60208210811415613cd857613cd7613de7565b5b50919050565b613ce782613e45565b810181811067ffffffffffffffff82111715613d0657613d05613e16565b5b80604052505050565b6000613d1a82613c60565b91507fffffffffffffffffffffffffffffffffffffffffffffffffffffffffffffffff821415613d4d57613d4c613d89565b5b600182019050919050565b6000613d6382613c60565b9150613d6e83613c60565b925082613d7e57613d7d613db8565b5b828206905092915050565b7f4e487b7100000000000000000000000000000000000000000000000000000000600052601160045260246000fd5b7f4e487b7100000000000000000000000000000000000000000000000000000000600052601260045260246000fd5b7f4e487b7100000000000000000000000000000000000000000000000000000000600052602260045260246000fd5b7f4e487b7100000000000000000000000000000000000000000000000000000000600052604160045260246000fd5b6000601f19601f8301169050919050565b7f455243373231456e756d657261626c653a206f776e657220696e646578206f7560008201527f74206f6620626f756e6473000000000000000000000000000000000000000000602082015250565b7f4552433732313a207472616e7366657220746f206e6f6e20455243373231526560008201527f63656976657220696d706c656d656e7465720000000000000000000000000000602082015250565b7f4552433732313a20746f6b656e20616c7265616479206d696e74656400000000600082015250565b7f4552433732313a207472616e7366657220746f20746865207a65726f2061646460008201527f7265737300000000000000000000000000000000000000000000000000000000602082015250565b7f4552433732313a20617070726f766520746f2063616c6c657200000000000000600082015250565b7f456c20746f6b656e2071756520696e74656e746173207472616e73666572697260008201527f206e6f2065786973746500000000000000000000000000000000000000000000602082015250565b7f4552433732313a206f70657261746f7220717565727920666f72206e6f6e657860008201527f697374656e7420746f6b656e0000000000000000000000000000000000000000602082015250565b7f4552433732313a20617070726f76652063616c6c6572206973206e6f74206f7760008201527f6e6572206e6f7220617070726f76656420666f7220616c6c0000000000000000602082015250565b7f4552433732313a2062616c616e636520717565727920666f7220746865207a6560008201527f726f206164647265737300000000000000000000000000000000000000000000602082015250565b7f4552433732313a206f776e657220717565727920666f72206e6f6e657869737460008201527f656e7420746f6b656e0000000000000000000000000000000000000000000000602082015250565b7f736f6c6f20656c206475656e6f2064656c20746f6b656e20707565646520766560008201527f6e6465726c6f0000000000000000000000000000000000000000000000000000602082015250565b7f4552433732313a206d696e7420746f20746865207a65726f2061646472657373600082015250565b7f4552433732313a20617070726f76656420717565727920666f72206e6f6e657860008201527f697374656e7420746f6b656e0000000000000000000000000000000000000000602082015250565b7f456c20746f6b656e2071756520696e74656e746173207175656d6172206e6f2060008201527f6578697374650000000000000000000000000000000000000000000000000000602082015250565b7f4552433732313a207472616e73666572206f6620746f6b656e2074686174206960008201527f73206e6f74206f776e0000000000000000000000000000000000000000000000602082015250565b7f4552433732314d657461646174613a2055524920717565727920666f72206e6f60008201527f6e6578697374656e7420746f6b656e0000000000000000000000000000000000602082015250565b7f4552433732313a20617070726f76616c20746f2063757272656e74206f776e6560008201527f7200000000000000000000000000000000000000000000000000000000000000602082015250565b7f4573746520746f6b656e206e6f2074652070657274656e656365000000000000600082015250565b7f4552433732313a207472616e736665722063616c6c6572206973206e6f74206f60008201527f776e6572206e6f7220617070726f766564000000000000000000000000000000602082015250565b7f455243373231456e756d657261626c653a20676c6f62616c20696e646578206f60008201527f7574206f6620626f756e64730000000000000000000000000000000000000000602082015250565b7f666f6e646f7320696e737566696369656e746573000000000000000000000000600082015250565b7f65736520746f6b656e20746f6461766961206e6f206861207369646f2063726560008201527f61646f0000000000000000000000000000000000000000000000000000000000602082015250565b7f6e6f20736520656e6375656e7472612061206c612076656e746120657365207460008201527f6f6b656e00000000000000000000000000000000000000000000000000000000602082015250565b6144ba81613bf6565b81146144c557600080fd5b50565b6144d181613c08565b81146144dc57600080fd5b50565b6144e881613c14565b81146144f357600080fd5b50565b6144ff81613c60565b811461450a57600080fd5b5056fea26469706673582212206ea393279f7cdd993ce73ca23611becbb5d5e57de081b040a13521d9385868d164736f6c63430008010033",
  "immutableReferences": {},
  "source": "// SPDX-License-Identifier: MIT\r\npragma solidity >=0.4.22 <0.9.0;\r\nimport \"@openzeppelin/contracts/token/ERC721/ERC721.sol\";\r\nimport \"@openzeppelin/contracts/token/ERC721/extensions/ERC721Enumerable.sol\";\r\nimport \"@openzeppelin/contracts/utils/Counters.sol\";\r\n\r\ncontract MarketPlace is ERC721Enumerable {\r\n    using Counters for Counters.Counter;\r\n    //representa un entero que lleva la cuenta de los tokensNFT\r\n    Counters.Counter private _tokenIds;\r\n\r\n    //matenera el dueo del contrato o quien lo mino\r\n    address public minero;\r\n\r\n    // es la representacion de un token\r\n    struct tokenData {\r\n        uint256 price;\r\n        string data;\r\n        bool onSale;\r\n        uint256 tokenID;\r\n    }\r\n\r\n    //contiene todas las representacion de cada token\r\n    mapping(uint256 => tokenData) public tokensData;\r\n\r\n    constructor() ERC721(\"MarketPlace\", \"MPE\") {\r\n        minero = msg.sender;\r\n    }\r\n\r\n    /**\r\n    mina nuevos tokens\r\n\t@param receptor {address} es a quien mandaremos el  token \r\n\t@param datos    {string} es un json con todos los datos del token\r\n\t@param price    {uint256} the price in weis\r\n    @return {uint256} equivale a el tokenid recien creado\r\n\t */\r\n    function minar(\r\n        address receptor,\r\n        string memory datos,\r\n        uint256 price\r\n    ) public returns (uint256) {\r\n        //obtener el tokenid actual\r\n        uint256 newItemId = _tokenIds.current();\r\n\r\n        //aumentar en 1 el conteo de tokens\r\n        _tokenIds.increment();\r\n\r\n        //minar el token\r\n        _mint(receptor, newItemId);\r\n\r\n        //agregar los datos a nuestro mapping\r\n        tokensData[newItemId].data = datos;\r\n        tokensData[newItemId].price = price;\r\n        tokensData[newItemId].onSale = true;\r\n        tokensData[newItemId].tokenID = newItemId;\r\n\r\n        return newItemId;\r\n    }\r\n\r\n    /**\r\n    * Funcin para transferir un token NFT del propietario a otro address\r\n    @param to {address} representa a quien vamos a transferir nuestro NFT\r\n    @param tokenId {uint256} este valor indica el id que vamos a transferir \r\n    @return {addresss}  esta funcin nos retorna el address del nuevo propietario del NFT\r\n     */\r\n\r\n    function transferirNft(address to, uint256 tokenId)\r\n        public\r\n        returns (address)\r\n    {\r\n        require(_exists(tokenId), \"El token que intentas transferir no existe\");\r\n        require(msg.sender == ownerOf(tokenId), \"Este token no te pertenece\");\r\n\r\n        //transferir el token NFT si el token id existe y es nuestro\r\n        safeTransferFrom(msg.sender, to, tokenId);\r\n        //retornar el nuevo owner del token NFT\r\n        return to;\r\n    }\r\n\r\n    /** \r\n    * Funcin para eliminar un token NFT en tu address\r\n    @param tokenId {uint256} representa el id del token NFT a eliminar\r\n    @return {success} si el proceso fue llevado con exito la funcion retorna un true\r\n     */\r\n    function quemarNft(uint256 tokenId) public returns (bool) {\r\n        require(_exists(tokenId), \"El token que intentas quemar no existe\");\r\n        require(msg.sender == ownerOf(tokenId), \"Este token no te pertenece\");\r\n\r\n        //Eliminamos el token NFT si el token id existe y es nuestro\r\n        _burn(tokenId);\r\n\r\n        return true;\r\n    }\r\n\r\n    /**\r\n     * pone a la venta un token y si le das el precio lo cambia\r\n     *@param tokenid {uint256} representa el identificador del tokenid\r\n     *@param price  {uint256} representa el precio en wei al que se vendera\r\n     *\r\n     */\r\n    function revender(uint256 tokenid, uint256 price) public {\r\n        require(\r\n            ownerOf(tokenid) == msg.sender,\r\n            \"solo el dueno del token puede venderlo\"\r\n        );\r\n        tokensData[tokenid].onSale = true;\r\n\r\n        if (!(price == 0)) {\r\n            tokensData[tokenid].price = price;\r\n        }\r\n    }\r\n\r\n    /**\r\n     *cambia el estado del token para que este no pueda ser visualizado o vendido\r\n     *@param tokenid {uint256} tokenid representa el token al cual afectar\r\n     */\r\n    function quitarDelMarketPlace(uint256 tokenid) public {\r\n        //este require solo permite que el owner del tokenid pueda usar la funcion\r\n        require(\r\n            ownerOf(tokenid) == msg.sender,\r\n            \"solo el dueno del token puede venderlo\"\r\n        );\r\n        // impide que accedamos a una posicion inexistente\r\n        require(\r\n            tokenid < _tokenIds.current(),\r\n            \"ese token todavia no ha sido creado\"\r\n        );\r\n        tokensData[tokenid].onSale = false;\r\n    }\r\n\r\n    /**\r\n     *regresa todos los nft disponibles\r\n     *@return tokenData[] contiene todos los tokens disponibles\r\n     */\r\n    function obtenerNfts() public view returns (tokenData[] memory) {\r\n        //es el numero de tokens\r\n        uint256 nTokens = _tokenIds.current();\r\n        //es un arreglo temporal con todos los nfts\r\n        tokenData[] memory onSaleTokensData = new tokenData[](nTokens);\r\n        //sacamos los nft del mapping y los almacenamos en el arreglo\r\n        for (uint256 index = 0; index < nTokens; index++) {\r\n            onSaleTokensData[index] = tokensData[index];\r\n        }\r\n\r\n        return onSaleTokensData;\r\n    }\r\n\r\n    /**\r\n     *con esta funcion cualquiera puede comprar el nft que desea\r\n     *@param tokenId {uint256} tokenid representa el tokenid a comprar\r\n     */\r\n    function comprarNft(uint256 tokenId) public payable {\r\n        //este require se asegura que se mando el suficiente ether para comprar el token\r\n        require(msg.value == tokensData[tokenId].price, \"fondos insuficientes\");\r\n        //se impide la venta si no esta en venta el token\r\n        require(\r\n            tokensData[tokenId].onSale,\r\n            \"no se encuentra a la venta ese token\"\r\n        );\r\n        //es el dueo del token\r\n        address payable tokenOwner = payable(ownerOf(tokenId));\r\n\r\n        //mandamos el token al comprador\r\n        _transfer(tokenOwner, msg.sender, tokenId);\r\n\r\n        //le transferimos el dinero al  vendedor\r\n        tokenOwner.transfer(msg.value);\r\n\r\n        //poner el token en pausa\r\n        tokensData[tokenId].onSale = false;\r\n    }\r\n\r\n    /**\r\n     * @param owner {address}  representa la direccin al cual consultar los tokens\r\n     * @return tokenData[] arreglo con todos los datos de cada token\r\n     */\r\n    function tokensOf(address owner) public view returns (tokenData[] memory) {\r\n        //numero de tokens\r\n        uint256 nTokens = balanceOf(owner);\r\n        if (nTokens == 0) {\r\n            return (new tokenData[](nTokens));\r\n        }\r\n        //arreglo con los tokens\r\n        tokenData[] memory userTokens = new tokenData[](nTokens);\r\n\r\n        for (uint256 i = 0; i < nTokens; i++) {\r\n            //obtener los datos de cada uno de los tokens\r\n            userTokens[i] = tokensData[tokenOfOwnerByIndex(owner, i)];\r\n        }\r\n        return (userTokens);\r\n    }\r\n}\r\n",
  "sourcePath": "C:/Users/yeyei/OneDrive/Documentos/NFT-culturas-latinas/blockchain/contracts/MarketPlace.sol",
  "compiler": {
    "name": "solc",
    "version": "0.8.1+commit.df193b15.Emscripten.clang"
  },
  "schemaVersion": "3.3.3",
  "updatedAt": "2021-06-24T01:27:36.743Z",
  "networkType": "ethereum",
  "devdoc": {
    "kind": "dev",
    "methods": {
      "approve(address,uint256)": {
        "details": "See {IERC721-approve}."
      },
      "balanceOf(address)": {
        "details": "See {IERC721-balanceOf}."
      },
      "comprarNft(uint256)": {
        "params": {
          "tokenId": "{uint256} tokenid representa el tokenid a comprar"
        }
      },
      "getApproved(uint256)": {
        "details": "See {IERC721-getApproved}."
      },
      "isApprovedForAll(address,address)": {
        "details": "See {IERC721-isApprovedForAll}."
      },
      "minar(address,string,uint256)": {
        "params": {
          "datos": "{string} es un json con todos los datos del token",
          "price": "{uint256} the price in weis",
          "receptor": "{address} es a quien mandaremos el  token "
        },
        "returns": {
          "_0": "{uint256} equivale a el tokenid recien creado"
        }
      },
      "name()": {
        "details": "See {IERC721Metadata-name}."
      },
      "obtenerNfts()": {
        "returns": {
          "_0": "tokenData[] contiene todos los tokens disponibles"
        }
      },
      "ownerOf(uint256)": {
        "details": "See {IERC721-ownerOf}."
      },
      "quemarNft(uint256)": {
        "params": {
          "tokenId": "{uint256} representa el id del token NFT a eliminar"
        },
        "returns": {
          "_0": "{success} si el proceso fue llevado con exito la funcion retorna un true"
        }
      },
      "quitarDelMarketPlace(uint256)": {
        "params": {
          "tokenid": "{uint256} tokenid representa el token al cual afectar"
        }
      },
      "revender(uint256,uint256)": {
        "params": {
          "price": "{uint256} representa el precio en wei al que se vendera",
          "tokenid": "{uint256} representa el identificador del tokenid"
        }
      },
      "safeTransferFrom(address,address,uint256)": {
        "details": "See {IERC721-safeTransferFrom}."
      },
      "safeTransferFrom(address,address,uint256,bytes)": {
        "details": "See {IERC721-safeTransferFrom}."
      },
      "setApprovalForAll(address,bool)": {
        "details": "See {IERC721-setApprovalForAll}."
      },
      "supportsInterface(bytes4)": {
        "details": "See {IERC165-supportsInterface}."
      },
      "symbol()": {
        "details": "See {IERC721Metadata-symbol}."
      },
      "tokenByIndex(uint256)": {
        "details": "See {IERC721Enumerable-tokenByIndex}."
      },
      "tokenOfOwnerByIndex(address,uint256)": {
        "details": "See {IERC721Enumerable-tokenOfOwnerByIndex}."
      },
      "tokenURI(uint256)": {
        "details": "See {IERC721Metadata-tokenURI}."
      },
      "tokensOf(address)": {
        "params": {
          "owner": "{address}  representa la direccin al cual consultar los tokens"
        },
        "returns": {
          "_0": "tokenData[] arreglo con todos los datos de cada token"
        }
      },
      "totalSupply()": {
        "details": "See {IERC721Enumerable-totalSupply}."
      },
      "transferFrom(address,address,uint256)": {
        "details": "See {IERC721-transferFrom}."
      },
      "transferirNft(address,uint256)": {
        "params": {
          "to": "{address} representa a quien vamos a transferir nuestro NFT",
          "tokenId": "{uint256} este valor indica el id que vamos a transferir "
        },
        "returns": {
          "_0": "{addresss}  esta funcin nos retorna el address del nuevo propietario del NFT"
        }
      }
    },
    "version": 1
  },
  "userdoc": {
    "kind": "user",
    "methods": {
      "comprarNft(uint256)": {
        "notice": "con esta funcion cualquiera puede comprar el nft que desea"
      },
      "minar(address,string,uint256)": {
        "notice": "mina nuevos tokens"
      },
      "obtenerNfts()": {
        "notice": "regresa todos los nft disponibles"
      },
      "quemarNft(uint256)": {
        "notice": "Funcin para eliminar un token NFT en tu address"
      },
      "quitarDelMarketPlace(uint256)": {
        "notice": "cambia el estado del token para que este no pueda ser visualizado o vendido"
      },
      "revender(uint256,uint256)": {
        "notice": "pone a la venta un token y si le das el precio lo cambia"
      },
      "transferirNft(address,uint256)": {
        "notice": "Funcin para transferir un token NFT del propietario a otro address"
      }
    },
    "version": 1
  }
}