{
  "contractName": "MarketPlace",
  "abi": [
    {
      "inputs": [],
      "stateMutability": "nonpayable",
      "type": "constructor"
    },
    {
      "anonymous": false,
      "inputs": [
        {
          "indexed": true,
          "internalType": "address",
          "name": "owner",
          "type": "address"
        },
        {
          "indexed": true,
          "internalType": "address",
          "name": "approved",
          "type": "address"
        },
        {
          "indexed": true,
          "internalType": "uint256",
          "name": "tokenId",
          "type": "uint256"
        }
      ],
      "name": "Approval",
      "type": "event"
    },
    {
      "anonymous": false,
      "inputs": [
        {
          "indexed": true,
          "internalType": "address",
          "name": "owner",
          "type": "address"
        },
        {
          "indexed": true,
          "internalType": "address",
          "name": "operator",
          "type": "address"
        },
        {
          "indexed": false,
          "internalType": "bool",
          "name": "approved",
          "type": "bool"
        }
      ],
      "name": "ApprovalForAll",
      "type": "event"
    },
    {
      "anonymous": false,
      "inputs": [
        {
          "indexed": true,
          "internalType": "address",
          "name": "from",
          "type": "address"
        },
        {
          "indexed": true,
          "internalType": "address",
          "name": "to",
          "type": "address"
        },
        {
          "indexed": true,
          "internalType": "uint256",
          "name": "tokenId",
          "type": "uint256"
        }
      ],
      "name": "Transfer",
      "type": "event"
    },
    {
      "inputs": [],
      "name": "_tokenIds",
      "outputs": [
        {
          "internalType": "uint256",
          "name": "_value",
          "type": "uint256"
        }
      ],
      "stateMutability": "view",
      "type": "function",
      "constant": true
    },
    {
      "inputs": [
        {
          "internalType": "address",
          "name": "to",
          "type": "address"
        },
        {
          "internalType": "uint256",
          "name": "tokenId",
          "type": "uint256"
        }
      ],
      "name": "approve",
      "outputs": [],
      "stateMutability": "nonpayable",
      "type": "function"
    },
    {
      "inputs": [
        {
          "internalType": "address",
          "name": "owner",
          "type": "address"
        }
      ],
      "name": "balanceOf",
      "outputs": [
        {
          "internalType": "uint256",
          "name": "",
          "type": "uint256"
        }
      ],
      "stateMutability": "view",
      "type": "function",
      "constant": true
    },
    {
      "inputs": [
        {
          "internalType": "uint256",
          "name": "tokenId",
          "type": "uint256"
        }
      ],
      "name": "getApproved",
      "outputs": [
        {
          "internalType": "address",
          "name": "",
          "type": "address"
        }
      ],
      "stateMutability": "view",
      "type": "function",
      "constant": true
    },
    {
      "inputs": [
        {
          "internalType": "address",
          "name": "owner",
          "type": "address"
        },
        {
          "internalType": "address",
          "name": "operator",
          "type": "address"
        }
      ],
      "name": "isApprovedForAll",
      "outputs": [
        {
          "internalType": "bool",
          "name": "",
          "type": "bool"
        }
      ],
      "stateMutability": "view",
      "type": "function",
      "constant": true
    },
    {
      "inputs": [],
      "name": "minero",
      "outputs": [
        {
          "internalType": "address",
          "name": "",
          "type": "address"
        }
      ],
      "stateMutability": "view",
      "type": "function",
      "constant": true
    },
    {
      "inputs": [],
      "name": "nTokenOnSale",
      "outputs": [
        {
          "internalType": "uint256",
          "name": "",
          "type": "uint256"
        }
      ],
      "stateMutability": "view",
      "type": "function",
      "constant": true
    },
    {
      "inputs": [],
      "name": "name",
      "outputs": [
        {
          "internalType": "string",
          "name": "",
          "type": "string"
        }
      ],
      "stateMutability": "view",
      "type": "function",
      "constant": true
    },
    {
      "inputs": [
        {
          "internalType": "uint256",
          "name": "tokenId",
          "type": "uint256"
        }
      ],
      "name": "ownerOf",
      "outputs": [
        {
          "internalType": "address",
          "name": "",
          "type": "address"
        }
      ],
      "stateMutability": "view",
      "type": "function",
      "constant": true
    },
    {
      "inputs": [
        {
          "internalType": "address",
          "name": "from",
          "type": "address"
        },
        {
          "internalType": "address",
          "name": "to",
          "type": "address"
        },
        {
          "internalType": "uint256",
          "name": "tokenId",
          "type": "uint256"
        }
      ],
      "name": "safeTransferFrom",
      "outputs": [],
      "stateMutability": "nonpayable",
      "type": "function"
    },
    {
      "inputs": [
        {
          "internalType": "address",
          "name": "from",
          "type": "address"
        },
        {
          "internalType": "address",
          "name": "to",
          "type": "address"
        },
        {
          "internalType": "uint256",
          "name": "tokenId",
          "type": "uint256"
        },
        {
          "internalType": "bytes",
          "name": "_data",
          "type": "bytes"
        }
      ],
      "name": "safeTransferFrom",
      "outputs": [],
      "stateMutability": "nonpayable",
      "type": "function"
    },
    {
      "inputs": [
        {
          "internalType": "address",
          "name": "operator",
          "type": "address"
        },
        {
          "internalType": "bool",
          "name": "approved",
          "type": "bool"
        }
      ],
      "name": "setApprovalForAll",
      "outputs": [],
      "stateMutability": "nonpayable",
      "type": "function"
    },
    {
      "inputs": [
        {
          "internalType": "bytes4",
          "name": "interfaceId",
          "type": "bytes4"
        }
      ],
      "name": "supportsInterface",
      "outputs": [
        {
          "internalType": "bool",
          "name": "",
          "type": "bool"
        }
      ],
      "stateMutability": "view",
      "type": "function",
      "constant": true
    },
    {
      "inputs": [],
      "name": "symbol",
      "outputs": [
        {
          "internalType": "string",
          "name": "",
          "type": "string"
        }
      ],
      "stateMutability": "view",
      "type": "function",
      "constant": true
    },
    {
      "inputs": [
        {
          "internalType": "uint256",
          "name": "index",
          "type": "uint256"
        }
      ],
      "name": "tokenByIndex",
      "outputs": [
        {
          "internalType": "uint256",
          "name": "",
          "type": "uint256"
        }
      ],
      "stateMutability": "view",
      "type": "function",
      "constant": true
    },
    {
      "inputs": [
        {
          "internalType": "address",
          "name": "owner",
          "type": "address"
        },
        {
          "internalType": "uint256",
          "name": "index",
          "type": "uint256"
        }
      ],
      "name": "tokenOfOwnerByIndex",
      "outputs": [
        {
          "internalType": "uint256",
          "name": "",
          "type": "uint256"
        }
      ],
      "stateMutability": "view",
      "type": "function",
      "constant": true
    },
    {
      "inputs": [
        {
          "internalType": "uint256",
          "name": "tokenId",
          "type": "uint256"
        }
      ],
      "name": "tokenURI",
      "outputs": [
        {
          "internalType": "string",
          "name": "",
          "type": "string"
        }
      ],
      "stateMutability": "view",
      "type": "function",
      "constant": true
    },
    {
      "inputs": [
        {
          "internalType": "uint256",
          "name": "",
          "type": "uint256"
        }
      ],
      "name": "tokensData",
      "outputs": [
        {
          "internalType": "uint256",
          "name": "price",
          "type": "uint256"
        },
        {
          "internalType": "string",
          "name": "data",
          "type": "string"
        },
        {
          "internalType": "bool",
          "name": "onSale",
          "type": "bool"
        },
        {
          "internalType": "uint256",
          "name": "tokenID",
          "type": "uint256"
        }
      ],
      "stateMutability": "view",
      "type": "function",
      "constant": true
    },
    {
      "inputs": [],
      "name": "totalSupply",
      "outputs": [
        {
          "internalType": "uint256",
          "name": "",
          "type": "uint256"
        }
      ],
      "stateMutability": "view",
      "type": "function",
      "constant": true
    },
    {
      "inputs": [
        {
          "internalType": "address",
          "name": "from",
          "type": "address"
        },
        {
          "internalType": "address",
          "name": "to",
          "type": "address"
        },
        {
          "internalType": "uint256",
          "name": "tokenId",
          "type": "uint256"
        }
      ],
      "name": "transferFrom",
      "outputs": [],
      "stateMutability": "nonpayable",
      "type": "function"
    },
    {
      "inputs": [
        {
          "internalType": "address",
          "name": "receptor",
          "type": "address"
        },
        {
          "internalType": "string",
          "name": "datos",
          "type": "string"
        },
        {
          "internalType": "uint256",
          "name": "price",
          "type": "uint256"
        }
      ],
      "name": "minar",
      "outputs": [
        {
          "internalType": "uint256",
          "name": "",
          "type": "uint256"
        }
      ],
      "stateMutability": "nonpayable",
      "type": "function"
    },
    {
      "inputs": [
        {
          "internalType": "address",
          "name": "to",
          "type": "address"
        },
        {
          "internalType": "uint256",
          "name": "tokenId",
          "type": "uint256"
        }
      ],
      "name": "transferirNft",
      "outputs": [
        {
          "internalType": "address",
          "name": "",
          "type": "address"
        }
      ],
      "stateMutability": "nonpayable",
      "type": "function"
    },
    {
      "inputs": [
        {
          "internalType": "uint256",
          "name": "tokenId",
          "type": "uint256"
        }
      ],
      "name": "quemarNft",
      "outputs": [
        {
          "internalType": "bool",
          "name": "",
          "type": "bool"
        }
      ],
      "stateMutability": "nonpayable",
      "type": "function"
    },
    {
      "inputs": [
        {
          "internalType": "uint256",
          "name": "tokenid",
          "type": "uint256"
        },
        {
          "internalType": "uint256",
          "name": "price",
          "type": "uint256"
        }
      ],
      "name": "revender",
      "outputs": [],
      "stateMutability": "nonpayable",
      "type": "function"
    },
    {
      "inputs": [
        {
          "internalType": "uint256",
          "name": "tokenid",
          "type": "uint256"
        }
      ],
      "name": "quitarDelMarketPlace",
      "outputs": [],
      "stateMutability": "nonpayable",
      "type": "function"
    },
    {
      "inputs": [],
      "name": "obtenerNfts",
      "outputs": [
        {
          "components": [
            {
              "internalType": "uint256",
              "name": "price",
              "type": "uint256"
            },
            {
              "internalType": "string",
              "name": "data",
              "type": "string"
            },
            {
              "internalType": "bool",
              "name": "onSale",
              "type": "bool"
            },
            {
              "internalType": "uint256",
              "name": "tokenID",
              "type": "uint256"
            }
          ],
          "internalType": "struct MarketPlace.tokenData[]",
          "name": "",
          "type": "tuple[]"
        }
      ],
      "stateMutability": "view",
      "type": "function",
      "constant": true
    },
    {
      "inputs": [
        {
          "internalType": "uint256",
          "name": "nTokenP",
          "type": "uint256"
        },
        {
          "internalType": "uint256",
          "name": "nPagina",
          "type": "uint256"
        }
      ],
      "name": "obtenerPaginav1",
      "outputs": [
        {
          "components": [
            {
              "internalType": "uint256",
              "name": "price",
              "type": "uint256"
            },
            {
              "internalType": "string",
              "name": "data",
              "type": "string"
            },
            {
              "internalType": "bool",
              "name": "onSale",
              "type": "bool"
            },
            {
              "internalType": "uint256",
              "name": "tokenID",
              "type": "uint256"
            }
          ],
          "internalType": "struct MarketPlace.tokenData[]",
          "name": "",
          "type": "tuple[]"
        }
      ],
      "stateMutability": "view",
      "type": "function",
      "constant": true
    },
    {
      "inputs": [
        {
          "internalType": "uint256",
          "name": "nTokenP",
          "type": "uint256"
        },
        {
          "internalType": "uint256",
          "name": "nPagina",
          "type": "uint256"
        }
      ],
      "name": "obtenerPaginav2",
      "outputs": [
        {
          "components": [
            {
              "internalType": "uint256",
              "name": "price",
              "type": "uint256"
            },
            {
              "internalType": "string",
              "name": "data",
              "type": "string"
            },
            {
              "internalType": "bool",
              "name": "onSale",
              "type": "bool"
            },
            {
              "internalType": "uint256",
              "name": "tokenID",
              "type": "uint256"
            }
          ],
          "internalType": "struct MarketPlace.tokenData[]",
          "name": "",
          "type": "tuple[]"
        }
      ],
      "stateMutability": "view",
      "type": "function",
      "constant": true
    },
    {
      "inputs": [
        {
          "internalType": "uint256",
          "name": "tokenId",
          "type": "uint256"
        }
      ],
      "name": "comprarNft",
      "outputs": [],
      "stateMutability": "payable",
      "type": "function",
      "payable": true
    },
    {
      "inputs": [
        {
          "internalType": "address",
          "name": "owner",
          "type": "address"
        }
      ],
      "name": "tokensOf",
      "outputs": [
        {
          "components": [
            {
              "internalType": "uint256",
              "name": "price",
              "type": "uint256"
            },
            {
              "internalType": "string",
              "name": "data",
              "type": "string"
            },
            {
              "internalType": "bool",
              "name": "onSale",
              "type": "bool"
            },
            {
              "internalType": "uint256",
              "name": "tokenID",
              "type": "uint256"
            }
          ],
          "internalType": "struct MarketPlace.tokenData[]",
          "name": "",
          "type": "tuple[]"
        }
      ],
      "stateMutability": "view",
      "type": "function",
      "constant": true
    },
    {
      "inputs": [
        {
          "internalType": "address",
          "name": "owner",
          "type": "address"
        },
        {
          "internalType": "uint256",
          "name": "nTok_porpagina",
          "type": "uint256"
        },
        {
          "internalType": "uint256",
          "name": "pag",
          "type": "uint256"
        }
      ],
      "name": "tokensOfPaginav1",
      "outputs": [
        {
          "components": [
            {
              "internalType": "uint256",
              "name": "price",
              "type": "uint256"
            },
            {
              "internalType": "string",
              "name": "data",
              "type": "string"
            },
            {
              "internalType": "bool",
              "name": "onSale",
              "type": "bool"
            },
            {
              "internalType": "uint256",
              "name": "tokenID",
              "type": "uint256"
            }
          ],
          "internalType": "struct MarketPlace.tokenData[]",
          "name": "",
          "type": "tuple[]"
        }
      ],
      "stateMutability": "view",
      "type": "function",
      "constant": true
    },
    {
      "inputs": [
        {
          "internalType": "uint256",
          "name": "_token",
          "type": "uint256"
        }
      ],
      "name": "getItemInfo",
      "outputs": [
        {
          "internalType": "uint256",
          "name": "_price",
          "type": "uint256"
        },
        {
          "internalType": "string",
          "name": "_data",
          "type": "string"
        },
        {
          "internalType": "bool",
          "name": "_onSale",
          "type": "bool"
        },
        {
          "internalType": "uint256",
          "name": "_tokenID",
          "type": "uint256"
        }
      ],
      "stateMutability": "view",
      "type": "function",
      "constant": true
    }
  ],
  "bytecode": "0x60806040523480156200001157600080fd5b506040518060400160405280600b81526020017f4d61726b6574506c6163650000000000000000000000000000000000000000008152506040518060400160405280600381526020017f4d50450000000000000000000000000000000000000000000000000000000000815250816000908051906020019062000096929190620000f9565b508060019080519060200190620000af929190620000f9565b50505033600b60006101000a81548173ffffffffffffffffffffffffffffffffffffffff021916908373ffffffffffffffffffffffffffffffffffffffff1602179055506200020e565b8280546200010790620001a9565b90600052602060002090601f0160209004810192826200012b576000855562000177565b82601f106200014657805160ff191683800117855562000177565b8280016001018555821562000177579182015b828111156200017657825182559160200191906001019062000159565b5b5090506200018691906200018a565b5090565b5b80821115620001a55760008160009055506001016200018b565b5090565b60006002820490506001821680620001c257607f821691505b60208210811415620001d957620001d8620001df565b5b50919050565b7f4e487b7100000000000000000000000000000000000000000000000000000000600052602260045260246000fd5b615063806200021e6000396000f3fe6080604052600436106101e35760003560e01c80635a3f267211610102578063b88d4fde11610095578063e985e9c511610064578063e985e9c514610790578063edfd03bd146107cd578063f5a99e90146107e9578063f5d8b8a314610826576101e3565b8063b88d4fde146106ad578063c87b56dd146106d6578063de7fe3e714610713578063e7a82a0114610753576101e3565b80639c62a52a116100d15780639c62a52a146105f1578063a22cb4651461062e578063aa46a40014610657578063b2d8adc814610682576101e3565b80635a3f26721461050f5780636352211e1461054c57806370a082311461058957806395d89b41146105c6576101e3565b8063390b91511161017a5780634f6ccce7116101495780634f6ccce71461042a5780635551ef611461046757806356ce03f114610492578063599ed3ff146104cf576101e3565b8063390b9151146103705780633d049d0c146103995780633fe97648146103d657806342842e0e14610401576101e3565b806318160ddd116101b657806318160ddd146102b65780631d3923ed146102e157806323b872dd1461030a5780632f745c5914610333576101e3565b806301ffc9a7146101e857806306fdde0314610225578063081812fc14610250578063095ea7b31461028d575b600080fd5b3480156101f457600080fd5b5061020f600480360381019061020a9190613a37565b610863565b60405161021c91906140f6565b60405180910390f35b34801561023157600080fd5b5061023a6108dd565b6040516102479190614111565b60405180910390f35b34801561025c57600080fd5b5061027760048036038101906102729190613a89565b61096f565b604051610284919061406d565b60405180910390f35b34801561029957600080fd5b506102b460048036038101906102af91906139ac565b6109f4565b005b3480156102c257600080fd5b506102cb610b0c565b6040516102d89190614433565b60405180910390f35b3480156102ed57600080fd5b5061030860048036038101906103039190613a89565b610b19565b005b34801561031657600080fd5b50610331600480360381019061032c919061383f565b610c24565b005b34801561033f57600080fd5b5061035a600480360381019061035591906139ac565b610c84565b6040516103679190614433565b60405180910390f35b34801561037c57600080fd5b5061039760048036038101906103929190613ab2565b610d29565b005b3480156103a557600080fd5b506103c060048036038101906103bb91906139e8565b610e48565b6040516103cd91906140d4565b60405180910390f35b3480156103e257600080fd5b506103eb611068565b6040516103f89190614433565b60405180910390f35b34801561040d57600080fd5b506104286004803603810190610423919061383f565b61106e565b005b34801561043657600080fd5b50610451600480360381019061044c9190613a89565b61108e565b60405161045e9190614433565b60405180910390f35b34801561047357600080fd5b5061047c611125565b60405161048991906140d4565b60405180910390f35b34801561049e57600080fd5b506104b960048036038101906104b491906139ac565b6112fd565b6040516104c6919061406d565b60405180910390f35b3480156104db57600080fd5b506104f660048036038101906104f19190613a89565b6113d1565b604051610506949392919061444e565b60405180910390f35b34801561051b57600080fd5b50610536600480360381019061053191906137da565b611496565b60405161054391906140d4565b60405180910390f35b34801561055857600080fd5b50610573600480360381019061056e9190613a89565b611704565b604051610580919061406d565b60405180910390f35b34801561059557600080fd5b506105b060048036038101906105ab91906137da565b6117b6565b6040516105bd9190614433565b60405180910390f35b3480156105d257600080fd5b506105db61186e565b6040516105e89190614111565b60405180910390f35b3480156105fd57600080fd5b5061061860048036038101906106139190613945565b611900565b6040516106259190614433565b60405180910390f35b34801561063a57600080fd5b5061065560048036038101906106509190613909565b6119d6565b005b34801561066357600080fd5b5061066c611b57565b6040516106799190614433565b60405180910390f35b34801561068e57600080fd5b50610697611b63565b6040516106a4919061406d565b60405180910390f35b3480156106b957600080fd5b506106d460048036038101906106cf919061388e565b611b89565b005b3480156106e257600080fd5b506106fd60048036038101906106f89190613a89565b611beb565b60405161070a9190614111565b60405180910390f35b34801561071f57600080fd5b5061073a60048036038101906107359190613a89565b611c92565b60405161074a949392919061444e565b60405180910390f35b34801561075f57600080fd5b5061077a60048036038101906107759190613a89565b611d99565b60405161078791906140f6565b60405180910390f35b34801561079c57600080fd5b506107b760048036038101906107b29190613803565b611e6b565b6040516107c491906140f6565b60405180910390f35b6107e760048036038101906107e29190613a89565b611eff565b005b3480156107f557600080fd5b50610810600480360381019061080b9190613ab2565b612064565b60405161081d91906140d4565b60405180910390f35b34801561083257600080fd5b5061084d60048036038101906108489190613ab2565b6122c1565b60405161085a91906140d4565b60405180910390f35b60007f780e9d63000000000000000000000000000000000000000000000000000000007bffffffffffffffffffffffffffffffffffffffffffffffffffffffff1916827bffffffffffffffffffffffffffffffffffffffffffffffffffffffff191614806108d657506108d5826124c3565b5b9050919050565b6060600080546108ec906147a3565b80601f0160208091040260200160405190810160405280929190818152602001828054610918906147a3565b80156109655780601f1061093a57610100808354040283529160200191610965565b820191906000526020600020905b81548152906001019060200180831161094857829003601f168201915b5050505050905090565b600061097a826125a5565b6109b9576040517f08c379a00000000000000000000000000000000000000000000000000000000081526004016109b0906142b3565b60405180910390fd5b6004600083815260200190815260200160002060009054906101000a900473ffffffffffffffffffffffffffffffffffffffff169050919050565b60006109ff82611704565b90508073ffffffffffffffffffffffffffffffffffffffff168373ffffffffffffffffffffffffffffffffffffffff161415610a70576040517f08c379a0000000000000000000000000000000000000000000000000000000008152600401610a6790614333565b60405180910390fd5b8073ffffffffffffffffffffffffffffffffffffffff16610a8f612611565b73ffffffffffffffffffffffffffffffffffffffff161480610abe5750610abd81610ab8612611565b611e6b565b5b610afd576040517f08c379a0000000000000000000000000000000000000000000000000000000008152600401610af490614213565b60405180910390fd5b610b078383612619565b505050565b6000600880549050905090565b3373ffffffffffffffffffffffffffffffffffffffff16610b3982611704565b73ffffffffffffffffffffffffffffffffffffffff1614610b8f576040517f08c379a0000000000000000000000000000000000000000000000000000000008152600401610b8690614273565b60405180910390fd5b610b99600a6126d2565b8110610bda576040517f08c379a0000000000000000000000000000000000000000000000000000000008152600401610bd1906143f3565b60405180910390fd5b6000600d600083815260200190815260200160002060020160006101000a81548160ff021916908315150217905550600c6000815480929190610c1c90614779565b919050555050565b610c35610c2f612611565b826126e0565b610c74576040517f08c379a0000000000000000000000000000000000000000000000000000000008152600401610c6b90614373565b60405180910390fd5b610c7f8383836127be565b505050565b6000610c8f836117b6565b8210610cd0576040517f08c379a0000000000000000000000000000000000000000000000000000000008152600401610cc790614133565b60405180910390fd5b600660008473ffffffffffffffffffffffffffffffffffffffff1673ffffffffffffffffffffffffffffffffffffffff168152602001908152602001600020600083815260200190815260200160002054905092915050565b3373ffffffffffffffffffffffffffffffffffffffff16610d4983611704565b73ffffffffffffffffffffffffffffffffffffffff1614610d9f576040517f08c379a0000000000000000000000000000000000000000000000000000000008152600401610d9690614273565b60405180910390fd5b60008111610de2576040517f08c379a0000000000000000000000000000000000000000000000000000000008152600401610dd9906143d3565b60405180910390fd5b6001600d600084815260200190815260200160002060020160006101000a81548160ff02191690831515021790555080600d600084815260200190815260200160002060000181905550600c6000815480929190610e3f90614806565b91905055505050565b60606000610e55856117b6565b905060008484610e659190614635565b905060008582610e7591906145ae565b905082811115610e83578290505b60008667ffffffffffffffff811115610ec5577f4e487b7100000000000000000000000000000000000000000000000000000000600052604160045260246000fd5b604051908082528060200260200182016040528015610efe57816020015b610eeb6135d4565b815260200190600190039081610ee35790505b50905060008390505b8281101561105957600d6000610f1d8b84610c84565b815260200190815260200160002060405180608001604052908160008201548152602001600182018054610f50906147a3565b80601f0160208091040260200160405190810160405280929190818152602001828054610f7c906147a3565b8015610fc95780601f10610f9e57610100808354040283529160200191610fc9565b820191906000526020600020905b815481529060010190602001808311610fac57829003601f168201915b505050505081526020016002820160009054906101000a900460ff16151515158152602001600382015481525050828583611004919061468f565b8151811061103b577f4e487b7100000000000000000000000000000000000000000000000000000000600052603260045260246000fd5b6020026020010181905250808061105190614806565b915050610f07565b50809450505050509392505050565b600c5481565b61108983838360405180602001604052806000815250611b89565b505050565b6000611098610b0c565b82106110d9576040517f08c379a00000000000000000000000000000000000000000000000000000000081526004016110d090614393565b60405180910390fd5b60088281548110611113577f4e487b7100000000000000000000000000000000000000000000000000000000600052603260045260246000fd5b90600052602060002001549050919050565b60606000611133600a6126d2565b905060008167ffffffffffffffff811115611177577f4e487b7100000000000000000000000000000000000000000000000000000000600052604160045260246000fd5b6040519080825280602002602001820160405280156111b057816020015b61119d6135d4565b8152602001906001900390816111955790505b50905060005b828110156112f457600d6000828152602001908152602001600020604051806080016040529081600082015481526020016001820180546111f6906147a3565b80601f0160208091040260200160405190810160405280929190818152602001828054611222906147a3565b801561126f5780601f106112445761010080835404028352916020019161126f565b820191906000526020600020905b81548152906001019060200180831161125257829003601f168201915b505050505081526020016002820160009054906101000a900460ff161515151581526020016003820154815250508282815181106112d6577f4e487b7100000000000000000000000000000000000000000000000000000000600052603260045260246000fd5b602002602001018190525080806112ec90614806565b9150506111b6565b50809250505090565b6000611308826125a5565b611347576040517f08c379a000000000000000000000000000000000000000000000000000000000815260040161133e906141d3565b60405180910390fd5b61135082611704565b73ffffffffffffffffffffffffffffffffffffffff163373ffffffffffffffffffffffffffffffffffffffff16146113bd576040517f08c379a00000000000000000000000000000000000000000000000000000000081526004016113b490614353565b60405180910390fd5b6113c833848461106e565b82905092915050565b600d6020528060005260406000206000915090508060000154908060010180546113fa906147a3565b80601f0160208091040260200160405190810160405280929190818152602001828054611426906147a3565b80156114735780601f1061144857610100808354040283529160200191611473565b820191906000526020600020905b81548152906001019060200180831161145657829003601f168201915b5050505050908060020160009054906101000a900460ff16908060030154905084565b606060006114a3836117b6565b90506000811415611530578067ffffffffffffffff8111156114ee577f4e487b7100000000000000000000000000000000000000000000000000000000600052604160045260246000fd5b60405190808252806020026020018201604052801561152757816020015b6115146135d4565b81526020019060019003908161150c5790505b509150506116ff565b60008167ffffffffffffffff811115611572577f4e487b7100000000000000000000000000000000000000000000000000000000600052604160045260246000fd5b6040519080825280602002602001820160405280156115ab57816020015b6115986135d4565b8152602001906001900390816115905790505b50905060005b828110156116f857600d60006115c78784610c84565b8152602001908152602001600020604051806080016040529081600082015481526020016001820180546115fa906147a3565b80601f0160208091040260200160405190810160405280929190818152602001828054611626906147a3565b80156116735780601f1061164857610100808354040283529160200191611673565b820191906000526020600020905b81548152906001019060200180831161165657829003601f168201915b505050505081526020016002820160009054906101000a900460ff161515151581526020016003820154815250508282815181106116da577f4e487b7100000000000000000000000000000000000000000000000000000000600052603260045260246000fd5b602002602001018190525080806116f090614806565b9150506115b1565b5080925050505b919050565b6000806002600084815260200190815260200160002060009054906101000a900473ffffffffffffffffffffffffffffffffffffffff169050600073ffffffffffffffffffffffffffffffffffffffff168173ffffffffffffffffffffffffffffffffffffffff1614156117ad576040517f08c379a00000000000000000000000000000000000000000000000000000000081526004016117a490614253565b60405180910390fd5b80915050919050565b60008073ffffffffffffffffffffffffffffffffffffffff168273ffffffffffffffffffffffffffffffffffffffff161415611827576040517f08c379a000000000000000000000000000000000000000000000000000000000815260040161181e90614233565b60405180910390fd5b600360008373ffffffffffffffffffffffffffffffffffffffff1673ffffffffffffffffffffffffffffffffffffffff168152602001908152602001600020549050919050565b60606001805461187d906147a3565b80601f01602080910402602001604051908101604052809291908181526020018280546118a9906147a3565b80156118f65780601f106118cb576101008083540402835291602001916118f6565b820191906000526020600020905b8154815290600101906020018083116118d957829003601f168201915b5050505050905090565b60008061190d600a6126d2565b9050611919600a612a1a565b6119238582612a30565b83600d6000838152602001908152602001600020600101908051906020019061194d9291906135fe565b5082600d6000838152602001908152602001600020600001819055506001600d600083815260200190815260200160002060020160006101000a81548160ff02191690831515021790555080600d600083815260200190815260200160002060030181905550600c60008154809291906119c690614806565b9190505550809150509392505050565b6119de612611565b73ffffffffffffffffffffffffffffffffffffffff168273ffffffffffffffffffffffffffffffffffffffff161415611a4c576040517f08c379a0000000000000000000000000000000000000000000000000000000008152600401611a43906141b3565b60405180910390fd5b8060056000611a59612611565b73ffffffffffffffffffffffffffffffffffffffff1673ffffffffffffffffffffffffffffffffffffffff16815260200190815260200160002060008473ffffffffffffffffffffffffffffffffffffffff1673ffffffffffffffffffffffffffffffffffffffff16815260200190815260200160002060006101000a81548160ff0219169083151502179055508173ffffffffffffffffffffffffffffffffffffffff16611b06612611565b73ffffffffffffffffffffffffffffffffffffffff167f17307eab39ab6107e8899845ad3d59bd9653f200f220920489ca2b5937696c3183604051611b4b91906140f6565b60405180910390a35050565b600a8060000154905081565b600b60009054906101000a900473ffffffffffffffffffffffffffffffffffffffff1681565b611b9a611b94612611565b836126e0565b611bd9576040517f08c379a0000000000000000000000000000000000000000000000000000000008152600401611bd090614373565b60405180910390fd5b611be584848484612bfe565b50505050565b6060611bf6826125a5565b611c35576040517f08c379a0000000000000000000000000000000000000000000000000000000008152600401611c2c90614313565b60405180910390fd5b6000611c3f612c5a565b90506000815111611c5f5760405180602001604052806000815250611c8a565b80611c6984612c71565b604051602001611c7a929190614049565b6040516020818303038152906040525b915050919050565b60006060600080600d6000868152602001908152602001600020600001549350600d60008681526020019081526020016000206001018054611cd3906147a3565b80601f0160208091040260200160405190810160405280929190818152602001828054611cff906147a3565b8015611d4c5780601f10611d2157610100808354040283529160200191611d4c565b820191906000526020600020905b815481529060010190602001808311611d2f57829003601f168201915b50505050509250600d600086815260200190815260200160002060020160009054906101000a900460ff169150600d60008681526020019081526020016000206003015490509193509193565b6000611da4826125a5565b611de3576040517f08c379a0000000000000000000000000000000000000000000000000000000008152600401611dda906142d3565b60405180910390fd5b611dec82611704565b73ffffffffffffffffffffffffffffffffffffffff163373ffffffffffffffffffffffffffffffffffffffff1614611e59576040517f08c379a0000000000000000000000000000000000000000000000000000000008152600401611e5090614353565b60405180910390fd5b611e6282612e1e565b60019050919050565b6000600560008473ffffffffffffffffffffffffffffffffffffffff1673ffffffffffffffffffffffffffffffffffffffff16815260200190815260200160002060008373ffffffffffffffffffffffffffffffffffffffff1673ffffffffffffffffffffffffffffffffffffffff16815260200190815260200160002060009054906101000a900460ff16905092915050565b600d6000828152602001908152602001600020600001543414611f57576040517f08c379a0000000000000000000000000000000000000000000000000000000008152600401611f4e906143b3565b60405180910390fd5b600d600082815260200190815260200160002060020160009054906101000a900460ff16611fba576040517f08c379a0000000000000000000000000000000000000000000000000000000008152600401611fb190614413565b60405180910390fd5b6000611fc582611704565b9050611fd28133846127be565b8073ffffffffffffffffffffffffffffffffffffffff166108fc349081150290604051600060405180830381858888f19350505050158015612018573d6000803e3d6000fd5b506000600d600084815260200190815260200160002060020160006101000a81548160ff021916908315150217905550600c600081548092919061205b90614779565b91905055505050565b60606000612072600a6126d2565b905060008060008667ffffffffffffffff8111156120b9577f4e487b7100000000000000000000000000000000000000000000000000000000600052604160045260246000fd5b6040519080825280602002602001820160405280156120f257816020015b6120df6135d4565b8152602001906001900390816120d75790505b50905060005b848110156122b357600d600082815260200190815260200160002060020160009054906101000a900460ff16156122a057828061213490614806565b93505086886121439190614635565b831061227b57600d600082815260200190815260200160002060405180608001604052908160008201548152602001600182018054612181906147a3565b80601f01602080910402602001604051908101604052809291908181526020018280546121ad906147a3565b80156121fa5780601f106121cf576101008083540402835291602001916121fa565b820191906000526020600020905b8154815290600101906020018083116121dd57829003601f168201915b505050505081526020016002820160009054906101000a900460ff16151515158152602001600382015481525050828581518110612261577f4e487b7100000000000000000000000000000000000000000000000000000000600052603260045260246000fd5b6020026020010181905250838061227790614806565b9450505b60018761228891906145ae565b886122939190614635565b83141561229f576122b3565b5b80806122ab90614806565b9150506120f8565b508094505050505092915050565b6060600083836122d19190614635565b905060008467ffffffffffffffff811115612315577f4e487b7100000000000000000000000000000000000000000000000000000000600052604160045260246000fd5b60405190808252806020026020018201604052801561234e57816020015b61233b6135d4565b8152602001906001900390816123335790505b50905060008290505b60018561236491906145ae565b8661236f9190614635565b8110156124b757600d6000828152602001908152602001600020604051806080016040529081600082015481526020016001820180546123ae906147a3565b80601f01602080910402602001604051908101604052809291908181526020018280546123da906147a3565b80156124275780601f106123fc57610100808354040283529160200191612427565b820191906000526020600020905b81548152906001019060200180831161240a57829003601f168201915b505050505081526020016002820160009054906101000a900460ff16151515158152602001600382015481525050828483612462919061468f565b81518110612499577f4e487b7100000000000000000000000000000000000000000000000000000000600052603260045260246000fd5b602002602001018190525080806124af90614806565b915050612357565b50809250505092915050565b60007f80ac58cd000000000000000000000000000000000000000000000000000000007bffffffffffffffffffffffffffffffffffffffffffffffffffffffff1916827bffffffffffffffffffffffffffffffffffffffffffffffffffffffff1916148061258e57507f5b5e139f000000000000000000000000000000000000000000000000000000007bffffffffffffffffffffffffffffffffffffffffffffffffffffffff1916827bffffffffffffffffffffffffffffffffffffffffffffffffffffffff1916145b8061259e575061259d82612f2f565b5b9050919050565b60008073ffffffffffffffffffffffffffffffffffffffff166002600084815260200190815260200160002060009054906101000a900473ffffffffffffffffffffffffffffffffffffffff1673ffffffffffffffffffffffffffffffffffffffff1614159050919050565b600033905090565b816004600083815260200190815260200160002060006101000a81548173ffffffffffffffffffffffffffffffffffffffff021916908373ffffffffffffffffffffffffffffffffffffffff160217905550808273ffffffffffffffffffffffffffffffffffffffff1661268c83611704565b73ffffffffffffffffffffffffffffffffffffffff167f8c5be1e5ebec7d5bd14f71427d1e84f3dd0314c0f7b2291e5b200ac8c7c3b92560405160405180910390a45050565b600081600001549050919050565b60006126eb826125a5565b61272a576040517f08c379a0000000000000000000000000000000000000000000000000000000008152600401612721906141f3565b60405180910390fd5b600061273583611704565b90508073ffffffffffffffffffffffffffffffffffffffff168473ffffffffffffffffffffffffffffffffffffffff1614806127a457508373ffffffffffffffffffffffffffffffffffffffff1661278c8461096f565b73ffffffffffffffffffffffffffffffffffffffff16145b806127b557506127b48185611e6b565b5b91505092915050565b8273ffffffffffffffffffffffffffffffffffffffff166127de82611704565b73ffffffffffffffffffffffffffffffffffffffff1614612834576040517f08c379a000000000000000000000000000000000000000000000000000000000815260040161282b906142f3565b60405180910390fd5b600073ffffffffffffffffffffffffffffffffffffffff168273ffffffffffffffffffffffffffffffffffffffff1614156128a4576040517f08c379a000000000000000000000000000000000000000000000000000000000815260040161289b90614193565b60405180910390fd5b6128af838383612f99565b6128ba600082612619565b6001600360008573ffffffffffffffffffffffffffffffffffffffff1673ffffffffffffffffffffffffffffffffffffffff168152602001908152602001600020600082825461290a919061468f565b925050819055506001600360008473ffffffffffffffffffffffffffffffffffffffff1673ffffffffffffffffffffffffffffffffffffffff168152602001908152602001600020600082825461296191906145ae565b92505081905550816002600083815260200190815260200160002060006101000a81548173ffffffffffffffffffffffffffffffffffffffff021916908373ffffffffffffffffffffffffffffffffffffffff160217905550808273ffffffffffffffffffffffffffffffffffffffff168473ffffffffffffffffffffffffffffffffffffffff167fddf252ad1be2c89b69c2b068fc378daa952ba7f163c4a11628f55a4df523b3ef60405160405180910390a4505050565b6001816000016000828254019250508190555050565b600073ffffffffffffffffffffffffffffffffffffffff168273ffffffffffffffffffffffffffffffffffffffff161415612aa0576040517f08c379a0000000000000000000000000000000000000000000000000000000008152600401612a9790614293565b60405180910390fd5b612aa9816125a5565b15612ae9576040517f08c379a0000000000000000000000000000000000000000000000000000000008152600401612ae090614173565b60405180910390fd5b612af560008383612f99565b6001600360008473ffffffffffffffffffffffffffffffffffffffff1673ffffffffffffffffffffffffffffffffffffffff1681526020019081526020016000206000828254612b4591906145ae565b92505081905550816002600083815260200190815260200160002060006101000a81548173ffffffffffffffffffffffffffffffffffffffff021916908373ffffffffffffffffffffffffffffffffffffffff160217905550808273ffffffffffffffffffffffffffffffffffffffff16600073ffffffffffffffffffffffffffffffffffffffff167fddf252ad1be2c89b69c2b068fc378daa952ba7f163c4a11628f55a4df523b3ef60405160405180910390a45050565b612c098484846127be565b612c15848484846130ad565b612c54576040517f08c379a0000000000000000000000000000000000000000000000000000000008152600401612c4b90614153565b60405180910390fd5b50505050565b606060405180602001604052806000815250905090565b60606000821415612cb9576040518060400160405280600181526020017f30000000000000000000000000000000000000000000000000000000000000008152509050612e19565b600082905060005b60008214612ceb578080612cd490614806565b915050600a82612ce49190614604565b9150612cc1565b60008167ffffffffffffffff811115612d2d577f4e487b7100000000000000000000000000000000000000000000000000000000600052604160045260246000fd5b6040519080825280601f01601f191660200182016040528015612d5f5781602001600182028036833780820191505090505b5090505b60008514612e1257600182612d78919061468f565b9150600a85612d87919061484f565b6030612d9391906145ae565b60f81b818381518110612dcf577f4e487b7100000000000000000000000000000000000000000000000000000000600052603260045260246000fd5b60200101907effffffffffffffffffffffffffffffffffffffffffffffffffffffffffffff1916908160001a905350600a85612e0b9190614604565b9450612d63565b8093505050505b919050565b6000612e2982611704565b9050612e3781600084612f99565b612e42600083612619565b6001600360008373ffffffffffffffffffffffffffffffffffffffff1673ffffffffffffffffffffffffffffffffffffffff1681526020019081526020016000206000828254612e92919061468f565b925050819055506002600083815260200190815260200160002060006101000a81549073ffffffffffffffffffffffffffffffffffffffff021916905581600073ffffffffffffffffffffffffffffffffffffffff168273ffffffffffffffffffffffffffffffffffffffff167fddf252ad1be2c89b69c2b068fc378daa952ba7f163c4a11628f55a4df523b3ef60405160405180910390a45050565b60007f01ffc9a7000000000000000000000000000000000000000000000000000000007bffffffffffffffffffffffffffffffffffffffffffffffffffffffff1916827bffffffffffffffffffffffffffffffffffffffffffffffffffffffff1916149050919050565b612fa4838383613244565b600073ffffffffffffffffffffffffffffffffffffffff168373ffffffffffffffffffffffffffffffffffffffff161415612fe757612fe281613249565b613026565b8173ffffffffffffffffffffffffffffffffffffffff168373ffffffffffffffffffffffffffffffffffffffff1614613025576130248382613292565b5b5b600073ffffffffffffffffffffffffffffffffffffffff168273ffffffffffffffffffffffffffffffffffffffff16141561306957613064816133ff565b6130a8565b8273ffffffffffffffffffffffffffffffffffffffff168273ffffffffffffffffffffffffffffffffffffffff16146130a7576130a68282613542565b5b5b505050565b60006130ce8473ffffffffffffffffffffffffffffffffffffffff166135c1565b15613237578373ffffffffffffffffffffffffffffffffffffffff1663150b7a026130f7612611565b8786866040518563ffffffff1660e01b81526004016131199493929190614088565b602060405180830381600087803b15801561313357600080fd5b505af192505050801561316457506040513d601f19601f820116820180604052508101906131619190613a60565b60015b6131e7573d8060008114613194576040519150601f19603f3d011682016040523d82523d6000602084013e613199565b606091505b506000815114156131df576040517f08c379a00000000000000000000000000000000000000000000000000000000081526004016131d690614153565b60405180910390fd5b805181602001fd5b63150b7a0260e01b7bffffffffffffffffffffffffffffffffffffffffffffffffffffffff1916817bffffffffffffffffffffffffffffffffffffffffffffffffffffffff19161491505061323c565b600190505b949350505050565b505050565b6008805490506009600083815260200190815260200160002081905550600881908060018154018082558091505060019003906000526020600020016000909190919091505550565b6000600161329f846117b6565b6132a9919061468f565b905060006007600084815260200190815260200160002054905081811461338e576000600660008673ffffffffffffffffffffffffffffffffffffffff1673ffffffffffffffffffffffffffffffffffffffff168152602001908152602001600020600084815260200190815260200160002054905080600660008773ffffffffffffffffffffffffffffffffffffffff1673ffffffffffffffffffffffffffffffffffffffff168152602001908152602001600020600084815260200190815260200160002081905550816007600083815260200190815260200160002081905550505b6007600084815260200190815260200160002060009055600660008573ffffffffffffffffffffffffffffffffffffffff1673ffffffffffffffffffffffffffffffffffffffff16815260200190815260200160002060008381526020019081526020016000206000905550505050565b60006001600880549050613413919061468f565b9050600060096000848152602001908152602001600020549050600060088381548110613469577f4e487b7100000000000000000000000000000000000000000000000000000000600052603260045260246000fd5b9060005260206000200154905080600883815481106134b1577f4e487b7100000000000000000000000000000000000000000000000000000000600052603260045260246000fd5b906000526020600020018190555081600960008381526020019081526020016000208190555060096000858152602001908152602001600020600090556008805480613526577f4e487b7100000000000000000000000000000000000000000000000000000000600052603160045260246000fd5b6001900381819060005260206000200160009055905550505050565b600061354d836117b6565b905081600660008573ffffffffffffffffffffffffffffffffffffffff1673ffffffffffffffffffffffffffffffffffffffff168152602001908152602001600020600083815260200190815260200160002081905550806007600084815260200190815260200160002081905550505050565b600080823b905060008111915050919050565b60405180608001604052806000815260200160608152602001600015158152602001600081525090565b82805461360a906147a3565b90600052602060002090601f01602090048101928261362c5760008555613673565b82601f1061364557805160ff1916838001178555613673565b82800160010185558215613673579182015b82811115613672578251825591602001919060010190613657565b5b5090506136809190613684565b5090565b5b8082111561369d576000816000905550600101613685565b5090565b60006136b46136af846144bf565b61449a565b9050828152602081018484840111156136cc57600080fd5b6136d7848285614737565b509392505050565b60006136f26136ed846144f0565b61449a565b90508281526020810184848401111561370a57600080fd5b613715848285614737565b509392505050565b60008135905061372c81614fd1565b92915050565b60008135905061374181614fe8565b92915050565b60008135905061375681614fff565b92915050565b60008151905061376b81614fff565b92915050565b600082601f83011261378257600080fd5b81356137928482602086016136a1565b91505092915050565b600082601f8301126137ac57600080fd5b81356137bc8482602086016136df565b91505092915050565b6000813590506137d481615016565b92915050565b6000602082840312156137ec57600080fd5b60006137fa8482850161371d565b91505092915050565b6000806040838503121561381657600080fd5b60006138248582860161371d565b92505060206138358582860161371d565b9150509250929050565b60008060006060848603121561385457600080fd5b60006138628682870161371d565b93505060206138738682870161371d565b9250506040613884868287016137c5565b9150509250925092565b600080600080608085870312156138a457600080fd5b60006138b28782880161371d565b94505060206138c38782880161371d565b93505060406138d4878288016137c5565b925050606085013567ffffffffffffffff8111156138f157600080fd5b6138fd87828801613771565b91505092959194509250565b6000806040838503121561391c57600080fd5b600061392a8582860161371d565b925050602061393b85828601613732565b9150509250929050565b60008060006060848603121561395a57600080fd5b60006139688682870161371d565b935050602084013567ffffffffffffffff81111561398557600080fd5b6139918682870161379b565b92505060406139a2868287016137c5565b9150509250925092565b600080604083850312156139bf57600080fd5b60006139cd8582860161371d565b92505060206139de858286016137c5565b9150509250929050565b6000806000606084860312156139fd57600080fd5b6000613a0b8682870161371d565b9350506020613a1c868287016137c5565b9250506040613a2d868287016137c5565b9150509250925092565b600060208284031215613a4957600080fd5b6000613a5784828501613747565b91505092915050565b600060208284031215613a7257600080fd5b6000613a808482850161375c565b91505092915050565b600060208284031215613a9b57600080fd5b6000613aa9848285016137c5565b91505092915050565b60008060408385031215613ac557600080fd5b6000613ad3858286016137c5565b9250506020613ae4858286016137c5565b9150509250929050565b6000613afa8383613fc8565b905092915050565b613b0b816146c3565b82525050565b6000613b1c82614531565b613b26818561455f565b935083602082028501613b3885614521565b8060005b85811015613b745784840389528151613b558582613aee565b9450613b6083614552565b925060208a01995050600181019050613b3c565b50829750879550505050505092915050565b613b8f816146d5565b82525050565b613b9e816146d5565b82525050565b6000613baf8261453c565b613bb98185614570565b9350613bc9818560208601614746565b613bd28161493c565b840191505092915050565b6000613be882614547565b613bf28185614581565b9350613c02818560208601614746565b613c0b8161493c565b840191505092915050565b6000613c2182614547565b613c2b8185614592565b9350613c3b818560208601614746565b613c448161493c565b840191505092915050565b6000613c5a82614547565b613c6481856145a3565b9350613c74818560208601614746565b80840191505092915050565b6000613c8d602b83614592565b9150613c988261494d565b604082019050919050565b6000613cb0603283614592565b9150613cbb8261499c565b604082019050919050565b6000613cd3601c83614592565b9150613cde826149eb565b602082019050919050565b6000613cf6602483614592565b9150613d0182614a14565b604082019050919050565b6000613d19601983614592565b9150613d2482614a63565b602082019050919050565b6000613d3c602a83614592565b9150613d4782614a8c565b604082019050919050565b6000613d5f602c83614592565b9150613d6a82614adb565b604082019050919050565b6000613d82603883614592565b9150613d8d82614b2a565b604082019050919050565b6000613da5602a83614592565b9150613db082614b79565b604082019050919050565b6000613dc8602983614592565b9150613dd382614bc8565b604082019050919050565b6000613deb602683614592565b9150613df682614c17565b604082019050919050565b6000613e0e602083614592565b9150613e1982614c66565b602082019050919050565b6000613e31602c83614592565b9150613e3c82614c8f565b604082019050919050565b6000613e54602683614592565b9150613e5f82614cde565b604082019050919050565b6000613e77602983614592565b9150613e8282614d2d565b604082019050919050565b6000613e9a602f83614592565b9150613ea582614d7c565b604082019050919050565b6000613ebd602183614592565b9150613ec882614dcb565b604082019050919050565b6000613ee0601a83614592565b9150613eeb82614e1a565b602082019050919050565b6000613f03603183614592565b9150613f0e82614e43565b604082019050919050565b6000613f26602c83614592565b9150613f3182614e92565b604082019050919050565b6000613f49601483614592565b9150613f5482614ee1565b602082019050919050565b6000613f6c601283614592565b9150613f7782614f0a565b602082019050919050565b6000613f8f602383614592565b9150613f9a82614f33565b604082019050919050565b6000613fb2602483614592565b9150613fbd82614f82565b604082019050919050565b6000608083016000830151613fe0600086018261402b565b5060208301518482036020860152613ff88282613bdd565b915050604083015161400d6040860182613b86565b506060830151614020606086018261402b565b508091505092915050565b6140348161472d565b82525050565b6140438161472d565b82525050565b60006140558285613c4f565b91506140618284613c4f565b91508190509392505050565b60006020820190506140826000830184613b02565b92915050565b600060808201905061409d6000830187613b02565b6140aa6020830186613b02565b6140b7604083018561403a565b81810360608301526140c98184613ba4565b905095945050505050565b600060208201905081810360008301526140ee8184613b11565b905092915050565b600060208201905061410b6000830184613b95565b92915050565b6000602082019050818103600083015261412b8184613c16565b905092915050565b6000602082019050818103600083015261414c81613c80565b9050919050565b6000602082019050818103600083015261416c81613ca3565b9050919050565b6000602082019050818103600083015261418c81613cc6565b9050919050565b600060208201905081810360008301526141ac81613ce9565b9050919050565b600060208201905081810360008301526141cc81613d0c565b9050919050565b600060208201905081810360008301526141ec81613d2f565b9050919050565b6000602082019050818103600083015261420c81613d52565b9050919050565b6000602082019050818103600083015261422c81613d75565b9050919050565b6000602082019050818103600083015261424c81613d98565b9050919050565b6000602082019050818103600083015261426c81613dbb565b9050919050565b6000602082019050818103600083015261428c81613dde565b9050919050565b600060208201905081810360008301526142ac81613e01565b9050919050565b600060208201905081810360008301526142cc81613e24565b9050919050565b600060208201905081810360008301526142ec81613e47565b9050919050565b6000602082019050818103600083015261430c81613e6a565b9050919050565b6000602082019050818103600083015261432c81613e8d565b9050919050565b6000602082019050818103600083015261434c81613eb0565b9050919050565b6000602082019050818103600083015261436c81613ed3565b9050919050565b6000602082019050818103600083015261438c81613ef6565b9050919050565b600060208201905081810360008301526143ac81613f19565b9050919050565b600060208201905081810360008301526143cc81613f3c565b9050919050565b600060208201905081810360008301526143ec81613f5f565b9050919050565b6000602082019050818103600083015261440c81613f82565b9050919050565b6000602082019050818103600083015261442c81613fa5565b9050919050565b6000602082019050614448600083018461403a565b92915050565b6000608082019050614463600083018761403a565b81810360208301526144758186613c16565b90506144846040830185613b95565b614491606083018461403a565b95945050505050565b60006144a46144b5565b90506144b082826147d5565b919050565b6000604051905090565b600067ffffffffffffffff8211156144da576144d961490d565b5b6144e38261493c565b9050602081019050919050565b600067ffffffffffffffff82111561450b5761450a61490d565b5b6145148261493c565b9050602081019050919050565b6000819050602082019050919050565b600081519050919050565b600081519050919050565b600081519050919050565b6000602082019050919050565b600082825260208201905092915050565b600082825260208201905092915050565b600082825260208201905092915050565b600082825260208201905092915050565b600081905092915050565b60006145b98261472d565b91506145c48361472d565b9250827fffffffffffffffffffffffffffffffffffffffffffffffffffffffffffffffff038211156145f9576145f8614880565b5b828201905092915050565b600061460f8261472d565b915061461a8361472d565b92508261462a576146296148af565b5b828204905092915050565b60006146408261472d565b915061464b8361472d565b9250817fffffffffffffffffffffffffffffffffffffffffffffffffffffffffffffffff048311821515161561468457614683614880565b5b828202905092915050565b600061469a8261472d565b91506146a58361472d565b9250828210156146b8576146b7614880565b5b828203905092915050565b60006146ce8261470d565b9050919050565b60008115159050919050565b60007fffffffff0000000000000000000000000000000000000000000000000000000082169050919050565b600073ffffffffffffffffffffffffffffffffffffffff82169050919050565b6000819050919050565b82818337600083830152505050565b60005b83811015614764578082015181840152602081019050614749565b83811115614773576000848401525b50505050565b60006147848261472d565b9150600082141561479857614797614880565b5b600182039050919050565b600060028204905060018216806147bb57607f821691505b602082108114156147cf576147ce6148de565b5b50919050565b6147de8261493c565b810181811067ffffffffffffffff821117156147fd576147fc61490d565b5b80604052505050565b60006148118261472d565b91507fffffffffffffffffffffffffffffffffffffffffffffffffffffffffffffffff82141561484457614843614880565b5b600182019050919050565b600061485a8261472d565b91506148658361472d565b925082614875576148746148af565b5b828206905092915050565b7f4e487b7100000000000000000000000000000000000000000000000000000000600052601160045260246000fd5b7f4e487b7100000000000000000000000000000000000000000000000000000000600052601260045260246000fd5b7f4e487b7100000000000000000000000000000000000000000000000000000000600052602260045260246000fd5b7f4e487b7100000000000000000000000000000000000000000000000000000000600052604160045260246000fd5b6000601f19601f8301169050919050565b7f455243373231456e756d657261626c653a206f776e657220696e646578206f7560008201527f74206f6620626f756e6473000000000000000000000000000000000000000000602082015250565b7f4552433732313a207472616e7366657220746f206e6f6e20455243373231526560008201527f63656976657220696d706c656d656e7465720000000000000000000000000000602082015250565b7f4552433732313a20746f6b656e20616c7265616479206d696e74656400000000600082015250565b7f4552433732313a207472616e7366657220746f20746865207a65726f2061646460008201527f7265737300000000000000000000000000000000000000000000000000000000602082015250565b7f4552433732313a20617070726f766520746f2063616c6c657200000000000000600082015250565b7f456c20746f6b656e2071756520696e74656e746173207472616e73666572697260008201527f206e6f2065786973746500000000000000000000000000000000000000000000602082015250565b7f4552433732313a206f70657261746f7220717565727920666f72206e6f6e657860008201527f697374656e7420746f6b656e0000000000000000000000000000000000000000602082015250565b7f4552433732313a20617070726f76652063616c6c6572206973206e6f74206f7760008201527f6e6572206e6f7220617070726f76656420666f7220616c6c0000000000000000602082015250565b7f4552433732313a2062616c616e636520717565727920666f7220746865207a6560008201527f726f206164647265737300000000000000000000000000000000000000000000602082015250565b7f4552433732313a206f776e657220717565727920666f72206e6f6e657869737460008201527f656e7420746f6b656e0000000000000000000000000000000000000000000000602082015250565b7f736f6c6f20656c206475656e6f2064656c20746f6b656e20707565646520766560008201527f6e6465726c6f0000000000000000000000000000000000000000000000000000602082015250565b7f4552433732313a206d696e7420746f20746865207a65726f2061646472657373600082015250565b7f4552433732313a20617070726f76656420717565727920666f72206e6f6e657860008201527f697374656e7420746f6b656e0000000000000000000000000000000000000000602082015250565b7f456c20746f6b656e2071756520696e74656e746173207175656d6172206e6f2060008201527f6578697374650000000000000000000000000000000000000000000000000000602082015250565b7f4552433732313a207472616e73666572206f6620746f6b656e2074686174206960008201527f73206e6f74206f776e0000000000000000000000000000000000000000000000602082015250565b7f4552433732314d657461646174613a2055524920717565727920666f72206e6f60008201527f6e6578697374656e7420746f6b656e0000000000000000000000000000000000602082015250565b7f4552433732313a20617070726f76616c20746f2063757272656e74206f776e6560008201527f7200000000000000000000000000000000000000000000000000000000000000602082015250565b7f4573746520746f6b656e206e6f2074652070657274656e656365000000000000600082015250565b7f4552433732313a207472616e736665722063616c6c6572206973206e6f74206f60008201527f776e6572206e6f7220617070726f766564000000000000000000000000000000602082015250565b7f455243373231456e756d657261626c653a20676c6f62616c20696e646578206f60008201527f7574206f6620626f756e64730000000000000000000000000000000000000000602082015250565b7f666f6e646f7320696e737566696369656e746573000000000000000000000000600082015250565b7f6e6f20686179206e667473206772617469730000000000000000000000000000600082015250565b7f65736520746f6b656e20746f6461766961206e6f206861207369646f2063726560008201527f61646f0000000000000000000000000000000000000000000000000000000000602082015250565b7f6e6f20736520656e6375656e7472612061206c612076656e746120657365207460008201527f6f6b656e00000000000000000000000000000000000000000000000000000000602082015250565b614fda816146c3565b8114614fe557600080fd5b50565b614ff1816146d5565b8114614ffc57600080fd5b50565b615008816146e1565b811461501357600080fd5b50565b61501f8161472d565b811461502a57600080fd5b5056fea2646970667358221220c387c1fa813875b52c04dcc637dd8a10e7757e9545ceed796552b485420d9ab064736f6c63430008010033",
  "immutableReferences": {},
  "source": "// SPDX-License-Identifier: MIT\r\npragma solidity >=0.4.22 <0.9.0;\r\nimport \"@openzeppelin/contracts/token/ERC721/ERC721.sol\";\r\nimport \"@openzeppelin/contracts/token/ERC721/extensions/ERC721Enumerable.sol\";\r\nimport \"@openzeppelin/contracts/utils/Counters.sol\";\r\n\r\ncontract MarketPlace is ERC721Enumerable {\r\n    using Counters for Counters.Counter;\r\n    //representa un entero que lleva la cuenta de los tokensNFT\r\n    Counters.Counter public _tokenIds;\r\n\r\n    //matenera el dueo del contrato o quien lo mino\r\n    address public minero;\r\n\r\n    //es el numero de tokens en venta\r\n    uint256 public nTokenOnSale;\r\n    // es la representacion de un token\r\n    struct tokenData {\r\n        uint256 price;\r\n        string data;\r\n        bool onSale;\r\n        uint256 tokenID;\r\n    }\r\n\r\n    //contiene todas las representacion de cada token\r\n    mapping(uint256 => tokenData) public tokensData;\r\n\r\n    constructor() ERC721(\"MarketPlace\", \"MPE\") {\r\n        minero = msg.sender;\r\n    }\r\n\r\n    /**\r\n    mina nuevos tokens\r\n\t@param receptor {address} es a quien mandaremos el  token \r\n\t@param datos    {string} es un json con todos los datos del token\r\n\t@param price    {uint256} the price in weis\r\n    @return {uint256} equivale a el tokenid recien creado\r\n\t */\r\n    function minar(\r\n        address receptor,\r\n        string memory datos,\r\n        uint256 price\r\n    ) public returns (uint256) {\r\n        //obtener el tokenid actual\r\n        uint256 newItemId = _tokenIds.current();\r\n\r\n        //aumentar en 1 el conteo de tokens\r\n        _tokenIds.increment();\r\n\r\n        //minar el token\r\n        _mint(receptor, newItemId);\r\n\r\n        //agregar los datos a nuestro mapping\r\n        tokensData[newItemId].data = datos;\r\n        tokensData[newItemId].price = price;\r\n        tokensData[newItemId].onSale = true;\r\n        tokensData[newItemId].tokenID = newItemId;\r\n\r\n        //agregar a la venta el nuevo token\r\n        nTokenOnSale++;\r\n        return newItemId;\r\n    }\r\n\r\n    /**\r\n    * Funcin para transferir un token NFT del propietario a otro address\r\n    @param to {address} representa a quien vamos a transferir nuestro NFT\r\n    @param tokenId {uint256} este valor indica el id que vamos a transferir \r\n    @return {addresss}  esta funcin nos retorna el address del nuevo propietario del NFT\r\n     */\r\n\r\n    function transferirNft(address to, uint256 tokenId)\r\n        public\r\n        returns (address)\r\n    {\r\n        require(_exists(tokenId), \"El token que intentas transferir no existe\");\r\n        require(msg.sender == ownerOf(tokenId), \"Este token no te pertenece\");\r\n\r\n        //transferir el token NFT si el token id existe y es nuestro\r\n        safeTransferFrom(msg.sender, to, tokenId);\r\n        //retornar el nuevo owner del token NFT\r\n        return to;\r\n    }\r\n\r\n    /** \r\n    * Funcin para eliminar un token NFT en tu address\r\n    @param tokenId {uint256} representa el id del token NFT a eliminar\r\n    @return {success} si el proceso fue llevado con exito la funcion retorna un true\r\n     */\r\n    function quemarNft(uint256 tokenId) public returns (bool) {\r\n        require(_exists(tokenId), \"El token que intentas quemar no existe\");\r\n        require(msg.sender == ownerOf(tokenId), \"Este token no te pertenece\");\r\n\r\n        //Eliminamos el token NFT si el token id existe y es nuestro\r\n        _burn(tokenId);\r\n\r\n        return true;\r\n    }\r\n\r\n    /**\r\n     * pone a la venta un token y si le das el precio lo cambia\r\n     *@param tokenid {uint256} representa el identificador del tokenid\r\n     *@param price  {uint256} representa el precio en wei al que se vendera\r\n     *\r\n     */\r\n    function revender(uint256 tokenid, uint256 price) public {\r\n        require(\r\n            ownerOf(tokenid) == msg.sender,\r\n            \"solo el dueno del token puede venderlo\"\r\n        );\r\n        require(price > 0, \"no hay nfts gratis\");\r\n        tokensData[tokenid].onSale = true;\r\n        tokensData[tokenid].price = price;\r\n        nTokenOnSale++;\r\n    }\r\n\r\n    /**\r\n     *cambia el estado del token para que este no pueda ser visualizado o vendido\r\n     *@param tokenid {uint256} tokenid representa el token al cual afectar\r\n     */\r\n    function quitarDelMarketPlace(uint256 tokenid) public {\r\n        //este require solo permite que el owner del tokenid pueda usar la funcion\r\n        require(\r\n            ownerOf(tokenid) == msg.sender,\r\n            \"solo el dueno del token puede venderlo\"\r\n        );\r\n        // impide que accedamos a una posicion inexistente\r\n        require(\r\n            tokenid < _tokenIds.current(),\r\n            \"ese token todavia no ha sido creado\"\r\n        );\r\n        tokensData[tokenid].onSale = false;\r\n        nTokenOnSale--;\r\n    }\r\n\r\n    /**\r\n     *regresa todos los nft disponibles\r\n     *@return tokenData[] contiene todos los tokens disponibles\r\n     */\r\n    function obtenerNfts() public view returns (tokenData[] memory) {\r\n        //es el numero de tokens\r\n        uint256 nTokens = _tokenIds.current();\r\n        //es un arreglo temporal con todos los nfts\r\n        tokenData[] memory onSaleTokensData = new tokenData[](nTokens);\r\n        //sacamos los nft del mapping y los almacenamos en el arreglo\r\n        for (uint256 index = 0; index < nTokens; index++) {\r\n            onSaleTokensData[index] = tokensData[index];\r\n        }\r\n\r\n        return onSaleTokensData;\r\n    }\r\n\r\n    /**\r\n     *trata a tokensData como un arreglo divido entre nTokenP\r\n     * el inicio de una pagina es el numero de pagina por el numero de tokens por pagina\r\n     * @param nTokenP uint256 es el numero de tokens que tiene una pagina\r\n     * @param nPagina contiene que pagina vamos a consultar\r\n     *@return tokenData[] contiene los tokens de una pagina\r\n     */\r\n    function obtenerPaginav1(uint256 nTokenP, uint256 nPagina)\r\n        public\r\n        view\r\n        returns (tokenData[] memory)\r\n    {\r\n        //es el incio del ciclo o el inicio de  la pagina\r\n        uint256 inicioPagina = nPagina * nTokenP;\r\n        //es un arreglo temporal con todos los nfts de la pagina\r\n        tokenData[] memory onSaleTokensData = new tokenData[](nTokenP);\r\n        //sacamos los nft y los almacenamos en el arreglo\r\n        for (\r\n            uint256 index = inicioPagina;\r\n            index < nTokenP * (nPagina + 1);\r\n            index++\r\n        ) {\r\n            //agregar tokens al arreglo\r\n            onSaleTokensData[index - inicioPagina] = tokensData[index];\r\n        }\r\n\r\n        return onSaleTokensData;\r\n    }\r\n\r\n    /**\r\n     *nos regresa los tokens que estan en venta hasta que se llene el arreglo o termine el ciclo\r\n     * espera a llenar el contador hasta que es el incio de la pagina que solicito\r\n     * @param nTokenP uint256 es el numero de tokens que tiene una pagina\r\n     * @param nPagina contiene que pagina vamos a consultar\r\n     *@return tokenData[] contiene los tokens de una pagina\r\n     */\r\n    function obtenerPaginav2(uint256 nTokenP, uint256 nPagina)\r\n        public\r\n        view\r\n        returns (tokenData[] memory)\r\n    {\r\n        //es el numero de tokens\r\n        uint256 nTokens = _tokenIds.current();\r\n        //es la posicion del el ultimo token agregado a onsaletokendata\r\n        uint256 lastToken = 0;\r\n        //cuenta cuantos tokens en venta van\r\n        uint256 ostok = 0;\r\n        //a partir de cuantos tokens comienza\r\n        //es un arreglo temporal con todos los nfts de la pagina\r\n        tokenData[] memory onSaleTokensData = new tokenData[](nTokenP);\r\n        //sacamos los nft y los almacenamos en el arreglo\r\n        for (uint256 index = 0; index < nTokens; index++) {\r\n            //si esta en venta\r\n            if (tokensData[index].onSale) {\r\n                //aumentamos el numero de tokens que estan a la venta\r\n                ostok++;\r\n                //si el numero de tokens es mayor o igual al incio de la pagina comenzamos a agregar tokens al arreglo\r\n                if (ostok >= nTokenP * nPagina) {\r\n                    onSaleTokensData[lastToken] = tokensData[index];\r\n                    lastToken++;\r\n                }\r\n                //si el numero de tokens llega al fin de la pagina cancelamos el for\r\n                if (ostok == nTokenP * (nPagina + 1)) break;\r\n            }\r\n            //agregar tokens al arreglo\r\n        }\r\n\r\n        return onSaleTokensData;\r\n    }\r\n\r\n    /**\r\n     *con esta funcion cualquiera puede comprar el nft que desea\r\n     *@param tokenId {uint256} tokenid representa el tokenid a comprar\r\n     */\r\n    function comprarNft(uint256 tokenId) public payable {\r\n        //este require se asegura que se mando el suficiente ether para comprar el token\r\n        require(msg.value == tokensData[tokenId].price, \"fondos insuficientes\");\r\n        //se impide la venta si no esta en venta el token\r\n        require(\r\n            tokensData[tokenId].onSale,\r\n            \"no se encuentra a la venta ese token\"\r\n        );\r\n        //es el dueo del token\r\n        address payable tokenOwner = payable(ownerOf(tokenId));\r\n\r\n        //mandamos el token al comprador\r\n        _transfer(tokenOwner, msg.sender, tokenId);\r\n\r\n        //le transferimos el dinero al  vendedor\r\n        tokenOwner.transfer(msg.value);\r\n\r\n        //poner el token en pausa\r\n        tokensData[tokenId].onSale = false;\r\n\r\n        nTokenOnSale--;\r\n    }\r\n\r\n    /**\r\n     * @param owner {address}  representa la direccin al cual consultar los tokens\r\n     * @return tokenData[] arreglo con todos los datos de cada token\r\n     */\r\n    function tokensOf(address owner) public view returns (tokenData[] memory) {\r\n        //numero de tokens\r\n        uint256 nTokens = balanceOf(owner);\r\n        if (nTokens == 0) {\r\n            return (new tokenData[](nTokens));\r\n        }\r\n        //arreglo con los tokens\r\n        tokenData[] memory userTokens = new tokenData[](nTokens);\r\n\r\n        for (uint256 i = 0; i < nTokens; i++) {\r\n            //obtener los datos de cada uno de los tokens\r\n            userTokens[i] = tokensData[tokenOfOwnerByIndex(owner, i)];\r\n        }\r\n        return (userTokens);\r\n    }\r\n\r\n    function tokensOfPaginav1(\r\n        address owner,\r\n        uint256 nTok_porpagina,\r\n        uint256 pag\r\n    ) public view returns (tokenData[] memory) {\r\n        uint256 nUserTokens = balanceOf(owner);\r\n        //calcular el inicio de la pagina\r\n        uint256 inicioPagina = pag * nTok_porpagina;\r\n        //si el fin es mayor que el numero de tokens\r\n        uint256 finPagina = inicioPagina + nTok_porpagina;\r\n        if (finPagina > nUserTokens) {\r\n            finPagina = nUserTokens; // 4\r\n        }\r\n        //arreglo con los tokens del usuario\r\n        tokenData[] memory userTokens = new tokenData[](nTok_porpagina);\r\n        for (uint256 i = inicioPagina; i < finPagina; i++) {\r\n            userTokens[i - inicioPagina] = tokensData[\r\n                tokenOfOwnerByIndex(owner, i)\r\n            ];\r\n        }\r\n        return userTokens;\r\n    }\r\n\r\n function getItemInfo(uint256 _token)external view returns(uint256 _price,  string memory _data,bool _onSale, uint256 _tokenID){\r\n        _price=tokensData[ _token].price;\r\n        _data=tokensData[ _token].data;\r\n        _onSale=tokensData[ _token].onSale;\r\n        _tokenID=tokensData[ _token].tokenID;\r\n       \r\n    }\r\n}\r\n",
  "sourcePath": "C:\\Users\\dokxo\\Documents\\CLoudMex\\NFT-culturas-latinas\\blockchain\\contracts\\MarketPlace.sol",
  "compiler": {
    "name": "solc",
    "version": "0.8.1+commit.df193b15.Emscripten.clang"
  },
  "schemaVersion": "3.4.2",
  "updatedAt": "2021-10-11T22:12:37.511Z",
  "networkType": "ethereum",
  "devdoc": {
    "kind": "dev",
    "methods": {
      "approve(address,uint256)": {
        "details": "See {IERC721-approve}."
      },
      "balanceOf(address)": {
        "details": "See {IERC721-balanceOf}."
      },
      "comprarNft(uint256)": {
        "params": {
          "tokenId": "{uint256} tokenid representa el tokenid a comprar"
        }
      },
      "getApproved(uint256)": {
        "details": "See {IERC721-getApproved}."
      },
      "isApprovedForAll(address,address)": {
        "details": "See {IERC721-isApprovedForAll}."
      },
      "minar(address,string,uint256)": {
        "params": {
          "datos": "{string} es un json con todos los datos del token",
          "price": "{uint256} the price in weis",
          "receptor": "{address} es a quien mandaremos el  token "
        },
        "returns": {
          "_0": "{uint256} equivale a el tokenid recien creado"
        }
      },
      "name()": {
        "details": "See {IERC721Metadata-name}."
      },
      "obtenerNfts()": {
        "returns": {
          "_0": "tokenData[] contiene todos los tokens disponibles"
        }
      },
      "obtenerPaginav1(uint256,uint256)": {
        "params": {
          "nPagina": "contiene que pagina vamos a consultar",
          "nTokenP": "uint256 es el numero de tokens que tiene una pagina"
        },
        "returns": {
          "_0": "tokenData[] contiene los tokens de una pagina"
        }
      },
      "obtenerPaginav2(uint256,uint256)": {
        "params": {
          "nPagina": "contiene que pagina vamos a consultar",
          "nTokenP": "uint256 es el numero de tokens que tiene una pagina"
        },
        "returns": {
          "_0": "tokenData[] contiene los tokens de una pagina"
        }
      },
      "ownerOf(uint256)": {
        "details": "See {IERC721-ownerOf}."
      },
      "quemarNft(uint256)": {
        "params": {
          "tokenId": "{uint256} representa el id del token NFT a eliminar"
        },
        "returns": {
          "_0": "{success} si el proceso fue llevado con exito la funcion retorna un true"
        }
      },
      "quitarDelMarketPlace(uint256)": {
        "params": {
          "tokenid": "{uint256} tokenid representa el token al cual afectar"
        }
      },
      "revender(uint256,uint256)": {
        "params": {
          "price": "{uint256} representa el precio en wei al que se vendera",
          "tokenid": "{uint256} representa el identificador del tokenid"
        }
      },
      "safeTransferFrom(address,address,uint256)": {
        "details": "See {IERC721-safeTransferFrom}."
      },
      "safeTransferFrom(address,address,uint256,bytes)": {
        "details": "See {IERC721-safeTransferFrom}."
      },
      "setApprovalForAll(address,bool)": {
        "details": "See {IERC721-setApprovalForAll}."
      },
      "supportsInterface(bytes4)": {
        "details": "See {IERC165-supportsInterface}."
      },
      "symbol()": {
        "details": "See {IERC721Metadata-symbol}."
      },
      "tokenByIndex(uint256)": {
        "details": "See {IERC721Enumerable-tokenByIndex}."
      },
      "tokenOfOwnerByIndex(address,uint256)": {
        "details": "See {IERC721Enumerable-tokenOfOwnerByIndex}."
      },
      "tokenURI(uint256)": {
        "details": "See {IERC721Metadata-tokenURI}."
      },
      "tokensOf(address)": {
        "params": {
          "owner": "{address}  representa la direccin al cual consultar los tokens"
        },
        "returns": {
          "_0": "tokenData[] arreglo con todos los datos de cada token"
        }
      },
      "totalSupply()": {
        "details": "See {IERC721Enumerable-totalSupply}."
      },
      "transferFrom(address,address,uint256)": {
        "details": "See {IERC721-transferFrom}."
      },
      "transferirNft(address,uint256)": {
        "params": {
          "to": "{address} representa a quien vamos a transferir nuestro NFT",
          "tokenId": "{uint256} este valor indica el id que vamos a transferir "
        },
        "returns": {
          "_0": "{addresss}  esta funcin nos retorna el address del nuevo propietario del NFT"
        }
      }
    },
    "version": 1
  },
  "userdoc": {
    "kind": "user",
    "methods": {
      "comprarNft(uint256)": {
        "notice": "con esta funcion cualquiera puede comprar el nft que desea"
      },
      "minar(address,string,uint256)": {
        "notice": "mina nuevos tokens"
      },
      "obtenerNfts()": {
        "notice": "regresa todos los nft disponibles"
      },
      "obtenerPaginav1(uint256,uint256)": {
        "notice": "trata a tokensData como un arreglo divido entre nTokenP el inicio de una pagina es el numero de pagina por el numero de tokens por pagina"
      },
      "obtenerPaginav2(uint256,uint256)": {
        "notice": "nos regresa los tokens que estan en venta hasta que se llene el arreglo o termine el ciclo espera a llenar el contador hasta que es el incio de la pagina que solicito"
      },
      "quemarNft(uint256)": {
        "notice": "Funcin para eliminar un token NFT en tu address"
      },
      "quitarDelMarketPlace(uint256)": {
        "notice": "cambia el estado del token para que este no pueda ser visualizado o vendido"
      },
      "revender(uint256,uint256)": {
        "notice": "pone a la venta un token y si le das el precio lo cambia"
      },
      "transferirNft(address,uint256)": {
        "notice": "Funcin para transferir un token NFT del propietario a otro address"
      }
    },
    "version": 1
  }
}