{
  "contractName": "MarketPlace",
  "abi": [
    {
      "inputs": [],
      "stateMutability": "nonpayable",
      "type": "constructor"
    },
    {
      "anonymous": false,
      "inputs": [
        {
          "indexed": true,
          "internalType": "address",
          "name": "owner",
          "type": "address"
        },
        {
          "indexed": true,
          "internalType": "address",
          "name": "approved",
          "type": "address"
        },
        {
          "indexed": true,
          "internalType": "uint256",
          "name": "tokenId",
          "type": "uint256"
        }
      ],
      "name": "Approval",
      "type": "event"
    },
    {
      "anonymous": false,
      "inputs": [
        {
          "indexed": true,
          "internalType": "address",
          "name": "owner",
          "type": "address"
        },
        {
          "indexed": true,
          "internalType": "address",
          "name": "operator",
          "type": "address"
        },
        {
          "indexed": false,
          "internalType": "bool",
          "name": "approved",
          "type": "bool"
        }
      ],
      "name": "ApprovalForAll",
      "type": "event"
    },
    {
      "anonymous": false,
      "inputs": [
        {
          "indexed": true,
          "internalType": "address",
          "name": "from",
          "type": "address"
        },
        {
          "indexed": true,
          "internalType": "address",
          "name": "to",
          "type": "address"
        },
        {
          "indexed": true,
          "internalType": "uint256",
          "name": "tokenId",
          "type": "uint256"
        }
      ],
      "name": "Transfer",
      "type": "event"
    },
    {
      "inputs": [],
      "name": "_tokenIds",
      "outputs": [
        {
          "internalType": "uint256",
          "name": "_value",
          "type": "uint256"
        }
      ],
      "stateMutability": "view",
      "type": "function",
      "constant": true
    },
    {
      "inputs": [
        {
          "internalType": "address",
          "name": "to",
          "type": "address"
        },
        {
          "internalType": "uint256",
          "name": "tokenId",
          "type": "uint256"
        }
      ],
      "name": "approve",
      "outputs": [],
      "stateMutability": "nonpayable",
      "type": "function"
    },
    {
      "inputs": [
        {
          "internalType": "address",
          "name": "owner",
          "type": "address"
        }
      ],
      "name": "balanceOf",
      "outputs": [
        {
          "internalType": "uint256",
          "name": "",
          "type": "uint256"
        }
      ],
      "stateMutability": "view",
      "type": "function",
      "constant": true
    },
    {
      "inputs": [
        {
          "internalType": "uint256",
          "name": "tokenId",
          "type": "uint256"
        }
      ],
      "name": "getApproved",
      "outputs": [
        {
          "internalType": "address",
          "name": "",
          "type": "address"
        }
      ],
      "stateMutability": "view",
      "type": "function",
      "constant": true
    },
    {
      "inputs": [
        {
          "internalType": "address",
          "name": "owner",
          "type": "address"
        },
        {
          "internalType": "address",
          "name": "operator",
          "type": "address"
        }
      ],
      "name": "isApprovedForAll",
      "outputs": [
        {
          "internalType": "bool",
          "name": "",
          "type": "bool"
        }
      ],
      "stateMutability": "view",
      "type": "function",
      "constant": true
    },
    {
      "inputs": [],
      "name": "minero",
      "outputs": [
        {
          "internalType": "address",
          "name": "",
          "type": "address"
        }
      ],
      "stateMutability": "view",
      "type": "function",
      "constant": true
    },
    {
      "inputs": [],
      "name": "nTokenOnSale",
      "outputs": [
        {
          "internalType": "uint256",
          "name": "",
          "type": "uint256"
        }
      ],
      "stateMutability": "view",
      "type": "function",
      "constant": true
    },
    {
      "inputs": [],
      "name": "name",
      "outputs": [
        {
          "internalType": "string",
          "name": "",
          "type": "string"
        }
      ],
      "stateMutability": "view",
      "type": "function",
      "constant": true
    },
    {
      "inputs": [
        {
          "internalType": "uint256",
          "name": "tokenId",
          "type": "uint256"
        }
      ],
      "name": "ownerOf",
      "outputs": [
        {
          "internalType": "address",
          "name": "",
          "type": "address"
        }
      ],
      "stateMutability": "view",
      "type": "function",
      "constant": true
    },
    {
      "inputs": [
        {
          "internalType": "address",
          "name": "from",
          "type": "address"
        },
        {
          "internalType": "address",
          "name": "to",
          "type": "address"
        },
        {
          "internalType": "uint256",
          "name": "tokenId",
          "type": "uint256"
        }
      ],
      "name": "safeTransferFrom",
      "outputs": [],
      "stateMutability": "nonpayable",
      "type": "function"
    },
    {
      "inputs": [
        {
          "internalType": "address",
          "name": "from",
          "type": "address"
        },
        {
          "internalType": "address",
          "name": "to",
          "type": "address"
        },
        {
          "internalType": "uint256",
          "name": "tokenId",
          "type": "uint256"
        },
        {
          "internalType": "bytes",
          "name": "_data",
          "type": "bytes"
        }
      ],
      "name": "safeTransferFrom",
      "outputs": [],
      "stateMutability": "nonpayable",
      "type": "function"
    },
    {
      "inputs": [
        {
          "internalType": "address",
          "name": "operator",
          "type": "address"
        },
        {
          "internalType": "bool",
          "name": "approved",
          "type": "bool"
        }
      ],
      "name": "setApprovalForAll",
      "outputs": [],
      "stateMutability": "nonpayable",
      "type": "function"
    },
    {
      "inputs": [
        {
          "internalType": "bytes4",
          "name": "interfaceId",
          "type": "bytes4"
        }
      ],
      "name": "supportsInterface",
      "outputs": [
        {
          "internalType": "bool",
          "name": "",
          "type": "bool"
        }
      ],
      "stateMutability": "view",
      "type": "function",
      "constant": true
    },
    {
      "inputs": [],
      "name": "symbol",
      "outputs": [
        {
          "internalType": "string",
          "name": "",
          "type": "string"
        }
      ],
      "stateMutability": "view",
      "type": "function",
      "constant": true
    },
    {
      "inputs": [
        {
          "internalType": "uint256",
          "name": "index",
          "type": "uint256"
        }
      ],
      "name": "tokenByIndex",
      "outputs": [
        {
          "internalType": "uint256",
          "name": "",
          "type": "uint256"
        }
      ],
      "stateMutability": "view",
      "type": "function",
      "constant": true
    },
    {
      "inputs": [
        {
          "internalType": "address",
          "name": "owner",
          "type": "address"
        },
        {
          "internalType": "uint256",
          "name": "index",
          "type": "uint256"
        }
      ],
      "name": "tokenOfOwnerByIndex",
      "outputs": [
        {
          "internalType": "uint256",
          "name": "",
          "type": "uint256"
        }
      ],
      "stateMutability": "view",
      "type": "function",
      "constant": true
    },
    {
      "inputs": [
        {
          "internalType": "uint256",
          "name": "tokenId",
          "type": "uint256"
        }
      ],
      "name": "tokenURI",
      "outputs": [
        {
          "internalType": "string",
          "name": "",
          "type": "string"
        }
      ],
      "stateMutability": "view",
      "type": "function",
      "constant": true
    },
    {
      "inputs": [
        {
          "internalType": "uint256",
          "name": "",
          "type": "uint256"
        }
      ],
      "name": "tokensData",
      "outputs": [
        {
          "internalType": "uint256",
          "name": "price",
          "type": "uint256"
        },
        {
          "internalType": "string",
          "name": "data",
          "type": "string"
        },
        {
          "internalType": "bool",
          "name": "onSale",
          "type": "bool"
        },
        {
          "internalType": "uint256",
          "name": "tokenID",
          "type": "uint256"
        }
      ],
      "stateMutability": "view",
      "type": "function",
      "constant": true
    },
    {
      "inputs": [],
      "name": "totalSupply",
      "outputs": [
        {
          "internalType": "uint256",
          "name": "",
          "type": "uint256"
        }
      ],
      "stateMutability": "view",
      "type": "function",
      "constant": true
    },
    {
      "inputs": [
        {
          "internalType": "address",
          "name": "from",
          "type": "address"
        },
        {
          "internalType": "address",
          "name": "to",
          "type": "address"
        },
        {
          "internalType": "uint256",
          "name": "tokenId",
          "type": "uint256"
        }
      ],
      "name": "transferFrom",
      "outputs": [],
      "stateMutability": "nonpayable",
      "type": "function"
    },
    {
      "inputs": [
        {
          "internalType": "address",
          "name": "receptor",
          "type": "address"
        },
        {
          "internalType": "string",
          "name": "datos",
          "type": "string"
        },
        {
          "internalType": "uint256",
          "name": "price",
          "type": "uint256"
        }
      ],
      "name": "minar",
      "outputs": [
        {
          "internalType": "uint256",
          "name": "",
          "type": "uint256"
        }
      ],
      "stateMutability": "nonpayable",
      "type": "function"
    },
    {
      "inputs": [
        {
          "internalType": "address",
          "name": "to",
          "type": "address"
        },
        {
          "internalType": "uint256",
          "name": "tokenId",
          "type": "uint256"
        }
      ],
      "name": "transferirNft",
      "outputs": [
        {
          "internalType": "address",
          "name": "",
          "type": "address"
        }
      ],
      "stateMutability": "nonpayable",
      "type": "function"
    },
    {
      "inputs": [
        {
          "internalType": "uint256",
          "name": "tokenId",
          "type": "uint256"
        }
      ],
      "name": "quemarNft",
      "outputs": [
        {
          "internalType": "bool",
          "name": "",
          "type": "bool"
        }
      ],
      "stateMutability": "nonpayable",
      "type": "function"
    },
    {
      "inputs": [
        {
          "internalType": "uint256",
          "name": "tokenid",
          "type": "uint256"
        },
        {
          "internalType": "uint256",
          "name": "price",
          "type": "uint256"
        }
      ],
      "name": "revender",
      "outputs": [],
      "stateMutability": "nonpayable",
      "type": "function"
    },
    {
      "inputs": [
        {
          "internalType": "uint256",
          "name": "tokenid",
          "type": "uint256"
        }
      ],
      "name": "quitarDelMarketPlace",
      "outputs": [],
      "stateMutability": "nonpayable",
      "type": "function"
    },
    {
      "inputs": [],
      "name": "obtenerNfts",
      "outputs": [
        {
          "components": [
            {
              "internalType": "uint256",
              "name": "price",
              "type": "uint256"
            },
            {
              "internalType": "string",
              "name": "data",
              "type": "string"
            },
            {
              "internalType": "bool",
              "name": "onSale",
              "type": "bool"
            },
            {
              "internalType": "uint256",
              "name": "tokenID",
              "type": "uint256"
            }
          ],
          "internalType": "struct MarketPlace.tokenData[]",
          "name": "",
          "type": "tuple[]"
        }
      ],
      "stateMutability": "view",
      "type": "function",
      "constant": true
    },
    {
      "inputs": [
        {
          "internalType": "uint256",
          "name": "nTokenP",
          "type": "uint256"
        },
        {
          "internalType": "uint256",
          "name": "nPagina",
          "type": "uint256"
        }
      ],
      "name": "obtenerPaginav1",
      "outputs": [
        {
          "components": [
            {
              "internalType": "uint256",
              "name": "price",
              "type": "uint256"
            },
            {
              "internalType": "string",
              "name": "data",
              "type": "string"
            },
            {
              "internalType": "bool",
              "name": "onSale",
              "type": "bool"
            },
            {
              "internalType": "uint256",
              "name": "tokenID",
              "type": "uint256"
            }
          ],
          "internalType": "struct MarketPlace.tokenData[]",
          "name": "",
          "type": "tuple[]"
        }
      ],
      "stateMutability": "view",
      "type": "function",
      "constant": true
    },
    {
      "inputs": [
        {
          "internalType": "uint256",
          "name": "nTokenP",
          "type": "uint256"
        },
        {
          "internalType": "uint256",
          "name": "nPagina",
          "type": "uint256"
        }
      ],
      "name": "obtenerPaginav2",
      "outputs": [
        {
          "components": [
            {
              "internalType": "uint256",
              "name": "price",
              "type": "uint256"
            },
            {
              "internalType": "string",
              "name": "data",
              "type": "string"
            },
            {
              "internalType": "bool",
              "name": "onSale",
              "type": "bool"
            },
            {
              "internalType": "uint256",
              "name": "tokenID",
              "type": "uint256"
            }
          ],
          "internalType": "struct MarketPlace.tokenData[]",
          "name": "",
          "type": "tuple[]"
        }
      ],
      "stateMutability": "view",
      "type": "function",
      "constant": true
    },
    {
      "inputs": [
        {
          "internalType": "uint256",
          "name": "tokenId",
          "type": "uint256"
        }
      ],
      "name": "comprarNft",
      "outputs": [],
      "stateMutability": "payable",
      "type": "function",
      "payable": true
    },
    {
      "inputs": [
        {
          "internalType": "address",
          "name": "owner",
          "type": "address"
        }
      ],
      "name": "tokensOf",
      "outputs": [
        {
          "components": [
            {
              "internalType": "uint256",
              "name": "price",
              "type": "uint256"
            },
            {
              "internalType": "string",
              "name": "data",
              "type": "string"
            },
            {
              "internalType": "bool",
              "name": "onSale",
              "type": "bool"
            },
            {
              "internalType": "uint256",
              "name": "tokenID",
              "type": "uint256"
            }
          ],
          "internalType": "struct MarketPlace.tokenData[]",
          "name": "",
          "type": "tuple[]"
        }
      ],
      "stateMutability": "view",
      "type": "function",
      "constant": true
    },
    {
      "inputs": [
        {
          "internalType": "address",
          "name": "owner",
          "type": "address"
        },
        {
          "internalType": "uint256",
          "name": "nTok_porpagina",
          "type": "uint256"
        },
        {
          "internalType": "uint256",
          "name": "pag",
          "type": "uint256"
        }
      ],
      "name": "tokensOfPaginav1",
      "outputs": [
        {
          "components": [
            {
              "internalType": "uint256",
              "name": "price",
              "type": "uint256"
            },
            {
              "internalType": "string",
              "name": "data",
              "type": "string"
            },
            {
              "internalType": "bool",
              "name": "onSale",
              "type": "bool"
            },
            {
              "internalType": "uint256",
              "name": "tokenID",
              "type": "uint256"
            }
          ],
          "internalType": "struct MarketPlace.tokenData[]",
          "name": "",
          "type": "tuple[]"
        }
      ],
      "stateMutability": "view",
      "type": "function",
      "constant": true
    }
  ],
  "bytecode": "0x60806040523480156200001157600080fd5b506040518060400160405280600b81526020017f4d61726b6574506c6163650000000000000000000000000000000000000000008152506040518060400160405280600381526020017f4d50450000000000000000000000000000000000000000000000000000000000815250816000908051906020019062000096929190620000f9565b508060019080519060200190620000af929190620000f9565b50505033600b60006101000a81548173ffffffffffffffffffffffffffffffffffffffff021916908373ffffffffffffffffffffffffffffffffffffffff1602179055506200020e565b8280546200010790620001a9565b90600052602060002090601f0160209004810192826200012b576000855562000177565b82601f106200014657805160ff191683800117855562000177565b8280016001018555821562000177579182015b828111156200017657825182559160200191906001019062000159565b5b5090506200018691906200018a565b5090565b5b80821115620001a55760008160009055506001016200018b565b5090565b60006002820490506001821680620001c257607f821691505b60208210811415620001d957620001d8620001df565b5b50919050565b7f4e487b7100000000000000000000000000000000000000000000000000000000600052602260045260246000fd5b614f11806200021e6000396000f3fe6080604052600436106101d85760003560e01c8063599ed3ff11610102578063b2d8adc811610095578063e985e9c511610064578063e985e9c514610745578063edfd03bd14610782578063f5a99e901461079e578063f5d8b8a3146107db576101d8565b8063b2d8adc814610677578063b88d4fde146106a2578063c87b56dd146106cb578063e7a82a0114610708576101d8565b806395d89b41116100d157806395d89b41146105bb5780639c62a52a146105e6578063a22cb46514610623578063aa46a4001461064c576101d8565b8063599ed3ff146104c45780635a3f2672146105045780636352211e1461054157806370a082311461057e576101d8565b80632f745c591161017a57806342842e0e1161014957806342842e0e146103f65780634f6ccce71461041f5780635551ef611461045c57806356ce03f114610487576101d8565b80632f745c5914610328578063390b9151146103655780633d049d0c1461038e5780633fe97648146103cb576101d8565b8063095ea7b3116101b6578063095ea7b31461028257806318160ddd146102ab5780631d3923ed146102d657806323b872dd146102ff576101d8565b806301ffc9a7146101dd57806306fdde031461021a578063081812fc14610245575b600080fd5b3480156101e957600080fd5b5061020460048036038101906101ff91906138e5565b610818565b6040516102119190613fa4565b60405180910390f35b34801561022657600080fd5b5061022f610892565b60405161023c9190613fbf565b60405180910390f35b34801561025157600080fd5b5061026c60048036038101906102679190613937565b610924565b6040516102799190613f1b565b60405180910390f35b34801561028e57600080fd5b506102a960048036038101906102a4919061385a565b6109a9565b005b3480156102b757600080fd5b506102c0610ac1565b6040516102cd91906142e1565b60405180910390f35b3480156102e257600080fd5b506102fd60048036038101906102f89190613937565b610ace565b005b34801561030b57600080fd5b50610326600480360381019061032191906136ed565b610bd9565b005b34801561033457600080fd5b5061034f600480360381019061034a919061385a565b610c39565b60405161035c91906142e1565b60405180910390f35b34801561037157600080fd5b5061038c60048036038101906103879190613960565b610cde565b005b34801561039a57600080fd5b506103b560048036038101906103b09190613896565b610dfd565b6040516103c29190613f82565b60405180910390f35b3480156103d757600080fd5b506103e061101d565b6040516103ed91906142e1565b60405180910390f35b34801561040257600080fd5b5061041d600480360381019061041891906136ed565b611023565b005b34801561042b57600080fd5b5061044660048036038101906104419190613937565b611043565b60405161045391906142e1565b60405180910390f35b34801561046857600080fd5b506104716110da565b60405161047e9190613f82565b60405180910390f35b34801561049357600080fd5b506104ae60048036038101906104a9919061385a565b6112b2565b6040516104bb9190613f1b565b60405180910390f35b3480156104d057600080fd5b506104eb60048036038101906104e69190613937565b611386565b6040516104fb94939291906142fc565b60405180910390f35b34801561051057600080fd5b5061052b60048036038101906105269190613688565b61144b565b6040516105389190613f82565b60405180910390f35b34801561054d57600080fd5b5061056860048036038101906105639190613937565b6116b9565b6040516105759190613f1b565b60405180910390f35b34801561058a57600080fd5b506105a560048036038101906105a09190613688565b61176b565b6040516105b291906142e1565b60405180910390f35b3480156105c757600080fd5b506105d0611823565b6040516105dd9190613fbf565b60405180910390f35b3480156105f257600080fd5b5061060d600480360381019061060891906137f3565b6118b5565b60405161061a91906142e1565b60405180910390f35b34801561062f57600080fd5b5061064a600480360381019061064591906137b7565b61198b565b005b34801561065857600080fd5b50610661611b0c565b60405161066e91906142e1565b60405180910390f35b34801561068357600080fd5b5061068c611b18565b6040516106999190613f1b565b60405180910390f35b3480156106ae57600080fd5b506106c960048036038101906106c4919061373c565b611b3e565b005b3480156106d757600080fd5b506106f260048036038101906106ed9190613937565b611ba0565b6040516106ff9190613fbf565b60405180910390f35b34801561071457600080fd5b5061072f600480360381019061072a9190613937565b611c47565b60405161073c9190613fa4565b60405180910390f35b34801561075157600080fd5b5061076c600480360381019061076791906136b1565b611d19565b6040516107799190613fa4565b60405180910390f35b61079c60048036038101906107979190613937565b611dad565b005b3480156107aa57600080fd5b506107c560048036038101906107c09190613960565b611f12565b6040516107d29190613f82565b60405180910390f35b3480156107e757600080fd5b5061080260048036038101906107fd9190613960565b61216f565b60405161080f9190613f82565b60405180910390f35b60007f780e9d63000000000000000000000000000000000000000000000000000000007bffffffffffffffffffffffffffffffffffffffffffffffffffffffff1916827bffffffffffffffffffffffffffffffffffffffffffffffffffffffff1916148061088b575061088a82612371565b5b9050919050565b6060600080546108a190614651565b80601f01602080910402602001604051908101604052809291908181526020018280546108cd90614651565b801561091a5780601f106108ef5761010080835404028352916020019161091a565b820191906000526020600020905b8154815290600101906020018083116108fd57829003601f168201915b5050505050905090565b600061092f82612453565b61096e576040517f08c379a000000000000000000000000000000000000000000000000000000000815260040161096590614161565b60405180910390fd5b6004600083815260200190815260200160002060009054906101000a900473ffffffffffffffffffffffffffffffffffffffff169050919050565b60006109b4826116b9565b90508073ffffffffffffffffffffffffffffffffffffffff168373ffffffffffffffffffffffffffffffffffffffff161415610a25576040517f08c379a0000000000000000000000000000000000000000000000000000000008152600401610a1c906141e1565b60405180910390fd5b8073ffffffffffffffffffffffffffffffffffffffff16610a446124bf565b73ffffffffffffffffffffffffffffffffffffffff161480610a735750610a7281610a6d6124bf565b611d19565b5b610ab2576040517f08c379a0000000000000000000000000000000000000000000000000000000008152600401610aa9906140c1565b60405180910390fd5b610abc83836124c7565b505050565b6000600880549050905090565b3373ffffffffffffffffffffffffffffffffffffffff16610aee826116b9565b73ffffffffffffffffffffffffffffffffffffffff1614610b44576040517f08c379a0000000000000000000000000000000000000000000000000000000008152600401610b3b90614121565b60405180910390fd5b610b4e600a612580565b8110610b8f576040517f08c379a0000000000000000000000000000000000000000000000000000000008152600401610b86906142a1565b60405180910390fd5b6000600d600083815260200190815260200160002060020160006101000a81548160ff021916908315150217905550600c6000815480929190610bd190614627565b919050555050565b610bea610be46124bf565b8261258e565b610c29576040517f08c379a0000000000000000000000000000000000000000000000000000000008152600401610c2090614221565b60405180910390fd5b610c3483838361266c565b505050565b6000610c448361176b565b8210610c85576040517f08c379a0000000000000000000000000000000000000000000000000000000008152600401610c7c90613fe1565b60405180910390fd5b600660008473ffffffffffffffffffffffffffffffffffffffff1673ffffffffffffffffffffffffffffffffffffffff168152602001908152602001600020600083815260200190815260200160002054905092915050565b3373ffffffffffffffffffffffffffffffffffffffff16610cfe836116b9565b73ffffffffffffffffffffffffffffffffffffffff1614610d54576040517f08c379a0000000000000000000000000000000000000000000000000000000008152600401610d4b90614121565b60405180910390fd5b60008111610d97576040517f08c379a0000000000000000000000000000000000000000000000000000000008152600401610d8e90614281565b60405180910390fd5b6001600d600084815260200190815260200160002060020160006101000a81548160ff02191690831515021790555080600d600084815260200190815260200160002060000181905550600c6000815480929190610df4906146b4565b91905055505050565b60606000610e0a8561176b565b905060008484610e1a91906144e3565b905060008582610e2a919061445c565b905082811115610e38578290505b60008667ffffffffffffffff811115610e7a577f4e487b7100000000000000000000000000000000000000000000000000000000600052604160045260246000fd5b604051908082528060200260200182016040528015610eb357816020015b610ea0613482565b815260200190600190039081610e985790505b50905060008390505b8281101561100e57600d6000610ed28b84610c39565b815260200190815260200160002060405180608001604052908160008201548152602001600182018054610f0590614651565b80601f0160208091040260200160405190810160405280929190818152602001828054610f3190614651565b8015610f7e5780601f10610f5357610100808354040283529160200191610f7e565b820191906000526020600020905b815481529060010190602001808311610f6157829003601f168201915b505050505081526020016002820160009054906101000a900460ff16151515158152602001600382015481525050828583610fb9919061453d565b81518110610ff0577f4e487b7100000000000000000000000000000000000000000000000000000000600052603260045260246000fd5b60200260200101819052508080611006906146b4565b915050610ebc565b50809450505050509392505050565b600c5481565b61103e83838360405180602001604052806000815250611b3e565b505050565b600061104d610ac1565b821061108e576040517f08c379a000000000000000000000000000000000000000000000000000000000815260040161108590614241565b60405180910390fd5b600882815481106110c8577f4e487b7100000000000000000000000000000000000000000000000000000000600052603260045260246000fd5b90600052602060002001549050919050565b606060006110e8600a612580565b905060008167ffffffffffffffff81111561112c577f4e487b7100000000000000000000000000000000000000000000000000000000600052604160045260246000fd5b60405190808252806020026020018201604052801561116557816020015b611152613482565b81526020019060019003908161114a5790505b50905060005b828110156112a957600d6000828152602001908152602001600020604051806080016040529081600082015481526020016001820180546111ab90614651565b80601f01602080910402602001604051908101604052809291908181526020018280546111d790614651565b80156112245780601f106111f957610100808354040283529160200191611224565b820191906000526020600020905b81548152906001019060200180831161120757829003601f168201915b505050505081526020016002820160009054906101000a900460ff1615151515815260200160038201548152505082828151811061128b577f4e487b7100000000000000000000000000000000000000000000000000000000600052603260045260246000fd5b602002602001018190525080806112a1906146b4565b91505061116b565b50809250505090565b60006112bd82612453565b6112fc576040517f08c379a00000000000000000000000000000000000000000000000000000000081526004016112f390614081565b60405180910390fd5b611305826116b9565b73ffffffffffffffffffffffffffffffffffffffff163373ffffffffffffffffffffffffffffffffffffffff1614611372576040517f08c379a000000000000000000000000000000000000000000000000000000000815260040161136990614201565b60405180910390fd5b61137d338484611023565b82905092915050565b600d6020528060005260406000206000915090508060000154908060010180546113af90614651565b80601f01602080910402602001604051908101604052809291908181526020018280546113db90614651565b80156114285780601f106113fd57610100808354040283529160200191611428565b820191906000526020600020905b81548152906001019060200180831161140b57829003601f168201915b5050505050908060020160009054906101000a900460ff16908060030154905084565b606060006114588361176b565b905060008114156114e5578067ffffffffffffffff8111156114a3577f4e487b7100000000000000000000000000000000000000000000000000000000600052604160045260246000fd5b6040519080825280602002602001820160405280156114dc57816020015b6114c9613482565b8152602001906001900390816114c15790505b509150506116b4565b60008167ffffffffffffffff811115611527577f4e487b7100000000000000000000000000000000000000000000000000000000600052604160045260246000fd5b60405190808252806020026020018201604052801561156057816020015b61154d613482565b8152602001906001900390816115455790505b50905060005b828110156116ad57600d600061157c8784610c39565b8152602001908152602001600020604051806080016040529081600082015481526020016001820180546115af90614651565b80601f01602080910402602001604051908101604052809291908181526020018280546115db90614651565b80156116285780601f106115fd57610100808354040283529160200191611628565b820191906000526020600020905b81548152906001019060200180831161160b57829003601f168201915b505050505081526020016002820160009054906101000a900460ff1615151515815260200160038201548152505082828151811061168f577f4e487b7100000000000000000000000000000000000000000000000000000000600052603260045260246000fd5b602002602001018190525080806116a5906146b4565b915050611566565b5080925050505b919050565b6000806002600084815260200190815260200160002060009054906101000a900473ffffffffffffffffffffffffffffffffffffffff169050600073ffffffffffffffffffffffffffffffffffffffff168173ffffffffffffffffffffffffffffffffffffffff161415611762576040517f08c379a000000000000000000000000000000000000000000000000000000000815260040161175990614101565b60405180910390fd5b80915050919050565b60008073ffffffffffffffffffffffffffffffffffffffff168273ffffffffffffffffffffffffffffffffffffffff1614156117dc576040517f08c379a00000000000000000000000000000000000000000000000000000000081526004016117d3906140e1565b60405180910390fd5b600360008373ffffffffffffffffffffffffffffffffffffffff1673ffffffffffffffffffffffffffffffffffffffff168152602001908152602001600020549050919050565b60606001805461183290614651565b80601f016020809104026020016040519081016040528092919081815260200182805461185e90614651565b80156118ab5780601f10611880576101008083540402835291602001916118ab565b820191906000526020600020905b81548152906001019060200180831161188e57829003601f168201915b5050505050905090565b6000806118c2600a612580565b90506118ce600a6128c8565b6118d885826128de565b83600d600083815260200190815260200160002060010190805190602001906119029291906134ac565b5082600d6000838152602001908152602001600020600001819055506001600d600083815260200190815260200160002060020160006101000a81548160ff02191690831515021790555080600d600083815260200190815260200160002060030181905550600c600081548092919061197b906146b4565b9190505550809150509392505050565b6119936124bf565b73ffffffffffffffffffffffffffffffffffffffff168273ffffffffffffffffffffffffffffffffffffffff161415611a01576040517f08c379a00000000000000000000000000000000000000000000000000000000081526004016119f890614061565b60405180910390fd5b8060056000611a0e6124bf565b73ffffffffffffffffffffffffffffffffffffffff1673ffffffffffffffffffffffffffffffffffffffff16815260200190815260200160002060008473ffffffffffffffffffffffffffffffffffffffff1673ffffffffffffffffffffffffffffffffffffffff16815260200190815260200160002060006101000a81548160ff0219169083151502179055508173ffffffffffffffffffffffffffffffffffffffff16611abb6124bf565b73ffffffffffffffffffffffffffffffffffffffff167f17307eab39ab6107e8899845ad3d59bd9653f200f220920489ca2b5937696c3183604051611b009190613fa4565b60405180910390a35050565b600a8060000154905081565b600b60009054906101000a900473ffffffffffffffffffffffffffffffffffffffff1681565b611b4f611b496124bf565b8361258e565b611b8e576040517f08c379a0000000000000000000000000000000000000000000000000000000008152600401611b8590614221565b60405180910390fd5b611b9a84848484612aac565b50505050565b6060611bab82612453565b611bea576040517f08c379a0000000000000000000000000000000000000000000000000000000008152600401611be1906141c1565b60405180910390fd5b6000611bf4612b08565b90506000815111611c145760405180602001604052806000815250611c3f565b80611c1e84612b1f565b604051602001611c2f929190613ef7565b6040516020818303038152906040525b915050919050565b6000611c5282612453565b611c91576040517f08c379a0000000000000000000000000000000000000000000000000000000008152600401611c8890614181565b60405180910390fd5b611c9a826116b9565b73ffffffffffffffffffffffffffffffffffffffff163373ffffffffffffffffffffffffffffffffffffffff1614611d07576040517f08c379a0000000000000000000000000000000000000000000000000000000008152600401611cfe90614201565b60405180910390fd5b611d1082612ccc565b60019050919050565b6000600560008473ffffffffffffffffffffffffffffffffffffffff1673ffffffffffffffffffffffffffffffffffffffff16815260200190815260200160002060008373ffffffffffffffffffffffffffffffffffffffff1673ffffffffffffffffffffffffffffffffffffffff16815260200190815260200160002060009054906101000a900460ff16905092915050565b600d6000828152602001908152602001600020600001543414611e05576040517f08c379a0000000000000000000000000000000000000000000000000000000008152600401611dfc90614261565b60405180910390fd5b600d600082815260200190815260200160002060020160009054906101000a900460ff16611e68576040517f08c379a0000000000000000000000000000000000000000000000000000000008152600401611e5f906142c1565b60405180910390fd5b6000611e73826116b9565b9050611e8081338461266c565b8073ffffffffffffffffffffffffffffffffffffffff166108fc349081150290604051600060405180830381858888f19350505050158015611ec6573d6000803e3d6000fd5b506000600d600084815260200190815260200160002060020160006101000a81548160ff021916908315150217905550600c6000815480929190611f0990614627565b91905055505050565b60606000611f20600a612580565b905060008060008667ffffffffffffffff811115611f67577f4e487b7100000000000000000000000000000000000000000000000000000000600052604160045260246000fd5b604051908082528060200260200182016040528015611fa057816020015b611f8d613482565b815260200190600190039081611f855790505b50905060005b8481101561216157600d600082815260200190815260200160002060020160009054906101000a900460ff161561214e578280611fe2906146b4565b9350508688611ff191906144e3565b831061212957600d60008281526020019081526020016000206040518060800160405290816000820154815260200160018201805461202f90614651565b80601f016020809104026020016040519081016040528092919081815260200182805461205b90614651565b80156120a85780601f1061207d576101008083540402835291602001916120a8565b820191906000526020600020905b81548152906001019060200180831161208b57829003601f168201915b505050505081526020016002820160009054906101000a900460ff1615151515815260200160038201548152505082858151811061210f577f4e487b7100000000000000000000000000000000000000000000000000000000600052603260045260246000fd5b60200260200101819052508380612125906146b4565b9450505b600187612136919061445c565b8861214191906144e3565b83141561214d57612161565b5b8080612159906146b4565b915050611fa6565b508094505050505092915050565b60606000838361217f91906144e3565b905060008467ffffffffffffffff8111156121c3577f4e487b7100000000000000000000000000000000000000000000000000000000600052604160045260246000fd5b6040519080825280602002602001820160405280156121fc57816020015b6121e9613482565b8152602001906001900390816121e15790505b50905060008290505b600185612212919061445c565b8661221d91906144e3565b81101561236557600d60008281526020019081526020016000206040518060800160405290816000820154815260200160018201805461225c90614651565b80601f016020809104026020016040519081016040528092919081815260200182805461228890614651565b80156122d55780601f106122aa576101008083540402835291602001916122d5565b820191906000526020600020905b8154815290600101906020018083116122b857829003601f168201915b505050505081526020016002820160009054906101000a900460ff16151515158152602001600382015481525050828483612310919061453d565b81518110612347577f4e487b7100000000000000000000000000000000000000000000000000000000600052603260045260246000fd5b6020026020010181905250808061235d906146b4565b915050612205565b50809250505092915050565b60007f80ac58cd000000000000000000000000000000000000000000000000000000007bffffffffffffffffffffffffffffffffffffffffffffffffffffffff1916827bffffffffffffffffffffffffffffffffffffffffffffffffffffffff1916148061243c57507f5b5e139f000000000000000000000000000000000000000000000000000000007bffffffffffffffffffffffffffffffffffffffffffffffffffffffff1916827bffffffffffffffffffffffffffffffffffffffffffffffffffffffff1916145b8061244c575061244b82612ddd565b5b9050919050565b60008073ffffffffffffffffffffffffffffffffffffffff166002600084815260200190815260200160002060009054906101000a900473ffffffffffffffffffffffffffffffffffffffff1673ffffffffffffffffffffffffffffffffffffffff1614159050919050565b600033905090565b816004600083815260200190815260200160002060006101000a81548173ffffffffffffffffffffffffffffffffffffffff021916908373ffffffffffffffffffffffffffffffffffffffff160217905550808273ffffffffffffffffffffffffffffffffffffffff1661253a836116b9565b73ffffffffffffffffffffffffffffffffffffffff167f8c5be1e5ebec7d5bd14f71427d1e84f3dd0314c0f7b2291e5b200ac8c7c3b92560405160405180910390a45050565b600081600001549050919050565b600061259982612453565b6125d8576040517f08c379a00000000000000000000000000000000000000000000000000000000081526004016125cf906140a1565b60405180910390fd5b60006125e3836116b9565b90508073ffffffffffffffffffffffffffffffffffffffff168473ffffffffffffffffffffffffffffffffffffffff16148061265257508373ffffffffffffffffffffffffffffffffffffffff1661263a84610924565b73ffffffffffffffffffffffffffffffffffffffff16145b8061266357506126628185611d19565b5b91505092915050565b8273ffffffffffffffffffffffffffffffffffffffff1661268c826116b9565b73ffffffffffffffffffffffffffffffffffffffff16146126e2576040517f08c379a00000000000000000000000000000000000000000000000000000000081526004016126d9906141a1565b60405180910390fd5b600073ffffffffffffffffffffffffffffffffffffffff168273ffffffffffffffffffffffffffffffffffffffff161415612752576040517f08c379a000000000000000000000000000000000000000000000000000000000815260040161274990614041565b60405180910390fd5b61275d838383612e47565b6127686000826124c7565b6001600360008573ffffffffffffffffffffffffffffffffffffffff1673ffffffffffffffffffffffffffffffffffffffff16815260200190815260200160002060008282546127b8919061453d565b925050819055506001600360008473ffffffffffffffffffffffffffffffffffffffff1673ffffffffffffffffffffffffffffffffffffffff168152602001908152602001600020600082825461280f919061445c565b92505081905550816002600083815260200190815260200160002060006101000a81548173ffffffffffffffffffffffffffffffffffffffff021916908373ffffffffffffffffffffffffffffffffffffffff160217905550808273ffffffffffffffffffffffffffffffffffffffff168473ffffffffffffffffffffffffffffffffffffffff167fddf252ad1be2c89b69c2b068fc378daa952ba7f163c4a11628f55a4df523b3ef60405160405180910390a4505050565b6001816000016000828254019250508190555050565b600073ffffffffffffffffffffffffffffffffffffffff168273ffffffffffffffffffffffffffffffffffffffff16141561294e576040517f08c379a000000000000000000000000000000000000000000000000000000000815260040161294590614141565b60405180910390fd5b61295781612453565b15612997576040517f08c379a000000000000000000000000000000000000000000000000000000000815260040161298e90614021565b60405180910390fd5b6129a360008383612e47565b6001600360008473ffffffffffffffffffffffffffffffffffffffff1673ffffffffffffffffffffffffffffffffffffffff16815260200190815260200160002060008282546129f3919061445c565b92505081905550816002600083815260200190815260200160002060006101000a81548173ffffffffffffffffffffffffffffffffffffffff021916908373ffffffffffffffffffffffffffffffffffffffff160217905550808273ffffffffffffffffffffffffffffffffffffffff16600073ffffffffffffffffffffffffffffffffffffffff167fddf252ad1be2c89b69c2b068fc378daa952ba7f163c4a11628f55a4df523b3ef60405160405180910390a45050565b612ab784848461266c565b612ac384848484612f5b565b612b02576040517f08c379a0000000000000000000000000000000000000000000000000000000008152600401612af990614001565b60405180910390fd5b50505050565b606060405180602001604052806000815250905090565b60606000821415612b67576040518060400160405280600181526020017f30000000000000000000000000000000000000000000000000000000000000008152509050612cc7565b600082905060005b60008214612b99578080612b82906146b4565b915050600a82612b9291906144b2565b9150612b6f565b60008167ffffffffffffffff811115612bdb577f4e487b7100000000000000000000000000000000000000000000000000000000600052604160045260246000fd5b6040519080825280601f01601f191660200182016040528015612c0d5781602001600182028036833780820191505090505b5090505b60008514612cc057600182612c26919061453d565b9150600a85612c3591906146fd565b6030612c41919061445c565b60f81b818381518110612c7d577f4e487b7100000000000000000000000000000000000000000000000000000000600052603260045260246000fd5b60200101907effffffffffffffffffffffffffffffffffffffffffffffffffffffffffffff1916908160001a905350600a85612cb991906144b2565b9450612c11565b8093505050505b919050565b6000612cd7826116b9565b9050612ce581600084612e47565b612cf06000836124c7565b6001600360008373ffffffffffffffffffffffffffffffffffffffff1673ffffffffffffffffffffffffffffffffffffffff1681526020019081526020016000206000828254612d40919061453d565b925050819055506002600083815260200190815260200160002060006101000a81549073ffffffffffffffffffffffffffffffffffffffff021916905581600073ffffffffffffffffffffffffffffffffffffffff168273ffffffffffffffffffffffffffffffffffffffff167fddf252ad1be2c89b69c2b068fc378daa952ba7f163c4a11628f55a4df523b3ef60405160405180910390a45050565b60007f01ffc9a7000000000000000000000000000000000000000000000000000000007bffffffffffffffffffffffffffffffffffffffffffffffffffffffff1916827bffffffffffffffffffffffffffffffffffffffffffffffffffffffff1916149050919050565b612e528383836130f2565b600073ffffffffffffffffffffffffffffffffffffffff168373ffffffffffffffffffffffffffffffffffffffff161415612e9557612e90816130f7565b612ed4565b8173ffffffffffffffffffffffffffffffffffffffff168373ffffffffffffffffffffffffffffffffffffffff1614612ed357612ed28382613140565b5b5b600073ffffffffffffffffffffffffffffffffffffffff168273ffffffffffffffffffffffffffffffffffffffff161415612f1757612f12816132ad565b612f56565b8273ffffffffffffffffffffffffffffffffffffffff168273ffffffffffffffffffffffffffffffffffffffff1614612f5557612f5482826133f0565b5b5b505050565b6000612f7c8473ffffffffffffffffffffffffffffffffffffffff1661346f565b156130e5578373ffffffffffffffffffffffffffffffffffffffff1663150b7a02612fa56124bf565b8786866040518563ffffffff1660e01b8152600401612fc79493929190613f36565b602060405180830381600087803b158015612fe157600080fd5b505af192505050801561301257506040513d601f19601f8201168201806040525081019061300f919061390e565b60015b613095573d8060008114613042576040519150601f19603f3d011682016040523d82523d6000602084013e613047565b606091505b5060008151141561308d576040517f08c379a000000000000000000000000000000000000000000000000000000000815260040161308490614001565b60405180910390fd5b805181602001fd5b63150b7a0260e01b7bffffffffffffffffffffffffffffffffffffffffffffffffffffffff1916817bffffffffffffffffffffffffffffffffffffffffffffffffffffffff1916149150506130ea565b600190505b949350505050565b505050565b6008805490506009600083815260200190815260200160002081905550600881908060018154018082558091505060019003906000526020600020016000909190919091505550565b6000600161314d8461176b565b613157919061453d565b905060006007600084815260200190815260200160002054905081811461323c576000600660008673ffffffffffffffffffffffffffffffffffffffff1673ffffffffffffffffffffffffffffffffffffffff168152602001908152602001600020600084815260200190815260200160002054905080600660008773ffffffffffffffffffffffffffffffffffffffff1673ffffffffffffffffffffffffffffffffffffffff168152602001908152602001600020600084815260200190815260200160002081905550816007600083815260200190815260200160002081905550505b6007600084815260200190815260200160002060009055600660008573ffffffffffffffffffffffffffffffffffffffff1673ffffffffffffffffffffffffffffffffffffffff16815260200190815260200160002060008381526020019081526020016000206000905550505050565b600060016008805490506132c1919061453d565b9050600060096000848152602001908152602001600020549050600060088381548110613317577f4e487b7100000000000000000000000000000000000000000000000000000000600052603260045260246000fd5b90600052602060002001549050806008838154811061335f577f4e487b7100000000000000000000000000000000000000000000000000000000600052603260045260246000fd5b9060005260206000200181905550816009600083815260200190815260200160002081905550600960008581526020019081526020016000206000905560088054806133d4577f4e487b7100000000000000000000000000000000000000000000000000000000600052603160045260246000fd5b6001900381819060005260206000200160009055905550505050565b60006133fb8361176b565b905081600660008573ffffffffffffffffffffffffffffffffffffffff1673ffffffffffffffffffffffffffffffffffffffff168152602001908152602001600020600083815260200190815260200160002081905550806007600084815260200190815260200160002081905550505050565b600080823b905060008111915050919050565b60405180608001604052806000815260200160608152602001600015158152602001600081525090565b8280546134b890614651565b90600052602060002090601f0160209004810192826134da5760008555613521565b82601f106134f357805160ff1916838001178555613521565b82800160010185558215613521579182015b82811115613520578251825591602001919060010190613505565b5b50905061352e9190613532565b5090565b5b8082111561354b576000816000905550600101613533565b5090565b600061356261355d8461436d565b614348565b90508281526020810184848401111561357a57600080fd5b6135858482856145e5565b509392505050565b60006135a061359b8461439e565b614348565b9050828152602081018484840111156135b857600080fd5b6135c38482856145e5565b509392505050565b6000813590506135da81614e7f565b92915050565b6000813590506135ef81614e96565b92915050565b60008135905061360481614ead565b92915050565b60008151905061361981614ead565b92915050565b600082601f83011261363057600080fd5b813561364084826020860161354f565b91505092915050565b600082601f83011261365a57600080fd5b813561366a84826020860161358d565b91505092915050565b60008135905061368281614ec4565b92915050565b60006020828403121561369a57600080fd5b60006136a8848285016135cb565b91505092915050565b600080604083850312156136c457600080fd5b60006136d2858286016135cb565b92505060206136e3858286016135cb565b9150509250929050565b60008060006060848603121561370257600080fd5b6000613710868287016135cb565b9350506020613721868287016135cb565b925050604061373286828701613673565b9150509250925092565b6000806000806080858703121561375257600080fd5b6000613760878288016135cb565b9450506020613771878288016135cb565b935050604061378287828801613673565b925050606085013567ffffffffffffffff81111561379f57600080fd5b6137ab8782880161361f565b91505092959194509250565b600080604083850312156137ca57600080fd5b60006137d8858286016135cb565b92505060206137e9858286016135e0565b9150509250929050565b60008060006060848603121561380857600080fd5b6000613816868287016135cb565b935050602084013567ffffffffffffffff81111561383357600080fd5b61383f86828701613649565b925050604061385086828701613673565b9150509250925092565b6000806040838503121561386d57600080fd5b600061387b858286016135cb565b925050602061388c85828601613673565b9150509250929050565b6000806000606084860312156138ab57600080fd5b60006138b9868287016135cb565b93505060206138ca86828701613673565b92505060406138db86828701613673565b9150509250925092565b6000602082840312156138f757600080fd5b6000613905848285016135f5565b91505092915050565b60006020828403121561392057600080fd5b600061392e8482850161360a565b91505092915050565b60006020828403121561394957600080fd5b600061395784828501613673565b91505092915050565b6000806040838503121561397357600080fd5b600061398185828601613673565b925050602061399285828601613673565b9150509250929050565b60006139a88383613e76565b905092915050565b6139b981614571565b82525050565b60006139ca826143df565b6139d4818561440d565b9350836020820285016139e6856143cf565b8060005b85811015613a225784840389528151613a03858261399c565b9450613a0e83614400565b925060208a019950506001810190506139ea565b50829750879550505050505092915050565b613a3d81614583565b82525050565b613a4c81614583565b82525050565b6000613a5d826143ea565b613a67818561441e565b9350613a778185602086016145f4565b613a80816147ea565b840191505092915050565b6000613a96826143f5565b613aa0818561442f565b9350613ab08185602086016145f4565b613ab9816147ea565b840191505092915050565b6000613acf826143f5565b613ad98185614440565b9350613ae98185602086016145f4565b613af2816147ea565b840191505092915050565b6000613b08826143f5565b613b128185614451565b9350613b228185602086016145f4565b80840191505092915050565b6000613b3b602b83614440565b9150613b46826147fb565b604082019050919050565b6000613b5e603283614440565b9150613b698261484a565b604082019050919050565b6000613b81601c83614440565b9150613b8c82614899565b602082019050919050565b6000613ba4602483614440565b9150613baf826148c2565b604082019050919050565b6000613bc7601983614440565b9150613bd282614911565b602082019050919050565b6000613bea602a83614440565b9150613bf58261493a565b604082019050919050565b6000613c0d602c83614440565b9150613c1882614989565b604082019050919050565b6000613c30603883614440565b9150613c3b826149d8565b604082019050919050565b6000613c53602a83614440565b9150613c5e82614a27565b604082019050919050565b6000613c76602983614440565b9150613c8182614a76565b604082019050919050565b6000613c99602683614440565b9150613ca482614ac5565b604082019050919050565b6000613cbc602083614440565b9150613cc782614b14565b602082019050919050565b6000613cdf602c83614440565b9150613cea82614b3d565b604082019050919050565b6000613d02602683614440565b9150613d0d82614b8c565b604082019050919050565b6000613d25602983614440565b9150613d3082614bdb565b604082019050919050565b6000613d48602f83614440565b9150613d5382614c2a565b604082019050919050565b6000613d6b602183614440565b9150613d7682614c79565b604082019050919050565b6000613d8e601a83614440565b9150613d9982614cc8565b602082019050919050565b6000613db1603183614440565b9150613dbc82614cf1565b604082019050919050565b6000613dd4602c83614440565b9150613ddf82614d40565b604082019050919050565b6000613df7601483614440565b9150613e0282614d8f565b602082019050919050565b6000613e1a601283614440565b9150613e2582614db8565b602082019050919050565b6000613e3d602383614440565b9150613e4882614de1565b604082019050919050565b6000613e60602483614440565b9150613e6b82614e30565b604082019050919050565b6000608083016000830151613e8e6000860182613ed9565b5060208301518482036020860152613ea68282613a8b565b9150506040830151613ebb6040860182613a34565b506060830151613ece6060860182613ed9565b508091505092915050565b613ee2816145db565b82525050565b613ef1816145db565b82525050565b6000613f038285613afd565b9150613f0f8284613afd565b91508190509392505050565b6000602082019050613f3060008301846139b0565b92915050565b6000608082019050613f4b60008301876139b0565b613f5860208301866139b0565b613f656040830185613ee8565b8181036060830152613f778184613a52565b905095945050505050565b60006020820190508181036000830152613f9c81846139bf565b905092915050565b6000602082019050613fb96000830184613a43565b92915050565b60006020820190508181036000830152613fd98184613ac4565b905092915050565b60006020820190508181036000830152613ffa81613b2e565b9050919050565b6000602082019050818103600083015261401a81613b51565b9050919050565b6000602082019050818103600083015261403a81613b74565b9050919050565b6000602082019050818103600083015261405a81613b97565b9050919050565b6000602082019050818103600083015261407a81613bba565b9050919050565b6000602082019050818103600083015261409a81613bdd565b9050919050565b600060208201905081810360008301526140ba81613c00565b9050919050565b600060208201905081810360008301526140da81613c23565b9050919050565b600060208201905081810360008301526140fa81613c46565b9050919050565b6000602082019050818103600083015261411a81613c69565b9050919050565b6000602082019050818103600083015261413a81613c8c565b9050919050565b6000602082019050818103600083015261415a81613caf565b9050919050565b6000602082019050818103600083015261417a81613cd2565b9050919050565b6000602082019050818103600083015261419a81613cf5565b9050919050565b600060208201905081810360008301526141ba81613d18565b9050919050565b600060208201905081810360008301526141da81613d3b565b9050919050565b600060208201905081810360008301526141fa81613d5e565b9050919050565b6000602082019050818103600083015261421a81613d81565b9050919050565b6000602082019050818103600083015261423a81613da4565b9050919050565b6000602082019050818103600083015261425a81613dc7565b9050919050565b6000602082019050818103600083015261427a81613dea565b9050919050565b6000602082019050818103600083015261429a81613e0d565b9050919050565b600060208201905081810360008301526142ba81613e30565b9050919050565b600060208201905081810360008301526142da81613e53565b9050919050565b60006020820190506142f66000830184613ee8565b92915050565b60006080820190506143116000830187613ee8565b81810360208301526143238186613ac4565b90506143326040830185613a43565b61433f6060830184613ee8565b95945050505050565b6000614352614363565b905061435e8282614683565b919050565b6000604051905090565b600067ffffffffffffffff821115614388576143876147bb565b5b614391826147ea565b9050602081019050919050565b600067ffffffffffffffff8211156143b9576143b86147bb565b5b6143c2826147ea565b9050602081019050919050565b6000819050602082019050919050565b600081519050919050565b600081519050919050565b600081519050919050565b6000602082019050919050565b600082825260208201905092915050565b600082825260208201905092915050565b600082825260208201905092915050565b600082825260208201905092915050565b600081905092915050565b6000614467826145db565b9150614472836145db565b9250827fffffffffffffffffffffffffffffffffffffffffffffffffffffffffffffffff038211156144a7576144a661472e565b5b828201905092915050565b60006144bd826145db565b91506144c8836145db565b9250826144d8576144d761475d565b5b828204905092915050565b60006144ee826145db565b91506144f9836145db565b9250817fffffffffffffffffffffffffffffffffffffffffffffffffffffffffffffffff04831182151516156145325761453161472e565b5b828202905092915050565b6000614548826145db565b9150614553836145db565b9250828210156145665761456561472e565b5b828203905092915050565b600061457c826145bb565b9050919050565b60008115159050919050565b60007fffffffff0000000000000000000000000000000000000000000000000000000082169050919050565b600073ffffffffffffffffffffffffffffffffffffffff82169050919050565b6000819050919050565b82818337600083830152505050565b60005b838110156146125780820151818401526020810190506145f7565b83811115614621576000848401525b50505050565b6000614632826145db565b915060008214156146465761464561472e565b5b600182039050919050565b6000600282049050600182168061466957607f821691505b6020821081141561467d5761467c61478c565b5b50919050565b61468c826147ea565b810181811067ffffffffffffffff821117156146ab576146aa6147bb565b5b80604052505050565b60006146bf826145db565b91507fffffffffffffffffffffffffffffffffffffffffffffffffffffffffffffffff8214156146f2576146f161472e565b5b600182019050919050565b6000614708826145db565b9150614713836145db565b9250826147235761472261475d565b5b828206905092915050565b7f4e487b7100000000000000000000000000000000000000000000000000000000600052601160045260246000fd5b7f4e487b7100000000000000000000000000000000000000000000000000000000600052601260045260246000fd5b7f4e487b7100000000000000000000000000000000000000000000000000000000600052602260045260246000fd5b7f4e487b7100000000000000000000000000000000000000000000000000000000600052604160045260246000fd5b6000601f19601f8301169050919050565b7f455243373231456e756d657261626c653a206f776e657220696e646578206f7560008201527f74206f6620626f756e6473000000000000000000000000000000000000000000602082015250565b7f4552433732313a207472616e7366657220746f206e6f6e20455243373231526560008201527f63656976657220696d706c656d656e7465720000000000000000000000000000602082015250565b7f4552433732313a20746f6b656e20616c7265616479206d696e74656400000000600082015250565b7f4552433732313a207472616e7366657220746f20746865207a65726f2061646460008201527f7265737300000000000000000000000000000000000000000000000000000000602082015250565b7f4552433732313a20617070726f766520746f2063616c6c657200000000000000600082015250565b7f456c20746f6b656e2071756520696e74656e746173207472616e73666572697260008201527f206e6f2065786973746500000000000000000000000000000000000000000000602082015250565b7f4552433732313a206f70657261746f7220717565727920666f72206e6f6e657860008201527f697374656e7420746f6b656e0000000000000000000000000000000000000000602082015250565b7f4552433732313a20617070726f76652063616c6c6572206973206e6f74206f7760008201527f6e6572206e6f7220617070726f76656420666f7220616c6c0000000000000000602082015250565b7f4552433732313a2062616c616e636520717565727920666f7220746865207a6560008201527f726f206164647265737300000000000000000000000000000000000000000000602082015250565b7f4552433732313a206f776e657220717565727920666f72206e6f6e657869737460008201527f656e7420746f6b656e0000000000000000000000000000000000000000000000602082015250565b7f736f6c6f20656c206475656e6f2064656c20746f6b656e20707565646520766560008201527f6e6465726c6f0000000000000000000000000000000000000000000000000000602082015250565b7f4552433732313a206d696e7420746f20746865207a65726f2061646472657373600082015250565b7f4552433732313a20617070726f76656420717565727920666f72206e6f6e657860008201527f697374656e7420746f6b656e0000000000000000000000000000000000000000602082015250565b7f456c20746f6b656e2071756520696e74656e746173207175656d6172206e6f2060008201527f6578697374650000000000000000000000000000000000000000000000000000602082015250565b7f4552433732313a207472616e73666572206f6620746f6b656e2074686174206960008201527f73206e6f74206f776e0000000000000000000000000000000000000000000000602082015250565b7f4552433732314d657461646174613a2055524920717565727920666f72206e6f60008201527f6e6578697374656e7420746f6b656e0000000000000000000000000000000000602082015250565b7f4552433732313a20617070726f76616c20746f2063757272656e74206f776e6560008201527f7200000000000000000000000000000000000000000000000000000000000000602082015250565b7f4573746520746f6b656e206e6f2074652070657274656e656365000000000000600082015250565b7f4552433732313a207472616e736665722063616c6c6572206973206e6f74206f60008201527f776e6572206e6f7220617070726f766564000000000000000000000000000000602082015250565b7f455243373231456e756d657261626c653a20676c6f62616c20696e646578206f60008201527f7574206f6620626f756e64730000000000000000000000000000000000000000602082015250565b7f666f6e646f7320696e737566696369656e746573000000000000000000000000600082015250565b7f6e6f20686179206e667473206772617469730000000000000000000000000000600082015250565b7f65736520746f6b656e20746f6461766961206e6f206861207369646f2063726560008201527f61646f0000000000000000000000000000000000000000000000000000000000602082015250565b7f6e6f20736520656e6375656e7472612061206c612076656e746120657365207460008201527f6f6b656e00000000000000000000000000000000000000000000000000000000602082015250565b614e8881614571565b8114614e9357600080fd5b50565b614e9f81614583565b8114614eaa57600080fd5b50565b614eb68161458f565b8114614ec157600080fd5b50565b614ecd816145db565b8114614ed857600080fd5b5056fea2646970667358221220e6f6d08149419ca09268d48dc0a88aeeeedea8808ff1040e42c51d5ec11b4e0c64736f6c63430008010033",
  "immutableReferences": {},
  "source": "// SPDX-License-Identifier: MIT\r\npragma solidity >=0.4.22 <0.9.0;\r\nimport \"@openzeppelin/contracts/token/ERC721/ERC721.sol\";\r\nimport \"@openzeppelin/contracts/token/ERC721/extensions/ERC721Enumerable.sol\";\r\nimport \"@openzeppelin/contracts/utils/Counters.sol\";\r\n\r\ncontract MarketPlace is ERC721Enumerable {\r\n    using Counters for Counters.Counter;\r\n    //representa un entero que lleva la cuenta de los tokensNFT\r\n    Counters.Counter public _tokenIds;\r\n\r\n    //matenera el dueo del contrato o quien lo mino\r\n    address public minero;\r\n\r\n    //es el numero de tokens en venta\r\n    uint256 public nTokenOnSale;\r\n    // es la representacion de un token\r\n    struct tokenData {\r\n        uint256 price;\r\n        string data;\r\n        bool onSale;\r\n        uint256 tokenID;\r\n    }\r\n\r\n    //contiene todas las representacion de cada token\r\n    mapping(uint256 => tokenData) public tokensData;\r\n\r\n    constructor() ERC721(\"MarketPlace\", \"MPE\") {\r\n        minero = msg.sender;\r\n    }\r\n\r\n    /**\r\n    mina nuevos tokens\r\n\t@param receptor {address} es a quien mandaremos el  token \r\n\t@param datos    {string} es un json con todos los datos del token\r\n\t@param price    {uint256} the price in weis\r\n    @return {uint256} equivale a el tokenid recien creado\r\n\t */\r\n    function minar(\r\n        address receptor,\r\n        string memory datos,\r\n        uint256 price\r\n    ) public returns (uint256) {\r\n        //obtener el tokenid actual\r\n        uint256 newItemId = _tokenIds.current();\r\n\r\n        //aumentar en 1 el conteo de tokens\r\n        _tokenIds.increment();\r\n\r\n        //minar el token\r\n        _mint(receptor, newItemId);\r\n\r\n        //agregar los datos a nuestro mapping\r\n        tokensData[newItemId].data = datos;\r\n        tokensData[newItemId].price = price;\r\n        tokensData[newItemId].onSale = true;\r\n        tokensData[newItemId].tokenID = newItemId;\r\n\r\n        //agregar a la venta el nuevo token\r\n        nTokenOnSale++;\r\n        return newItemId;\r\n    }\r\n\r\n    /**\r\n    * Funcin para transferir un token NFT del propietario a otro address\r\n    @param to {address} representa a quien vamos a transferir nuestro NFT\r\n    @param tokenId {uint256} este valor indica el id que vamos a transferir \r\n    @return {addresss}  esta funcin nos retorna el address del nuevo propietario del NFT\r\n     */\r\n\r\n    function transferirNft(address to, uint256 tokenId)\r\n        public\r\n        returns (address)\r\n    {\r\n        require(_exists(tokenId), \"El token que intentas transferir no existe\");\r\n        require(msg.sender == ownerOf(tokenId), \"Este token no te pertenece\");\r\n\r\n        //transferir el token NFT si el token id existe y es nuestro\r\n        safeTransferFrom(msg.sender, to, tokenId);\r\n        //retornar el nuevo owner del token NFT\r\n        return to;\r\n    }\r\n\r\n    /** \r\n    * Funcin para eliminar un token NFT en tu address\r\n    @param tokenId {uint256} representa el id del token NFT a eliminar\r\n    @return {success} si el proceso fue llevado con exito la funcion retorna un true\r\n     */\r\n    function quemarNft(uint256 tokenId) public returns (bool) {\r\n        require(_exists(tokenId), \"El token que intentas quemar no existe\");\r\n        require(msg.sender == ownerOf(tokenId), \"Este token no te pertenece\");\r\n\r\n        //Eliminamos el token NFT si el token id existe y es nuestro\r\n        _burn(tokenId);\r\n\r\n        return true;\r\n    }\r\n\r\n    /**\r\n     * pone a la venta un token y si le das el precio lo cambia\r\n     *@param tokenid {uint256} representa el identificador del tokenid\r\n     *@param price  {uint256} representa el precio en wei al que se vendera\r\n     *\r\n     */\r\n    function revender(uint256 tokenid, uint256 price) public {\r\n        require(\r\n            ownerOf(tokenid) == msg.sender,\r\n            \"solo el dueno del token puede venderlo\"\r\n        );\r\n        require(price > 0, \"no hay nfts gratis\");\r\n        tokensData[tokenid].onSale = true;\r\n        tokensData[tokenid].price = price;\r\n        nTokenOnSale++;\r\n    }\r\n\r\n    /**\r\n     *cambia el estado del token para que este no pueda ser visualizado o vendido\r\n     *@param tokenid {uint256} tokenid representa el token al cual afectar\r\n     */\r\n    function quitarDelMarketPlace(uint256 tokenid) public {\r\n        //este require solo permite que el owner del tokenid pueda usar la funcion\r\n        require(\r\n            ownerOf(tokenid) == msg.sender,\r\n            \"solo el dueno del token puede venderlo\"\r\n        );\r\n        // impide que accedamos a una posicion inexistente\r\n        require(\r\n            tokenid < _tokenIds.current(),\r\n            \"ese token todavia no ha sido creado\"\r\n        );\r\n        tokensData[tokenid].onSale = false;\r\n        nTokenOnSale--;\r\n    }\r\n\r\n    /**\r\n     *regresa todos los nft disponibles\r\n     *@return tokenData[] contiene todos los tokens disponibles\r\n     */\r\n    function obtenerNfts() public view returns (tokenData[] memory) {\r\n        //es el numero de tokens\r\n        uint256 nTokens = _tokenIds.current();\r\n        //es un arreglo temporal con todos los nfts\r\n        tokenData[] memory onSaleTokensData = new tokenData[](nTokens);\r\n        //sacamos los nft del mapping y los almacenamos en el arreglo\r\n        for (uint256 index = 0; index < nTokens; index++) {\r\n            onSaleTokensData[index] = tokensData[index];\r\n        }\r\n\r\n        return onSaleTokensData;\r\n    }\r\n\r\n    /**\r\n     *trata a tokensData como un arreglo divido entre nTokenP\r\n     * el inicio de una pagina es el numero de pagina por el numero de tokens por pagina\r\n     * @param nTokenP uint256 es el numero de tokens que tiene una pagina\r\n     * @param nPagina contiene que pagina vamos a consultar\r\n     *@return tokenData[] contiene los tokens de una pagina\r\n     */\r\n    function obtenerPaginav1(uint256 nTokenP, uint256 nPagina)\r\n        public\r\n        view\r\n        returns (tokenData[] memory)\r\n    {\r\n        //es el incio del ciclo o el inicio de  la pagina\r\n        uint256 inicioPagina = nPagina * nTokenP;\r\n        //es un arreglo temporal con todos los nfts de la pagina\r\n        tokenData[] memory onSaleTokensData = new tokenData[](nTokenP);\r\n        //sacamos los nft y los almacenamos en el arreglo\r\n        for (\r\n            uint256 index = inicioPagina;\r\n            index < nTokenP * (nPagina + 1);\r\n            index++\r\n        ) {\r\n            //agregar tokens al arreglo\r\n            onSaleTokensData[index - inicioPagina] = tokensData[index];\r\n        }\r\n\r\n        return onSaleTokensData;\r\n    }\r\n\r\n    /**\r\n     *nos regresa los tokens que estan en venta hasta que se llene el arreglo o termine el ciclo\r\n     * espera a llenar el contador hasta que es el incio de la pagina que solicito\r\n     * @param nTokenP uint256 es el numero de tokens que tiene una pagina\r\n     * @param nPagina contiene que pagina vamos a consultar\r\n     *@return tokenData[] contiene los tokens de una pagina\r\n     */\r\n    function obtenerPaginav2(uint256 nTokenP, uint256 nPagina)\r\n        public\r\n        view\r\n        returns (tokenData[] memory)\r\n    {\r\n        //es el numero de tokens\r\n        uint256 nTokens = _tokenIds.current();\r\n        //es la posicion del el ultimo token agregado a onsaletokendata\r\n        uint256 lastToken = 0;\r\n        //cuenta cuantos tokens en venta van\r\n        uint256 ostok = 0;\r\n        //a partir de cuantos tokens comienza\r\n        //es un arreglo temporal con todos los nfts de la pagina\r\n        tokenData[] memory onSaleTokensData = new tokenData[](nTokenP);\r\n        //sacamos los nft y los almacenamos en el arreglo\r\n        for (uint256 index = 0; index < nTokens; index++) {\r\n            //si esta en venta\r\n            if (tokensData[index].onSale) {\r\n                //aumentamos el numero de tokens que estan a la venta\r\n                ostok++;\r\n                //si el numero de tokens es mayor o igual al incio de la pagina comenzamos a agregar tokens al arreglo\r\n                if (ostok >= nTokenP * nPagina) {\r\n                    onSaleTokensData[lastToken] = tokensData[index];\r\n                    lastToken++;\r\n                }\r\n                //si el numero de tokens llega al fin de la pagina cancelamos el for\r\n                if (ostok == nTokenP * (nPagina + 1)) break;\r\n            }\r\n            //agregar tokens al arreglo\r\n        }\r\n\r\n        return onSaleTokensData;\r\n    }\r\n\r\n    /**\r\n     *con esta funcion cualquiera puede comprar el nft que desea\r\n     *@param tokenId {uint256} tokenid representa el tokenid a comprar\r\n     */\r\n    function comprarNft(uint256 tokenId) public payable {\r\n        //este require se asegura que se mando el suficiente ether para comprar el token\r\n        require(msg.value == tokensData[tokenId].price, \"fondos insuficientes\");\r\n        //se impide la venta si no esta en venta el token\r\n        require(\r\n            tokensData[tokenId].onSale,\r\n            \"no se encuentra a la venta ese token\"\r\n        );\r\n        //es el dueo del token\r\n        address payable tokenOwner = payable(ownerOf(tokenId));\r\n\r\n        //mandamos el token al comprador\r\n        _transfer(tokenOwner, msg.sender, tokenId);\r\n\r\n        //le transferimos el dinero al  vendedor\r\n        tokenOwner.transfer(msg.value);\r\n\r\n        //poner el token en pausa\r\n        tokensData[tokenId].onSale = false;\r\n\r\n        nTokenOnSale--;\r\n    }\r\n\r\n    /**\r\n     * @param owner {address}  representa la direccin al cual consultar los tokens\r\n     * @return tokenData[] arreglo con todos los datos de cada token\r\n     */\r\n    function tokensOf(address owner) public view returns (tokenData[] memory) {\r\n        //numero de tokens\r\n        uint256 nTokens = balanceOf(owner);\r\n        if (nTokens == 0) {\r\n            return (new tokenData[](nTokens));\r\n        }\r\n        //arreglo con los tokens\r\n        tokenData[] memory userTokens = new tokenData[](nTokens);\r\n\r\n        for (uint256 i = 0; i < nTokens; i++) {\r\n            //obtener los datos de cada uno de los tokens\r\n            userTokens[i] = tokensData[tokenOfOwnerByIndex(owner, i)];\r\n        }\r\n        return (userTokens);\r\n    }\r\n\r\n    function tokensOfPaginav1(\r\n        address owner,\r\n        uint256 nTok_porpagina,\r\n        uint256 pag\r\n    ) public view returns (tokenData[] memory) {\r\n        uint256 nUserTokens = balanceOf(owner);\r\n        //calcular el inicio de la pagina\r\n        uint256 inicioPagina = pag * nTok_porpagina;\r\n        //si el fin es mayor que el numero de tokens\r\n        uint256 finPagina = inicioPagina + nTok_porpagina;\r\n        if (finPagina > nUserTokens) {\r\n            finPagina = nUserTokens; // 4\r\n        }\r\n        //arreglo con los tokens del usuario\r\n        tokenData[] memory userTokens = new tokenData[](nTok_porpagina);\r\n        for (uint256 i = inicioPagina; i < finPagina; i++) {\r\n            userTokens[i - inicioPagina] = tokensData[\r\n                tokenOfOwnerByIndex(owner, i)\r\n            ];\r\n        }\r\n        return userTokens;\r\n    }\r\n}\r\n",
  "sourcePath": "C:/Users/yeyei/OneDrive/Documentos/NFT-culturas-latinas/blockchain/contracts/MarketPlace.sol",
  "compiler": {
    "name": "solc",
    "version": "0.8.1+commit.df193b15.Emscripten.clang"
  },
  "schemaVersion": "3.3.3",
  "updatedAt": "2021-07-28T20:24:23.491Z",
  "networkType": "ethereum",
  "devdoc": {
    "kind": "dev",
    "methods": {
      "approve(address,uint256)": {
        "details": "See {IERC721-approve}."
      },
      "balanceOf(address)": {
        "details": "See {IERC721-balanceOf}."
      },
      "comprarNft(uint256)": {
        "params": {
          "tokenId": "{uint256} tokenid representa el tokenid a comprar"
        }
      },
      "getApproved(uint256)": {
        "details": "See {IERC721-getApproved}."
      },
      "isApprovedForAll(address,address)": {
        "details": "See {IERC721-isApprovedForAll}."
      },
      "minar(address,string,uint256)": {
        "params": {
          "datos": "{string} es un json con todos los datos del token",
          "price": "{uint256} the price in weis",
          "receptor": "{address} es a quien mandaremos el  token "
        },
        "returns": {
          "_0": "{uint256} equivale a el tokenid recien creado"
        }
      },
      "name()": {
        "details": "See {IERC721Metadata-name}."
      },
      "obtenerNfts()": {
        "returns": {
          "_0": "tokenData[] contiene todos los tokens disponibles"
        }
      },
      "obtenerPaginav1(uint256,uint256)": {
        "params": {
          "nPagina": "contiene que pagina vamos a consultar",
          "nTokenP": "uint256 es el numero de tokens que tiene una pagina"
        },
        "returns": {
          "_0": "tokenData[] contiene los tokens de una pagina"
        }
      },
      "obtenerPaginav2(uint256,uint256)": {
        "params": {
          "nPagina": "contiene que pagina vamos a consultar",
          "nTokenP": "uint256 es el numero de tokens que tiene una pagina"
        },
        "returns": {
          "_0": "tokenData[] contiene los tokens de una pagina"
        }
      },
      "ownerOf(uint256)": {
        "details": "See {IERC721-ownerOf}."
      },
      "quemarNft(uint256)": {
        "params": {
          "tokenId": "{uint256} representa el id del token NFT a eliminar"
        },
        "returns": {
          "_0": "{success} si el proceso fue llevado con exito la funcion retorna un true"
        }
      },
      "quitarDelMarketPlace(uint256)": {
        "params": {
          "tokenid": "{uint256} tokenid representa el token al cual afectar"
        }
      },
      "revender(uint256,uint256)": {
        "params": {
          "price": "{uint256} representa el precio en wei al que se vendera",
          "tokenid": "{uint256} representa el identificador del tokenid"
        }
      },
      "safeTransferFrom(address,address,uint256)": {
        "details": "See {IERC721-safeTransferFrom}."
      },
      "safeTransferFrom(address,address,uint256,bytes)": {
        "details": "See {IERC721-safeTransferFrom}."
      },
      "setApprovalForAll(address,bool)": {
        "details": "See {IERC721-setApprovalForAll}."
      },
      "supportsInterface(bytes4)": {
        "details": "See {IERC165-supportsInterface}."
      },
      "symbol()": {
        "details": "See {IERC721Metadata-symbol}."
      },
      "tokenByIndex(uint256)": {
        "details": "See {IERC721Enumerable-tokenByIndex}."
      },
      "tokenOfOwnerByIndex(address,uint256)": {
        "details": "See {IERC721Enumerable-tokenOfOwnerByIndex}."
      },
      "tokenURI(uint256)": {
        "details": "See {IERC721Metadata-tokenURI}."
      },
      "tokensOf(address)": {
        "params": {
          "owner": "{address}  representa la direccin al cual consultar los tokens"
        },
        "returns": {
          "_0": "tokenData[] arreglo con todos los datos de cada token"
        }
      },
      "totalSupply()": {
        "details": "See {IERC721Enumerable-totalSupply}."
      },
      "transferFrom(address,address,uint256)": {
        "details": "See {IERC721-transferFrom}."
      },
      "transferirNft(address,uint256)": {
        "params": {
          "to": "{address} representa a quien vamos a transferir nuestro NFT",
          "tokenId": "{uint256} este valor indica el id que vamos a transferir "
        },
        "returns": {
          "_0": "{addresss}  esta funcin nos retorna el address del nuevo propietario del NFT"
        }
      }
    },
    "version": 1
  },
  "userdoc": {
    "kind": "user",
    "methods": {
      "comprarNft(uint256)": {
        "notice": "con esta funcion cualquiera puede comprar el nft que desea"
      },
      "minar(address,string,uint256)": {
        "notice": "mina nuevos tokens"
      },
      "obtenerNfts()": {
        "notice": "regresa todos los nft disponibles"
      },
      "obtenerPaginav1(uint256,uint256)": {
        "notice": "trata a tokensData como un arreglo divido entre nTokenP el inicio de una pagina es el numero de pagina por el numero de tokens por pagina"
      },
      "obtenerPaginav2(uint256,uint256)": {
        "notice": "nos regresa los tokens que estan en venta hasta que se llene el arreglo o termine el ciclo espera a llenar el contador hasta que es el incio de la pagina que solicito"
      },
      "quemarNft(uint256)": {
        "notice": "Funcin para eliminar un token NFT en tu address"
      },
      "quitarDelMarketPlace(uint256)": {
        "notice": "cambia el estado del token para que este no pueda ser visualizado o vendido"
      },
      "revender(uint256,uint256)": {
        "notice": "pone a la venta un token y si le das el precio lo cambia"
      },
      "transferirNft(address,uint256)": {
        "notice": "Funcin para transferir un token NFT del propietario a otro address"
      }
    },
    "version": 1
  }
}